{"abi":[{"inputs":[{"internalType":"address","name":"authority","type":"address"},{"internalType":"string","name":"name","type":"string"},{"internalType":"string","name":"description","type":"string"}],"stateMutability":"nonpayable","type":"constructor"},{"inputs":[{"internalType":"string","name":"candidate_name","type":"string"},{"internalType":"string","name":"candidate_description","type":"string"},{"internalType":"string","name":"imgHash","type":"string"},{"internalType":"string","name":"email","type":"string"}],"name":"addCandidate","outputs":[],"stateMutability":"nonpayable","type":"function"},{"inputs":[{"internalType":"uint8","name":"","type":"uint8"}],"name":"candidates","outputs":[{"internalType":"string","name":"candidate_name","type":"string"},{"internalType":"string","name":"candidate_description","type":"string"},{"internalType":"string","name":"imgHash","type":"string"},{"internalType":"uint8","name":"voteCount","type":"uint8"},{"internalType":"string","name":"email","type":"string"}],"stateMutability":"view","type":"function"},{"inputs":[{"internalType":"uint8","name":"candidateID","type":"uint8"}],"name":"getCandidate","outputs":[{"internalType":"string","name":"","type":"string"},{"internalType":"string","name":"","type":"string"},{"internalType":"string","name":"","type":"string"},{"internalType":"uint8","name":"","type":"uint8"},{"internalType":"string","name":"","type":"string"}],"stateMutability":"view","type":"function"},{"inputs":[],"name":"getElectionDetails","outputs":[{"internalType":"string","name":"","type":"string"},{"internalType":"string","name":"","type":"string"}],"stateMutability":"view","type":"function"},{"inputs":[],"name":"getNumOfCandidates","outputs":[{"internalType":"uint8","name":"","type":"uint8"}],"stateMutability":"view","type":"function"},{"inputs":[],"name":"getNumOfVoters","outputs":[{"internalType":"uint8","name":"","type":"uint8"}],"stateMutability":"view","type":"function"},{"inputs":[{"internalType":"uint8","name":"candidateID","type":"uint8"},{"internalType":"string","name":"e","type":"string"}],"name":"vote","outputs":[],"stateMutability":"nonpayable","type":"function"},{"inputs":[],"name":"winnerCandidate","outputs":[{"internalType":"uint8","name":"","type":"uint8"}],"stateMutability":"view","type":"function"}],"devdoc":{"kind":"dev","methods":{},"version":1},"evm":{"assembly":"    /* \"Election.sol\":1020:4350  contract Election {... */\n  mstore(0x40, 0x80)\n    /* \"Election.sol\":1263:1486  constructor(address authority , string memory name, string memory description) {... */\n  callvalue\n  dup1\n  iszero\n  tag_1\n  jumpi\n  revert(0x00, 0x00)\ntag_1:\n  pop\n  mload(0x40)\n  sub(codesize, bytecodeSize)\n  dup1\n  bytecodeSize\n  dup4\n  codecopy\n  dup2\n  dup2\n  add\n  0x40\n  mstore\n  dup2\n  add\n  swap1\n  tag_2\n  swap2\n  swap1\n  tag_3\n  jump\t// in\ntag_2:\n    /* \"Election.sol\":1373:1382  authority */\n  dup3\n    /* \"Election.sol\":1352:1370  election_authority */\n  0x00\n  0x00\n    /* \"Election.sol\":1352:1382  election_authority = authority */\n  0x0100\n  exp\n  dup2\n  sload\n  dup2\n  0xffffffffffffffffffffffffffffffffffffffff\n  mul\n  not\n  and\n  swap1\n  dup4\n  0xffffffffffffffffffffffffffffffffffffffff\n  and\n  mul\n  or\n  swap1\n  sstore\n  pop\n    /* \"Election.sol\":1408:1412  name */\n  dup2\n    /* \"Election.sol\":1392:1405  election_name */\n  0x01\n    /* \"Election.sol\":1392:1412  election_name = name */\n  swap1\n  dup2\n  tag_6\n  swap2\n  swap1\n  tag_7\n  jump\t// in\ntag_6:\n  pop\n    /* \"Election.sol\":1445:1456  description */\n  dup1\n    /* \"Election.sol\":1422:1442  election_description */\n  0x02\n    /* \"Election.sol\":1422:1456  election_description = description */\n  swap1\n  dup2\n  tag_8\n  swap2\n  swap1\n  tag_7\n  jump\t// in\ntag_8:\n  pop\n    /* \"Election.sol\":1475:1479  true */\n  0x01\n    /* \"Election.sol\":1466:1472  status */\n  0x03\n  0x00\n    /* \"Election.sol\":1466:1479  status = true */\n  0x0100\n  exp\n  dup2\n  sload\n  dup2\n  0xff\n  mul\n  not\n  and\n  swap1\n  dup4\n  iszero\n  iszero\n  mul\n  or\n  swap1\n  sstore\n  pop\n    /* \"Election.sol\":1263:1486  constructor(address authority , string memory name, string memory description) {... */\n  pop\n  pop\n  pop\n    /* \"Election.sol\":1020:4350  contract Election {... */\n  jump(tag_9)\n    /* \"#utility.yul\":7:82   */\ntag_10:\n    /* \"#utility.yul\":40:46   */\n  0x00\n    /* \"#utility.yul\":73:75   */\n  0x40\n    /* \"#utility.yul\":67:76   */\n  mload\n    /* \"#utility.yul\":57:76   */\n  swap1\n  pop\n    /* \"#utility.yul\":7:82   */\n  swap1\n  jump\t// out\n    /* \"#utility.yul\":88:205   */\ntag_11:\n    /* \"#utility.yul\":197:198   */\n  0x00\n    /* \"#utility.yul\":194:195   */\n  0x00\n    /* \"#utility.yul\":187:199   */\n  revert\n    /* \"#utility.yul\":211:328   */\ntag_12:\n    /* \"#utility.yul\":320:321   */\n  0x00\n    /* \"#utility.yul\":317:318   */\n  0x00\n    /* \"#utility.yul\":310:322   */\n  revert\n    /* \"#utility.yul\":334:460   */\ntag_13:\n    /* \"#utility.yul\":371:378   */\n  0x00\n    /* \"#utility.yul\":411:453   */\n  0xffffffffffffffffffffffffffffffffffffffff\n    /* \"#utility.yul\":404:409   */\n  dup3\n    /* \"#utility.yul\":400:454   */\n  and\n    /* \"#utility.yul\":389:454   */\n  swap1\n  pop\n    /* \"#utility.yul\":334:460   */\n  swap2\n  swap1\n  pop\n  jump\t// out\n    /* \"#utility.yul\":466:562   */\ntag_14:\n    /* \"#utility.yul\":503:510   */\n  0x00\n    /* \"#utility.yul\":532:556   */\n  tag_52\n    /* \"#utility.yul\":550:555   */\n  dup3\n    /* \"#utility.yul\":532:556   */\n  tag_13\n  jump\t// in\ntag_52:\n    /* \"#utility.yul\":521:556   */\n  swap1\n  pop\n    /* \"#utility.yul\":466:562   */\n  swap2\n  swap1\n  pop\n  jump\t// out\n    /* \"#utility.yul\":568:690   */\ntag_15:\n    /* \"#utility.yul\":641:665   */\n  tag_54\n    /* \"#utility.yul\":659:664   */\n  dup2\n    /* \"#utility.yul\":641:665   */\n  tag_14\n  jump\t// in\ntag_54:\n    /* \"#utility.yul\":634:639   */\n  dup2\n    /* \"#utility.yul\":631:666   */\n  eq\n    /* \"#utility.yul\":621:684   */\n  tag_55\n  jumpi\n    /* \"#utility.yul\":680:681   */\n  0x00\n    /* \"#utility.yul\":677:678   */\n  0x00\n    /* \"#utility.yul\":670:682   */\n  revert\n    /* \"#utility.yul\":621:684   */\ntag_55:\n    /* \"#utility.yul\":568:690   */\n  pop\n  jump\t// out\n    /* \"#utility.yul\":696:839   */\ntag_16:\n    /* \"#utility.yul\":753:758   */\n  0x00\n    /* \"#utility.yul\":784:790   */\n  dup2\n    /* \"#utility.yul\":778:791   */\n  mload\n    /* \"#utility.yul\":769:791   */\n  swap1\n  pop\n    /* \"#utility.yul\":800:833   */\n  tag_57\n    /* \"#utility.yul\":827:832   */\n  dup2\n    /* \"#utility.yul\":800:833   */\n  tag_15\n  jump\t// in\ntag_57:\n    /* \"#utility.yul\":696:839   */\n  swap3\n  swap2\n  pop\n  pop\n  jump\t// out\n    /* \"#utility.yul\":845:962   */\ntag_17:\n    /* \"#utility.yul\":954:955   */\n  0x00\n    /* \"#utility.yul\":951:952   */\n  0x00\n    /* \"#utility.yul\":944:956   */\n  revert\n    /* \"#utility.yul\":968:1085   */\ntag_18:\n    /* \"#utility.yul\":1077:1078   */\n  0x00\n    /* \"#utility.yul\":1074:1075   */\n  0x00\n    /* \"#utility.yul\":1067:1079   */\n  revert\n    /* \"#utility.yul\":1091:1193   */\ntag_19:\n    /* \"#utility.yul\":1132:1138   */\n  0x00\n    /* \"#utility.yul\":1183:1185   */\n  0x1f\n    /* \"#utility.yul\":1179:1186   */\n  not\n    /* \"#utility.yul\":1174:1176   */\n  0x1f\n    /* \"#utility.yul\":1167:1172   */\n  dup4\n    /* \"#utility.yul\":1163:1177   */\n  add\n    /* \"#utility.yul\":1159:1187   */\n  and\n    /* \"#utility.yul\":1149:1187   */\n  swap1\n  pop\n    /* \"#utility.yul\":1091:1193   */\n  swap2\n  swap1\n  pop\n  jump\t// out\n    /* \"#utility.yul\":1199:1379   */\ntag_20:\n    /* \"#utility.yul\":1247:1324   */\n  0x4e487b7100000000000000000000000000000000000000000000000000000000\n    /* \"#utility.yul\":1244:1245   */\n  0x00\n    /* \"#utility.yul\":1237:1325   */\n  mstore\n    /* \"#utility.yul\":1344:1348   */\n  0x41\n    /* \"#utility.yul\":1341:1342   */\n  0x04\n    /* \"#utility.yul\":1334:1349   */\n  mstore\n    /* \"#utility.yul\":1368:1372   */\n  0x24\n    /* \"#utility.yul\":1365:1366   */\n  0x00\n    /* \"#utility.yul\":1358:1373   */\n  revert\n    /* \"#utility.yul\":1385:1666   */\ntag_21:\n    /* \"#utility.yul\":1468:1495   */\n  tag_63\n    /* \"#utility.yul\":1490:1494   */\n  dup3\n    /* \"#utility.yul\":1468:1495   */\n  tag_19\n  jump\t// in\ntag_63:\n    /* \"#utility.yul\":1460:1466   */\n  dup2\n    /* \"#utility.yul\":1456:1496   */\n  add\n    /* \"#utility.yul\":1598:1604   */\n  dup2\n    /* \"#utility.yul\":1586:1596   */\n  dup2\n    /* \"#utility.yul\":1583:1605   */\n  lt\n    /* \"#utility.yul\":1562:1580   */\n  0xffffffffffffffff\n    /* \"#utility.yul\":1550:1560   */\n  dup3\n    /* \"#utility.yul\":1547:1581   */\n  gt\n    /* \"#utility.yul\":1544:1606   */\n  or\n    /* \"#utility.yul\":1541:1629   */\n  iszero\n  tag_64\n  jumpi\n    /* \"#utility.yul\":1609:1627   */\n  tag_65\n  tag_20\n  jump\t// in\ntag_65:\n    /* \"#utility.yul\":1541:1629   */\ntag_64:\n    /* \"#utility.yul\":1649:1659   */\n  dup1\n    /* \"#utility.yul\":1645:1647   */\n  0x40\n    /* \"#utility.yul\":1638:1660   */\n  mstore\n    /* \"#utility.yul\":1428:1666   */\n  pop\n    /* \"#utility.yul\":1385:1666   */\n  pop\n  pop\n  jump\t// out\n    /* \"#utility.yul\":1672:1801   */\ntag_22:\n    /* \"#utility.yul\":1706:1712   */\n  0x00\n    /* \"#utility.yul\":1733:1753   */\n  tag_67\n  tag_10\n  jump\t// in\ntag_67:\n    /* \"#utility.yul\":1723:1753   */\n  swap1\n  pop\n    /* \"#utility.yul\":1762:1795   */\n  tag_68\n    /* \"#utility.yul\":1790:1794   */\n  dup3\n    /* \"#utility.yul\":1782:1788   */\n  dup3\n    /* \"#utility.yul\":1762:1795   */\n  tag_21\n  jump\t// in\ntag_68:\n    /* \"#utility.yul\":1672:1801   */\n  swap2\n  swap1\n  pop\n  jump\t// out\n    /* \"#utility.yul\":1807:2115   */\ntag_23:\n    /* \"#utility.yul\":1869:1873   */\n  0x00\n    /* \"#utility.yul\":1959:1977   */\n  0xffffffffffffffff\n    /* \"#utility.yul\":1951:1957   */\n  dup3\n    /* \"#utility.yul\":1948:1978   */\n  gt\n    /* \"#utility.yul\":1945:2001   */\n  iszero\n  tag_70\n  jumpi\n    /* \"#utility.yul\":1981:1999   */\n  tag_71\n  tag_20\n  jump\t// in\ntag_71:\n    /* \"#utility.yul\":1945:2001   */\ntag_70:\n    /* \"#utility.yul\":2019:2048   */\n  tag_72\n    /* \"#utility.yul\":2041:2047   */\n  dup3\n    /* \"#utility.yul\":2019:2048   */\n  tag_19\n  jump\t// in\ntag_72:\n    /* \"#utility.yul\":2011:2048   */\n  swap1\n  pop\n    /* \"#utility.yul\":2103:2107   */\n  0x20\n    /* \"#utility.yul\":2097:2101   */\n  dup2\n    /* \"#utility.yul\":2093:2108   */\n  add\n    /* \"#utility.yul\":2085:2108   */\n  swap1\n  pop\n    /* \"#utility.yul\":1807:2115   */\n  swap2\n  swap1\n  pop\n  jump\t// out\n    /* \"#utility.yul\":2121:2260   */\ntag_24:\n    /* \"#utility.yul\":2210:2216   */\n  dup3\n    /* \"#utility.yul\":2205:2208   */\n  dup2\n    /* \"#utility.yul\":2200:2203   */\n  dup4\n    /* \"#utility.yul\":2194:2217   */\n  mcopy\n    /* \"#utility.yul\":2251:2252   */\n  0x00\n    /* \"#utility.yul\":2242:2248   */\n  dup4\n    /* \"#utility.yul\":2237:2240   */\n  dup4\n    /* \"#utility.yul\":2233:2249   */\n  add\n    /* \"#utility.yul\":2226:2253   */\n  mstore\n    /* \"#utility.yul\":2121:2260   */\n  pop\n  pop\n  pop\n  jump\t// out\n    /* \"#utility.yul\":2266:2700   */\ntag_25:\n    /* \"#utility.yul\":2355:2360   */\n  0x00\n    /* \"#utility.yul\":2380:2446   */\n  tag_75\n    /* \"#utility.yul\":2396:2445   */\n  tag_76\n    /* \"#utility.yul\":2438:2444   */\n  dup5\n    /* \"#utility.yul\":2396:2445   */\n  tag_23\n  jump\t// in\ntag_76:\n    /* \"#utility.yul\":2380:2446   */\n  tag_22\n  jump\t// in\ntag_75:\n    /* \"#utility.yul\":2371:2446   */\n  swap1\n  pop\n    /* \"#utility.yul\":2469:2475   */\n  dup3\n    /* \"#utility.yul\":2462:2467   */\n  dup2\n    /* \"#utility.yul\":2455:2476   */\n  mstore\n    /* \"#utility.yul\":2507:2511   */\n  0x20\n    /* \"#utility.yul\":2500:2505   */\n  dup2\n    /* \"#utility.yul\":2496:2512   */\n  add\n    /* \"#utility.yul\":2545:2548   */\n  dup5\n    /* \"#utility.yul\":2536:2542   */\n  dup5\n    /* \"#utility.yul\":2531:2534   */\n  dup5\n    /* \"#utility.yul\":2527:2543   */\n  add\n    /* \"#utility.yul\":2524:2549   */\n  gt\n    /* \"#utility.yul\":2521:2633   */\n  iszero\n  tag_77\n  jumpi\n    /* \"#utility.yul\":2552:2631   */\n  tag_78\n  tag_18\n  jump\t// in\ntag_78:\n    /* \"#utility.yul\":2521:2633   */\ntag_77:\n    /* \"#utility.yul\":2642:2694   */\n  tag_79\n    /* \"#utility.yul\":2687:2693   */\n  dup5\n    /* \"#utility.yul\":2682:2685   */\n  dup3\n    /* \"#utility.yul\":2677:2680   */\n  dup6\n    /* \"#utility.yul\":2642:2694   */\n  tag_24\n  jump\t// in\ntag_79:\n    /* \"#utility.yul\":2361:2700   */\n  pop\n    /* \"#utility.yul\":2266:2700   */\n  swap4\n  swap3\n  pop\n  pop\n  pop\n  jump\t// out\n    /* \"#utility.yul\":2720:3075   */\ntag_26:\n    /* \"#utility.yul\":2787:2792   */\n  0x00\n    /* \"#utility.yul\":2836:2839   */\n  dup3\n    /* \"#utility.yul\":2829:2833   */\n  0x1f\n    /* \"#utility.yul\":2821:2827   */\n  dup4\n    /* \"#utility.yul\":2817:2834   */\n  add\n    /* \"#utility.yul\":2813:2840   */\n  slt\n    /* \"#utility.yul\":2803:2925   */\n  tag_81\n  jumpi\n    /* \"#utility.yul\":2844:2923   */\n  tag_82\n  tag_17\n  jump\t// in\ntag_82:\n    /* \"#utility.yul\":2803:2925   */\ntag_81:\n    /* \"#utility.yul\":2954:2960   */\n  dup2\n    /* \"#utility.yul\":2948:2961   */\n  mload\n    /* \"#utility.yul\":2979:3069   */\n  tag_83\n    /* \"#utility.yul\":3065:3068   */\n  dup5\n    /* \"#utility.yul\":3057:3063   */\n  dup3\n    /* \"#utility.yul\":3050:3054   */\n  0x20\n    /* \"#utility.yul\":3042:3048   */\n  dup7\n    /* \"#utility.yul\":3038:3055   */\n  add\n    /* \"#utility.yul\":2979:3069   */\n  tag_25\n  jump\t// in\ntag_83:\n    /* \"#utility.yul\":2970:3069   */\n  swap2\n  pop\n    /* \"#utility.yul\":2793:3075   */\n  pop\n    /* \"#utility.yul\":2720:3075   */\n  swap3\n  swap2\n  pop\n  pop\n  jump\t// out\n    /* \"#utility.yul\":3081:4090   */\ntag_3:\n    /* \"#utility.yul\":3189:3195   */\n  0x00\n    /* \"#utility.yul\":3197:3203   */\n  0x00\n    /* \"#utility.yul\":3205:3211   */\n  0x00\n    /* \"#utility.yul\":3254:3256   */\n  0x60\n    /* \"#utility.yul\":3242:3251   */\n  dup5\n    /* \"#utility.yul\":3233:3240   */\n  dup7\n    /* \"#utility.yul\":3229:3252   */\n  sub\n    /* \"#utility.yul\":3225:3257   */\n  slt\n    /* \"#utility.yul\":3222:3341   */\n  iszero\n  tag_85\n  jumpi\n    /* \"#utility.yul\":3260:3339   */\n  tag_86\n  tag_11\n  jump\t// in\ntag_86:\n    /* \"#utility.yul\":3222:3341   */\ntag_85:\n    /* \"#utility.yul\":3380:3381   */\n  0x00\n    /* \"#utility.yul\":3405:3469   */\n  tag_87\n    /* \"#utility.yul\":3461:3468   */\n  dup7\n    /* \"#utility.yul\":3452:3458   */\n  dup3\n    /* \"#utility.yul\":3441:3450   */\n  dup8\n    /* \"#utility.yul\":3437:3459   */\n  add\n    /* \"#utility.yul\":3405:3469   */\n  tag_16\n  jump\t// in\ntag_87:\n    /* \"#utility.yul\":3395:3469   */\n  swap4\n  pop\n    /* \"#utility.yul\":3351:3479   */\n  pop\n    /* \"#utility.yul\":3539:3541   */\n  0x20\n    /* \"#utility.yul\":3528:3537   */\n  dup5\n    /* \"#utility.yul\":3524:3542   */\n  add\n    /* \"#utility.yul\":3518:3543   */\n  mload\n    /* \"#utility.yul\":3570:3588   */\n  0xffffffffffffffff\n    /* \"#utility.yul\":3562:3568   */\n  dup2\n    /* \"#utility.yul\":3559:3589   */\n  gt\n    /* \"#utility.yul\":3556:3673   */\n  iszero\n  tag_88\n  jumpi\n    /* \"#utility.yul\":3592:3671   */\n  tag_89\n  tag_12\n  jump\t// in\ntag_89:\n    /* \"#utility.yul\":3556:3673   */\ntag_88:\n    /* \"#utility.yul\":3697:3771   */\n  tag_90\n    /* \"#utility.yul\":3763:3770   */\n  dup7\n    /* \"#utility.yul\":3754:3760   */\n  dup3\n    /* \"#utility.yul\":3743:3752   */\n  dup8\n    /* \"#utility.yul\":3739:3761   */\n  add\n    /* \"#utility.yul\":3697:3771   */\n  tag_26\n  jump\t// in\ntag_90:\n    /* \"#utility.yul\":3687:3771   */\n  swap3\n  pop\n    /* \"#utility.yul\":3489:3781   */\n  pop\n    /* \"#utility.yul\":3841:3843   */\n  0x40\n    /* \"#utility.yul\":3830:3839   */\n  dup5\n    /* \"#utility.yul\":3826:3844   */\n  add\n    /* \"#utility.yul\":3820:3845   */\n  mload\n    /* \"#utility.yul\":3872:3890   */\n  0xffffffffffffffff\n    /* \"#utility.yul\":3864:3870   */\n  dup2\n    /* \"#utility.yul\":3861:3891   */\n  gt\n    /* \"#utility.yul\":3858:3975   */\n  iszero\n  tag_91\n  jumpi\n    /* \"#utility.yul\":3894:3973   */\n  tag_92\n  tag_12\n  jump\t// in\ntag_92:\n    /* \"#utility.yul\":3858:3975   */\ntag_91:\n    /* \"#utility.yul\":3999:4073   */\n  tag_93\n    /* \"#utility.yul\":4065:4072   */\n  dup7\n    /* \"#utility.yul\":4056:4062   */\n  dup3\n    /* \"#utility.yul\":4045:4054   */\n  dup8\n    /* \"#utility.yul\":4041:4063   */\n  add\n    /* \"#utility.yul\":3999:4073   */\n  tag_26\n  jump\t// in\ntag_93:\n    /* \"#utility.yul\":3989:4073   */\n  swap2\n  pop\n    /* \"#utility.yul\":3791:4083   */\n  pop\n    /* \"#utility.yul\":3081:4090   */\n  swap3\n  pop\n  swap3\n  pop\n  swap3\n  jump\t// out\n    /* \"#utility.yul\":4096:4195   */\ntag_27:\n    /* \"#utility.yul\":4148:4154   */\n  0x00\n    /* \"#utility.yul\":4182:4187   */\n  dup2\n    /* \"#utility.yul\":4176:4188   */\n  mload\n    /* \"#utility.yul\":4166:4188   */\n  swap1\n  pop\n    /* \"#utility.yul\":4096:4195   */\n  swap2\n  swap1\n  pop\n  jump\t// out\n    /* \"#utility.yul\":4201:4381   */\ntag_28:\n    /* \"#utility.yul\":4249:4326   */\n  0x4e487b7100000000000000000000000000000000000000000000000000000000\n    /* \"#utility.yul\":4246:4247   */\n  0x00\n    /* \"#utility.yul\":4239:4327   */\n  mstore\n    /* \"#utility.yul\":4346:4350   */\n  0x22\n    /* \"#utility.yul\":4343:4344   */\n  0x04\n    /* \"#utility.yul\":4336:4351   */\n  mstore\n    /* \"#utility.yul\":4370:4374   */\n  0x24\n    /* \"#utility.yul\":4367:4368   */\n  0x00\n    /* \"#utility.yul\":4360:4375   */\n  revert\n    /* \"#utility.yul\":4387:4707   */\ntag_29:\n    /* \"#utility.yul\":4431:4437   */\n  0x00\n    /* \"#utility.yul\":4468:4469   */\n  0x02\n    /* \"#utility.yul\":4462:4466   */\n  dup3\n    /* \"#utility.yul\":4458:4470   */\n  div\n    /* \"#utility.yul\":4448:4470   */\n  swap1\n  pop\n    /* \"#utility.yul\":4515:4516   */\n  0x01\n    /* \"#utility.yul\":4509:4513   */\n  dup3\n    /* \"#utility.yul\":4505:4517   */\n  and\n    /* \"#utility.yul\":4536:4554   */\n  dup1\n    /* \"#utility.yul\":4526:4607   */\n  tag_97\n  jumpi\n    /* \"#utility.yul\":4592:4596   */\n  0x7f\n    /* \"#utility.yul\":4584:4590   */\n  dup3\n    /* \"#utility.yul\":4580:4597   */\n  and\n    /* \"#utility.yul\":4570:4597   */\n  swap2\n  pop\n    /* \"#utility.yul\":4526:4607   */\ntag_97:\n    /* \"#utility.yul\":4654:4656   */\n  0x20\n    /* \"#utility.yul\":4646:4652   */\n  dup3\n    /* \"#utility.yul\":4643:4657   */\n  lt\n    /* \"#utility.yul\":4623:4641   */\n  dup2\n    /* \"#utility.yul\":4620:4658   */\n  sub\n    /* \"#utility.yul\":4617:4701   */\n  tag_98\n  jumpi\n    /* \"#utility.yul\":4673:4691   */\n  tag_99\n  tag_28\n  jump\t// in\ntag_99:\n    /* \"#utility.yul\":4617:4701   */\ntag_98:\n    /* \"#utility.yul\":4438:4707   */\n  pop\n    /* \"#utility.yul\":4387:4707   */\n  swap2\n  swap1\n  pop\n  jump\t// out\n    /* \"#utility.yul\":4713:4854   */\ntag_30:\n    /* \"#utility.yul\":4762:4766   */\n  0x00\n    /* \"#utility.yul\":4785:4788   */\n  dup2\n    /* \"#utility.yul\":4777:4788   */\n  swap1\n  pop\n    /* \"#utility.yul\":4808:4811   */\n  dup2\n    /* \"#utility.yul\":4805:4806   */\n  0x00\n    /* \"#utility.yul\":4798:4812   */\n  mstore\n    /* \"#utility.yul\":4842:4846   */\n  0x20\n    /* \"#utility.yul\":4839:4840   */\n  0x00\n    /* \"#utility.yul\":4829:4847   */\n  keccak256\n    /* \"#utility.yul\":4821:4847   */\n  swap1\n  pop\n    /* \"#utility.yul\":4713:4854   */\n  swap2\n  swap1\n  pop\n  jump\t// out\n    /* \"#utility.yul\":4860:4953   */\ntag_31:\n    /* \"#utility.yul\":4897:4903   */\n  0x00\n    /* \"#utility.yul\":4944:4946   */\n  0x20\n    /* \"#utility.yul\":4939:4941   */\n  0x1f\n    /* \"#utility.yul\":4932:4937   */\n  dup4\n    /* \"#utility.yul\":4928:4942   */\n  add\n    /* \"#utility.yul\":4924:4947   */\n  div\n    /* \"#utility.yul\":4914:4947   */\n  swap1\n  pop\n    /* \"#utility.yul\":4860:4953   */\n  swap2\n  swap1\n  pop\n  jump\t// out\n    /* \"#utility.yul\":4959:5066   */\ntag_32:\n    /* \"#utility.yul\":5003:5011   */\n  0x00\n    /* \"#utility.yul\":5053:5058   */\n  dup3\n    /* \"#utility.yul\":5047:5051   */\n  dup3\n    /* \"#utility.yul\":5043:5059   */\n  shl\n    /* \"#utility.yul\":5022:5059   */\n  swap1\n  pop\n    /* \"#utility.yul\":4959:5066   */\n  swap3\n  swap2\n  pop\n  pop\n  jump\t// out\n    /* \"#utility.yul\":5072:5465   */\ntag_33:\n    /* \"#utility.yul\":5141:5147   */\n  0x00\n    /* \"#utility.yul\":5191:5192   */\n  0x08\n    /* \"#utility.yul\":5179:5189   */\n  dup4\n    /* \"#utility.yul\":5175:5193   */\n  mul\n    /* \"#utility.yul\":5214:5311   */\n  tag_104\n    /* \"#utility.yul\":5244:5310   */\n  0xffffffffffffffffffffffffffffffffffffffffffffffffffffffffffffffff\n    /* \"#utility.yul\":5233:5242   */\n  dup3\n    /* \"#utility.yul\":5214:5311   */\n  tag_32\n  jump\t// in\ntag_104:\n    /* \"#utility.yul\":5332:5371   */\n  tag_105\n    /* \"#utility.yul\":5362:5370   */\n  dup7\n    /* \"#utility.yul\":5351:5360   */\n  dup4\n    /* \"#utility.yul\":5332:5371   */\n  tag_32\n  jump\t// in\ntag_105:\n    /* \"#utility.yul\":5320:5371   */\n  swap6\n  pop\n    /* \"#utility.yul\":5404:5408   */\n  dup1\n    /* \"#utility.yul\":5400:5409   */\n  not\n    /* \"#utility.yul\":5393:5398   */\n  dup5\n    /* \"#utility.yul\":5389:5410   */\n  and\n    /* \"#utility.yul\":5380:5410   */\n  swap4\n  pop\n    /* \"#utility.yul\":5453:5457   */\n  dup1\n    /* \"#utility.yul\":5443:5451   */\n  dup7\n    /* \"#utility.yul\":5439:5458   */\n  and\n    /* \"#utility.yul\":5432:5437   */\n  dup5\n    /* \"#utility.yul\":5429:5459   */\n  or\n    /* \"#utility.yul\":5419:5459   */\n  swap3\n  pop\n    /* \"#utility.yul\":5148:5465   */\n  pop\n  pop\n    /* \"#utility.yul\":5072:5465   */\n  swap4\n  swap3\n  pop\n  pop\n  pop\n  jump\t// out\n    /* \"#utility.yul\":5471:5548   */\ntag_34:\n    /* \"#utility.yul\":5508:5515   */\n  0x00\n    /* \"#utility.yul\":5537:5542   */\n  dup2\n    /* \"#utility.yul\":5526:5542   */\n  swap1\n  pop\n    /* \"#utility.yul\":5471:5548   */\n  swap2\n  swap1\n  pop\n  jump\t// out\n    /* \"#utility.yul\":5554:5614   */\ntag_35:\n    /* \"#utility.yul\":5582:5585   */\n  0x00\n    /* \"#utility.yul\":5603:5608   */\n  dup2\n    /* \"#utility.yul\":5596:5608   */\n  swap1\n  pop\n    /* \"#utility.yul\":5554:5614   */\n  swap2\n  swap1\n  pop\n  jump\t// out\n    /* \"#utility.yul\":5620:5762   */\ntag_36:\n    /* \"#utility.yul\":5670:5679   */\n  0x00\n    /* \"#utility.yul\":5703:5756   */\n  tag_109\n    /* \"#utility.yul\":5721:5755   */\n  tag_110\n    /* \"#utility.yul\":5730:5754   */\n  tag_111\n    /* \"#utility.yul\":5748:5753   */\n  dup5\n    /* \"#utility.yul\":5730:5754   */\n  tag_34\n  jump\t// in\ntag_111:\n    /* \"#utility.yul\":5721:5755   */\n  tag_35\n  jump\t// in\ntag_110:\n    /* \"#utility.yul\":5703:5756   */\n  tag_34\n  jump\t// in\ntag_109:\n    /* \"#utility.yul\":5690:5756   */\n  swap1\n  pop\n    /* \"#utility.yul\":5620:5762   */\n  swap2\n  swap1\n  pop\n  jump\t// out\n    /* \"#utility.yul\":5768:5843   */\ntag_37:\n    /* \"#utility.yul\":5811:5814   */\n  0x00\n    /* \"#utility.yul\":5832:5837   */\n  dup2\n    /* \"#utility.yul\":5825:5837   */\n  swap1\n  pop\n    /* \"#utility.yul\":5768:5843   */\n  swap2\n  swap1\n  pop\n  jump\t// out\n    /* \"#utility.yul\":5849:6118   */\ntag_38:\n    /* \"#utility.yul\":5959:5998   */\n  tag_114\n    /* \"#utility.yul\":5990:5997   */\n  dup4\n    /* \"#utility.yul\":5959:5998   */\n  tag_36\n  jump\t// in\ntag_114:\n    /* \"#utility.yul\":6020:6111   */\n  tag_115\n    /* \"#utility.yul\":6069:6110   */\n  tag_116\n    /* \"#utility.yul\":6093:6109   */\n  dup3\n    /* \"#utility.yul\":6069:6110   */\n  tag_37\n  jump\t// in\ntag_116:\n    /* \"#utility.yul\":6061:6067   */\n  dup5\n    /* \"#utility.yul\":6054:6058   */\n  dup5\n    /* \"#utility.yul\":6048:6059   */\n  sload\n    /* \"#utility.yul\":6020:6111   */\n  tag_33\n  jump\t// in\ntag_115:\n    /* \"#utility.yul\":6014:6018   */\n  dup3\n    /* \"#utility.yul\":6007:6112   */\n  sstore\n    /* \"#utility.yul\":5925:6118   */\n  pop\n    /* \"#utility.yul\":5849:6118   */\n  pop\n  pop\n  pop\n  jump\t// out\n    /* \"#utility.yul\":6124:6197   */\ntag_39:\n    /* \"#utility.yul\":6169:6172   */\n  0x00\n    /* \"#utility.yul\":6190:6191   */\n  0x00\n    /* \"#utility.yul\":6183:6191   */\n  swap1\n  pop\n    /* \"#utility.yul\":6124:6197   */\n  swap1\n  jump\t// out\n    /* \"#utility.yul\":6203:6392   */\ntag_40:\n    /* \"#utility.yul\":6280:6312   */\n  tag_119\n  tag_39\n  jump\t// in\ntag_119:\n    /* \"#utility.yul\":6321:6386   */\n  tag_120\n    /* \"#utility.yul\":6379:6385   */\n  dup2\n    /* \"#utility.yul\":6371:6377   */\n  dup5\n    /* \"#utility.yul\":6365:6369   */\n  dup5\n    /* \"#utility.yul\":6321:6386   */\n  tag_38\n  jump\t// in\ntag_120:\n    /* \"#utility.yul\":6256:6392   */\n  pop\n    /* \"#utility.yul\":6203:6392   */\n  pop\n  pop\n  jump\t// out\n    /* \"#utility.yul\":6398:6612   */\ntag_41:\n    /* \"#utility.yul\":6483:6484   */\n  0x00\n    /* \"#utility.yul\":6468:6606   */\ntag_122:\n    /* \"#utility.yul\":6493:6502   */\n  dup3\n    /* \"#utility.yul\":6490:6491   */\n  dup2\n    /* \"#utility.yul\":6487:6503   */\n  lt\n    /* \"#utility.yul\":6468:6606   */\n  iszero\n  tag_124\n  jumpi\n    /* \"#utility.yul\":6545:6596   */\n  tag_125\n    /* \"#utility.yul\":6594:6595   */\n  0x00\n    /* \"#utility.yul\":6590:6591   */\n  dup3\n    /* \"#utility.yul\":6579:6588   */\n  dup5\n    /* \"#utility.yul\":6575:6592   */\n  add\n    /* \"#utility.yul\":6545:6596   */\n  tag_40\n  jump\t// in\ntag_125:\n    /* \"#utility.yul\":6518:6519   */\n  0x01\n    /* \"#utility.yul\":6515:6516   */\n  dup2\n    /* \"#utility.yul\":6511:6520   */\n  add\n    /* \"#utility.yul\":6506:6520   */\n  swap1\n  pop\n    /* \"#utility.yul\":6468:6606   */\n  jump(tag_122)\ntag_124:\n    /* \"#utility.yul\":6472:6486   */\n  pop\n    /* \"#utility.yul\":6398:6612   */\n  pop\n  pop\n  jump\t// out\n    /* \"#utility.yul\":6618:7364   */\ntag_42:\n    /* \"#utility.yul\":6719:6721   */\n  0x1f\n    /* \"#utility.yul\":6714:6717   */\n  dup3\n    /* \"#utility.yul\":6711:6722   */\n  gt\n    /* \"#utility.yul\":6708:7357   */\n  iszero\n  tag_127\n  jumpi\n    /* \"#utility.yul\":6748:6758   */\n  dup3\n    /* \"#utility.yul\":6743:6746   */\n  dup3\n    /* \"#utility.yul\":6740:6759   */\n  gt\n    /* \"#utility.yul\":6737:7347   */\n  iszero\n  tag_128\n  jumpi\n    /* \"#utility.yul\":6794:6832   */\n  tag_129\n    /* \"#utility.yul\":6826:6831   */\n  dup2\n    /* \"#utility.yul\":6794:6832   */\n  tag_30\n  jump\t// in\ntag_129:\n    /* \"#utility.yul\":6869:6891   */\n  tag_130\n    /* \"#utility.yul\":6887:6890   */\n  dup4\n    /* \"#utility.yul\":6869:6891   */\n  tag_31\n  jump\t// in\ntag_130:\n    /* \"#utility.yul\":6928:6957   */\n  tag_131\n    /* \"#utility.yul\":6946:6956   */\n  dup6\n    /* \"#utility.yul\":6928:6957   */\n  tag_31\n  jump\t// in\ntag_131:\n    /* \"#utility.yul\":7118:7120   */\n  0x20\n    /* \"#utility.yul\":7106:7116   */\n  dup7\n    /* \"#utility.yul\":7103:7121   */\n  lt\n    /* \"#utility.yul\":7100:7179   */\n  iszero\n  tag_132\n  jumpi\n    /* \"#utility.yul\":7160:7161   */\n  0x00\n    /* \"#utility.yul\":7144:7161   */\n  swap1\n  pop\n    /* \"#utility.yul\":7100:7179   */\ntag_132:\n    /* \"#utility.yul\":7229:7241   */\n  dup1\n    /* \"#utility.yul\":7219:7227   */\n  dup4\n    /* \"#utility.yul\":7215:7242   */\n  add\n    /* \"#utility.yul\":7259:7333   */\n  tag_133\n    /* \"#utility.yul\":7319:7331   */\n  dup3\n    /* \"#utility.yul\":7305:7317   */\n  dup5\n    /* \"#utility.yul\":7301:7332   */\n  sub\n    /* \"#utility.yul\":7288:7299   */\n  dup3\n    /* \"#utility.yul\":7259:7333   */\n  tag_41\n  jump\t// in\ntag_133:\n    /* \"#utility.yul\":6760:7347   */\n  pop\n  pop\n  pop\n  pop\n    /* \"#utility.yul\":6737:7347   */\ntag_128:\n    /* \"#utility.yul\":6708:7357   */\ntag_127:\n    /* \"#utility.yul\":6618:7364   */\n  pop\n  pop\n  pop\n  jump\t// out\n    /* \"#utility.yul\":7370:7487   */\ntag_43:\n    /* \"#utility.yul\":7424:7432   */\n  0x00\n    /* \"#utility.yul\":7474:7479   */\n  dup3\n    /* \"#utility.yul\":7468:7472   */\n  dup3\n    /* \"#utility.yul\":7464:7480   */\n  shr\n    /* \"#utility.yul\":7443:7480   */\n  swap1\n  pop\n    /* \"#utility.yul\":7370:7487   */\n  swap3\n  swap2\n  pop\n  pop\n  jump\t// out\n    /* \"#utility.yul\":7493:7662   */\ntag_44:\n    /* \"#utility.yul\":7537:7543   */\n  0x00\n    /* \"#utility.yul\":7570:7621   */\n  tag_136\n    /* \"#utility.yul\":7618:7619   */\n  0x00\n    /* \"#utility.yul\":7614:7620   */\n  not\n    /* \"#utility.yul\":7606:7611   */\n  dup5\n    /* \"#utility.yul\":7603:7604   */\n  0x08\n    /* \"#utility.yul\":7599:7612   */\n  mul\n    /* \"#utility.yul\":7570:7621   */\n  tag_43\n  jump\t// in\ntag_136:\n    /* \"#utility.yul\":7566:7622   */\n  not\n    /* \"#utility.yul\":7651:7655   */\n  dup1\n    /* \"#utility.yul\":7645:7649   */\n  dup4\n    /* \"#utility.yul\":7641:7656   */\n  and\n    /* \"#utility.yul\":7631:7656   */\n  swap2\n  pop\n    /* \"#utility.yul\":7544:7662   */\n  pop\n    /* \"#utility.yul\":7493:7662   */\n  swap3\n  swap2\n  pop\n  pop\n  jump\t// out\n    /* \"#utility.yul\":7667:7962   */\ntag_45:\n    /* \"#utility.yul\":7743:7747   */\n  0x00\n    /* \"#utility.yul\":7889:7918   */\n  tag_138\n    /* \"#utility.yul\":7914:7917   */\n  dup4\n    /* \"#utility.yul\":7908:7912   */\n  dup4\n    /* \"#utility.yul\":7889:7918   */\n  tag_44\n  jump\t// in\ntag_138:\n    /* \"#utility.yul\":7881:7918   */\n  swap2\n  pop\n    /* \"#utility.yul\":7951:7954   */\n  dup3\n    /* \"#utility.yul\":7948:7949   */\n  0x02\n    /* \"#utility.yul\":7944:7955   */\n  mul\n    /* \"#utility.yul\":7938:7942   */\n  dup3\n    /* \"#utility.yul\":7935:7956   */\n  or\n    /* \"#utility.yul\":7927:7956   */\n  swap1\n  pop\n    /* \"#utility.yul\":7667:7962   */\n  swap3\n  swap2\n  pop\n  pop\n  jump\t// out\n    /* \"#utility.yul\":7967:9362   */\ntag_7:\n    /* \"#utility.yul\":8084:8121   */\n  tag_140\n    /* \"#utility.yul\":8117:8120   */\n  dup3\n    /* \"#utility.yul\":8084:8121   */\n  tag_27\n  jump\t// in\ntag_140:\n    /* \"#utility.yul\":8186:8204   */\n  0xffffffffffffffff\n    /* \"#utility.yul\":8178:8184   */\n  dup2\n    /* \"#utility.yul\":8175:8205   */\n  gt\n    /* \"#utility.yul\":8172:8228   */\n  iszero\n  tag_141\n  jumpi\n    /* \"#utility.yul\":8208:8226   */\n  tag_142\n  tag_20\n  jump\t// in\ntag_142:\n    /* \"#utility.yul\":8172:8228   */\ntag_141:\n    /* \"#utility.yul\":8252:8290   */\n  tag_143\n    /* \"#utility.yul\":8284:8288   */\n  dup3\n    /* \"#utility.yul\":8278:8289   */\n  sload\n    /* \"#utility.yul\":8252:8290   */\n  tag_29\n  jump\t// in\ntag_143:\n    /* \"#utility.yul\":8337:8404   */\n  tag_144\n    /* \"#utility.yul\":8397:8403   */\n  dup3\n    /* \"#utility.yul\":8389:8395   */\n  dup3\n    /* \"#utility.yul\":8383:8387   */\n  dup6\n    /* \"#utility.yul\":8337:8404   */\n  tag_42\n  jump\t// in\ntag_144:\n    /* \"#utility.yul\":8431:8432   */\n  0x00\n    /* \"#utility.yul\":8455:8459   */\n  0x20\n    /* \"#utility.yul\":8442:8459   */\n  swap1\n  pop\n    /* \"#utility.yul\":8487:8489   */\n  0x1f\n    /* \"#utility.yul\":8479:8485   */\n  dup4\n    /* \"#utility.yul\":8476:8490   */\n  gt\n    /* \"#utility.yul\":8504:8505   */\n  0x01\n    /* \"#utility.yul\":8499:9117   */\n  dup2\n  eq\n  tag_146\n  jumpi\n    /* \"#utility.yul\":9161:9162   */\n  0x00\n    /* \"#utility.yul\":9178:9184   */\n  dup5\n    /* \"#utility.yul\":9175:9252   */\n  iszero\n  tag_147\n  jumpi\n    /* \"#utility.yul\":9227:9236   */\n  dup3\n    /* \"#utility.yul\":9222:9225   */\n  dup8\n    /* \"#utility.yul\":9218:9237   */\n  add\n    /* \"#utility.yul\":9212:9238   */\n  mload\n    /* \"#utility.yul\":9203:9238   */\n  swap1\n  pop\n    /* \"#utility.yul\":9175:9252   */\ntag_147:\n    /* \"#utility.yul\":9278:9345   */\n  tag_148\n    /* \"#utility.yul\":9338:9344   */\n  dup6\n    /* \"#utility.yul\":9331:9336   */\n  dup3\n    /* \"#utility.yul\":9278:9345   */\n  tag_45\n  jump\t// in\ntag_148:\n    /* \"#utility.yul\":9272:9276   */\n  dup7\n    /* \"#utility.yul\":9265:9346   */\n  sstore\n    /* \"#utility.yul\":9134:9356   */\n  pop\n    /* \"#utility.yul\":8469:9356   */\n  jump(tag_145)\n    /* \"#utility.yul\":8499:9117   */\ntag_146:\n    /* \"#utility.yul\":8551:8555   */\n  0x1f\n    /* \"#utility.yul\":8547:8556   */\n  not\n    /* \"#utility.yul\":8539:8545   */\n  dup5\n    /* \"#utility.yul\":8535:8557   */\n  and\n    /* \"#utility.yul\":8585:8622   */\n  tag_149\n    /* \"#utility.yul\":8617:8621   */\n  dup7\n    /* \"#utility.yul\":8585:8622   */\n  tag_30\n  jump\t// in\ntag_149:\n    /* \"#utility.yul\":8644:8645   */\n  0x00\n    /* \"#utility.yul\":8658:8866   */\ntag_150:\n    /* \"#utility.yul\":8672:8679   */\n  dup3\n    /* \"#utility.yul\":8669:8670   */\n  dup2\n    /* \"#utility.yul\":8666:8680   */\n  lt\n    /* \"#utility.yul\":8658:8866   */\n  iszero\n  tag_152\n  jumpi\n    /* \"#utility.yul\":8751:8760   */\n  dup5\n    /* \"#utility.yul\":8746:8749   */\n  dup10\n    /* \"#utility.yul\":8742:8761   */\n  add\n    /* \"#utility.yul\":8736:8762   */\n  mload\n    /* \"#utility.yul\":8728:8734   */\n  dup3\n    /* \"#utility.yul\":8721:8763   */\n  sstore\n    /* \"#utility.yul\":8802:8803   */\n  0x01\n    /* \"#utility.yul\":8794:8800   */\n  dup3\n    /* \"#utility.yul\":8790:8804   */\n  add\n    /* \"#utility.yul\":8780:8804   */\n  swap2\n  pop\n    /* \"#utility.yul\":8849:8851   */\n  0x20\n    /* \"#utility.yul\":8838:8847   */\n  dup6\n    /* \"#utility.yul\":8834:8852   */\n  add\n    /* \"#utility.yul\":8821:8852   */\n  swap5\n  pop\n    /* \"#utility.yul\":8695:8699   */\n  0x20\n    /* \"#utility.yul\":8692:8693   */\n  dup2\n    /* \"#utility.yul\":8688:8700   */\n  add\n    /* \"#utility.yul\":8683:8700   */\n  swap1\n  pop\n    /* \"#utility.yul\":8658:8866   */\n  jump(tag_150)\ntag_152:\n    /* \"#utility.yul\":8894:8900   */\n  dup7\n    /* \"#utility.yul\":8885:8892   */\n  dup4\n    /* \"#utility.yul\":8882:8901   */\n  lt\n    /* \"#utility.yul\":8879:9058   */\n  iszero\n  tag_153\n  jumpi\n    /* \"#utility.yul\":8952:8961   */\n  dup5\n    /* \"#utility.yul\":8947:8950   */\n  dup10\n    /* \"#utility.yul\":8943:8962   */\n  add\n    /* \"#utility.yul\":8937:8963   */\n  mload\n    /* \"#utility.yul\":8995:9043   */\n  tag_154\n    /* \"#utility.yul\":9037:9041   */\n  0x1f\n    /* \"#utility.yul\":9029:9035   */\n  dup10\n    /* \"#utility.yul\":9025:9042   */\n  and\n    /* \"#utility.yul\":9014:9023   */\n  dup3\n    /* \"#utility.yul\":8995:9043   */\n  tag_44\n  jump\t// in\ntag_154:\n    /* \"#utility.yul\":8987:8993   */\n  dup4\n    /* \"#utility.yul\":8980:9044   */\n  sstore\n    /* \"#utility.yul\":8902:9058   */\n  pop\n    /* \"#utility.yul\":8879:9058   */\ntag_153:\n    /* \"#utility.yul\":9104:9105   */\n  0x01\n    /* \"#utility.yul\":9100:9101   */\n  0x02\n    /* \"#utility.yul\":9092:9098   */\n  dup9\n    /* \"#utility.yul\":9088:9102   */\n  mul\n    /* \"#utility.yul\":9084:9106   */\n  add\n    /* \"#utility.yul\":9078:9082   */\n  dup9\n    /* \"#utility.yul\":9071:9107   */\n  sstore\n    /* \"#utility.yul\":8506:9117   */\n  pop\n  pop\n  pop\n    /* \"#utility.yul\":8469:9356   */\ntag_145:\n  pop\n    /* \"#utility.yul\":8059:9362   */\n  pop\n  pop\n  pop\n    /* \"#utility.yul\":7967:9362   */\n  pop\n  pop\n  jump\t// out\n    /* \"Election.sol\":1020:4350  contract Election {... */\ntag_9:\n  dataSize(sub_0)\n  dup1\n  dataOffset(sub_0)\n  0x00\n  codecopy\n  0x00\n  return\nstop\n\nsub_0: assembly {\n        /* \"Election.sol\":1020:4350  contract Election {... */\n      mstore(0x40, 0x80)\n      callvalue\n      dup1\n      iszero\n      tag_1\n      jumpi\n      revert(0x00, 0x00)\n    tag_1:\n      pop\n      jumpi(tag_2, lt(calldatasize, 0x04))\n      shr(0xe0, calldataload(0x00))\n      dup1\n      0xb224c40a\n      gt\n      tag_11\n      jumpi\n      dup1\n      0xb224c40a\n      eq\n      tag_7\n      jumpi\n      dup1\n      0xcde9370f\n      eq\n      tag_8\n      jumpi\n      dup1\n      0xe8685ba1\n      eq\n      tag_9\n      jumpi\n      dup1\n      0xed836bc3\n      eq\n      tag_10\n      jumpi\n      jump(tag_2)\n    tag_11:\n      dup1\n      0x42b03cc9\n      eq\n      tag_3\n      jumpi\n      dup1\n      0x65fc783c\n      eq\n      tag_4\n      jumpi\n      dup1\n      0x6d6277f4\n      eq\n      tag_5\n      jumpi\n      dup1\n      0xa15148d1\n      eq\n      tag_6\n      jumpi\n    tag_2:\n      revert(0x00, 0x00)\n        /* \"Election.sol\":2281:2638  function addCandidate(string memory candidate_name, string memory candidate_description, string memory imgHash,string memory email) public owner {... */\n    tag_3:\n      tag_12\n      0x04\n      dup1\n      calldatasize\n      sub\n      dup2\n      add\n      swap1\n      tag_13\n      swap2\n      swap1\n      tag_14\n      jump\t// in\n    tag_13:\n      tag_15\n      jump\t// in\n    tag_12:\n      stop\n        /* \"Election.sol\":3261:3347  function getNumOfVoters() public view returns(uint8) {... */\n    tag_4:\n      tag_16\n      tag_17\n      jump\t// in\n    tag_16:\n      mload(0x40)\n      tag_18\n      swap2\n      swap1\n      tag_19\n      jump\t// in\n    tag_18:\n      mload(0x40)\n      dup1\n      swap2\n      sub\n      swap1\n      return\n        /* \"Election.sol\":1894:1937  mapping(uint8=>Candidate) public candidates */\n    tag_5:\n      tag_20\n      0x04\n      dup1\n      calldatasize\n      sub\n      dup2\n      add\n      swap1\n      tag_21\n      swap2\n      swap1\n      tag_22\n      jump\t// in\n    tag_21:\n      tag_23\n      jump\t// in\n    tag_20:\n      mload(0x40)\n      tag_24\n      swap6\n      swap5\n      swap4\n      swap3\n      swap2\n      swap1\n      tag_25\n      jump\t// in\n    tag_24:\n      mload(0x40)\n      dup1\n      swap2\n      sub\n      swap1\n      return\n        /* \"Election.sol\":3798:4194  function winnerCandidate() public view owner returns (uint8) {... */\n    tag_6:\n      tag_26\n      tag_27\n      jump\t// in\n    tag_26:\n      mload(0x40)\n      tag_28\n      swap2\n      swap1\n      tag_19\n      jump\t// in\n    tag_28:\n      mload(0x40)\n      dup1\n      swap2\n      sub\n      swap1\n      return\n        /* \"Election.sol\":2695:3073  function vote(uint8 candidateID,string memory e) public {... */\n    tag_7:\n      tag_29\n      0x04\n      dup1\n      calldatasize\n      sub\n      dup2\n      add\n      swap1\n      tag_30\n      swap2\n      swap1\n      tag_31\n      jump\t// in\n    tag_30:\n      tag_32\n      jump\t// in\n    tag_29:\n      stop\n        /* \"Election.sol\":3398:3736  function getCandidate(uint8 candidateID) public view returns (string memory, string memory, string memory, uint8,string memory) {... */\n    tag_8:\n      tag_33\n      0x04\n      dup1\n      calldatasize\n      sub\n      dup2\n      add\n      swap1\n      tag_34\n      swap2\n      swap1\n      tag_22\n      jump\t// in\n    tag_34:\n      tag_35\n      jump\t// in\n    tag_33:\n      mload(0x40)\n      tag_36\n      swap6\n      swap5\n      swap4\n      swap3\n      swap2\n      swap1\n      tag_25\n      jump\t// in\n    tag_36:\n      mload(0x40)\n      dup1\n      swap2\n      sub\n      swap1\n      return\n        /* \"Election.sol\":3122:3216  function getNumOfCandidates() public view returns(uint8) {... */\n    tag_9:\n      tag_37\n      tag_38\n      jump\t// in\n    tag_37:\n      mload(0x40)\n      tag_39\n      swap2\n      swap1\n      tag_19\n      jump\t// in\n    tag_39:\n      mload(0x40)\n      dup1\n      swap2\n      sub\n      swap1\n      return\n        /* \"Election.sol\":4204:4348  function getElectionDetails() public view returns(string memory, string memory) {... */\n    tag_10:\n      tag_40\n      tag_41\n      jump\t// in\n    tag_40:\n      mload(0x40)\n      tag_42\n      swap3\n      swap2\n      swap1\n      tag_43\n      jump\t// in\n    tag_42:\n      mload(0x40)\n      dup1\n      swap2\n      sub\n      swap1\n      return\n        /* \"Election.sol\":2281:2638  function addCandidate(string memory candidate_name, string memory candidate_description, string memory imgHash,string memory email) public owner {... */\n    tag_15:\n        /* \"Election.sol\":1594:1612  election_authority */\n      0x00\n      0x00\n      swap1\n      sload\n      swap1\n      0x0100\n      exp\n      swap1\n      div\n      0xffffffffffffffffffffffffffffffffffffffff\n      and\n        /* \"Election.sol\":1580:1612  msg.sender == election_authority */\n      0xffffffffffffffffffffffffffffffffffffffff\n      and\n        /* \"Election.sol\":1580:1590  msg.sender */\n      caller\n        /* \"Election.sol\":1580:1612  msg.sender == election_authority */\n      0xffffffffffffffffffffffffffffffffffffffff\n      and\n      eq\n        /* \"Election.sol\":1572:1638  require(msg.sender == election_authority, \"Error: Access Denied.\") */\n      tag_45\n      jumpi\n      mload(0x40)\n      0x08c379a000000000000000000000000000000000000000000000000000000000\n      dup2\n      mstore\n      0x04\n      add\n      tag_46\n      swap1\n      tag_47\n      jump\t// in\n    tag_46:\n      mload(0x40)\n      dup1\n      swap2\n      sub\n      swap1\n      revert\n    tag_45:\n        /* \"Election.sol\":2436:2453  uint8 candidateID */\n      0x00\n        /* \"Election.sol\":2456:2469  numCandidates */\n      0x06\n      0x00\n        /* \"Election.sol\":2456:2471  numCandidates++ */\n      dup2\n      dup2\n      swap1\n      sload\n      swap1\n      0x0100\n      exp\n      swap1\n      div\n      0xff\n      and\n      dup1\n      swap3\n      swap2\n      swap1\n      tag_49\n      swap1\n      tag_50\n      jump\t// in\n    tag_49:\n      swap2\n      swap1\n      0x0100\n      exp\n      dup2\n      sload\n      dup2\n      0xff\n      mul\n      not\n      and\n      swap1\n      dup4\n      0xff\n      and\n      mul\n      or\n      swap1\n      sstore\n      pop\n        /* \"Election.sol\":2436:2471  uint8 candidateID = numCandidates++ */\n      swap1\n      pop\n        /* \"Election.sol\":2536:2599  Candidate(candidate_name,candidate_description,imgHash,0,email) */\n      mload(0x40)\n      dup1\n      0xa0\n      add\n      0x40\n      mstore\n      dup1\n        /* \"Election.sol\":2546:2560  candidate_name */\n      dup7\n        /* \"Election.sol\":2536:2599  Candidate(candidate_name,candidate_description,imgHash,0,email) */\n      dup2\n      mstore\n      0x20\n      add\n        /* \"Election.sol\":2561:2582  candidate_description */\n      dup6\n        /* \"Election.sol\":2536:2599  Candidate(candidate_name,candidate_description,imgHash,0,email) */\n      dup2\n      mstore\n      0x20\n      add\n        /* \"Election.sol\":2583:2590  imgHash */\n      dup5\n        /* \"Election.sol\":2536:2599  Candidate(candidate_name,candidate_description,imgHash,0,email) */\n      dup2\n      mstore\n      0x20\n      add\n        /* \"Election.sol\":2591:2592  0 */\n      0x00\n        /* \"Election.sol\":2536:2599  Candidate(candidate_name,candidate_description,imgHash,0,email) */\n      0xff\n      and\n      dup2\n      mstore\n      0x20\n      add\n        /* \"Election.sol\":2593:2598  email */\n      dup4\n        /* \"Election.sol\":2536:2599  Candidate(candidate_name,candidate_description,imgHash,0,email) */\n      dup2\n      mstore\n      pop\n        /* \"Election.sol\":2510:2520  candidates */\n      0x04\n        /* \"Election.sol\":2510:2533  candidates[candidateID] */\n      0x00\n        /* \"Election.sol\":2521:2532  candidateID */\n      dup4\n        /* \"Election.sol\":2510:2533  candidates[candidateID] */\n      0xff\n      and\n      0xff\n      and\n      dup2\n      mstore\n      0x20\n      add\n      swap1\n      dup2\n      mstore\n      0x20\n      add\n      0x00\n      keccak256\n        /* \"Election.sol\":2510:2599  candidates[candidateID] = Candidate(candidate_name,candidate_description,imgHash,0,email) */\n      0x00\n      dup3\n      add\n      mload\n      dup2\n      0x00\n      add\n      swap1\n      dup2\n      tag_51\n      swap2\n      swap1\n      tag_52\n      jump\t// in\n    tag_51:\n      pop\n      0x20\n      dup3\n      add\n      mload\n      dup2\n      0x01\n      add\n      swap1\n      dup2\n      tag_53\n      swap2\n      swap1\n      tag_52\n      jump\t// in\n    tag_53:\n      pop\n      0x40\n      dup3\n      add\n      mload\n      dup2\n      0x02\n      add\n      swap1\n      dup2\n      tag_54\n      swap2\n      swap1\n      tag_52\n      jump\t// in\n    tag_54:\n      pop\n      0x60\n      dup3\n      add\n      mload\n      dup2\n      0x03\n      add\n      exp(0x0100, 0x00)\n      dup2\n      sload\n      dup2\n      0xff\n      mul\n      not\n      and\n      swap1\n      dup4\n      0xff\n      and\n      mul\n      or\n      swap1\n      sstore\n      pop\n      0x80\n      dup3\n      add\n      mload\n      dup2\n      0x04\n      add\n      swap1\n      dup2\n      tag_55\n      swap2\n      swap1\n      tag_52\n      jump\t// in\n    tag_55:\n      pop\n      swap1\n      pop\n      pop\n        /* \"Election.sol\":2426:2638  {... */\n      pop\n        /* \"Election.sol\":2281:2638  function addCandidate(string memory candidate_name, string memory candidate_description, string memory imgHash,string memory email) public owner {... */\n      pop\n      pop\n      pop\n      pop\n      jump\t// out\n        /* \"Election.sol\":3261:3347  function getNumOfVoters() public view returns(uint8) {... */\n    tag_17:\n        /* \"Election.sol\":3307:3312  uint8 */\n      0x00\n        /* \"Election.sol\":3331:3340  numVoters */\n      0x06\n      0x01\n      swap1\n      sload\n      swap1\n      0x0100\n      exp\n      swap1\n      div\n      0xff\n      and\n        /* \"Election.sol\":3324:3340  return numVoters */\n      swap1\n      pop\n        /* \"Election.sol\":3261:3347  function getNumOfVoters() public view returns(uint8) {... */\n      swap1\n      jump\t// out\n        /* \"Election.sol\":1894:1937  mapping(uint8=>Candidate) public candidates */\n    tag_23:\n      mstore(0x20, 0x04)\n      dup1\n      0x00\n      mstore\n      keccak256(0x00, 0x40)\n      0x00\n      swap2\n      pop\n      swap1\n      pop\n      dup1\n      0x00\n      add\n      dup1\n      sload\n      tag_57\n      swap1\n      tag_58\n      jump\t// in\n    tag_57:\n      dup1\n      0x1f\n      add\n      0x20\n      dup1\n      swap2\n      div\n      mul\n      0x20\n      add\n      mload(0x40)\n      swap1\n      dup2\n      add\n      0x40\n      mstore\n      dup1\n      swap3\n      swap2\n      swap1\n      dup2\n      dup2\n      mstore\n      0x20\n      add\n      dup3\n      dup1\n      sload\n      tag_59\n      swap1\n      tag_58\n      jump\t// in\n    tag_59:\n      dup1\n      iszero\n      tag_60\n      jumpi\n      dup1\n      0x1f\n      lt\n      tag_61\n      jumpi\n      0x0100\n      dup1\n      dup4\n      sload\n      div\n      mul\n      dup4\n      mstore\n      swap2\n      0x20\n      add\n      swap2\n      jump(tag_60)\n    tag_61:\n      dup3\n      add\n      swap2\n      swap1\n      0x00\n      mstore\n      keccak256(0x00, 0x20)\n      swap1\n    tag_62:\n      dup2\n      sload\n      dup2\n      mstore\n      swap1\n      0x01\n      add\n      swap1\n      0x20\n      add\n      dup1\n      dup4\n      gt\n      tag_62\n      jumpi\n      dup3\n      swap1\n      sub\n      0x1f\n      and\n      dup3\n      add\n      swap2\n    tag_60:\n      pop\n      pop\n      pop\n      pop\n      pop\n      swap1\n      dup1\n      0x01\n      add\n      dup1\n      sload\n      tag_63\n      swap1\n      tag_58\n      jump\t// in\n    tag_63:\n      dup1\n      0x1f\n      add\n      0x20\n      dup1\n      swap2\n      div\n      mul\n      0x20\n      add\n      mload(0x40)\n      swap1\n      dup2\n      add\n      0x40\n      mstore\n      dup1\n      swap3\n      swap2\n      swap1\n      dup2\n      dup2\n      mstore\n      0x20\n      add\n      dup3\n      dup1\n      sload\n      tag_64\n      swap1\n      tag_58\n      jump\t// in\n    tag_64:\n      dup1\n      iszero\n      tag_65\n      jumpi\n      dup1\n      0x1f\n      lt\n      tag_66\n      jumpi\n      0x0100\n      dup1\n      dup4\n      sload\n      div\n      mul\n      dup4\n      mstore\n      swap2\n      0x20\n      add\n      swap2\n      jump(tag_65)\n    tag_66:\n      dup3\n      add\n      swap2\n      swap1\n      0x00\n      mstore\n      keccak256(0x00, 0x20)\n      swap1\n    tag_67:\n      dup2\n      sload\n      dup2\n      mstore\n      swap1\n      0x01\n      add\n      swap1\n      0x20\n      add\n      dup1\n      dup4\n      gt\n      tag_67\n      jumpi\n      dup3\n      swap1\n      sub\n      0x1f\n      and\n      dup3\n      add\n      swap2\n    tag_65:\n      pop\n      pop\n      pop\n      pop\n      pop\n      swap1\n      dup1\n      0x02\n      add\n      dup1\n      sload\n      tag_68\n      swap1\n      tag_58\n      jump\t// in\n    tag_68:\n      dup1\n      0x1f\n      add\n      0x20\n      dup1\n      swap2\n      div\n      mul\n      0x20\n      add\n      mload(0x40)\n      swap1\n      dup2\n      add\n      0x40\n      mstore\n      dup1\n      swap3\n      swap2\n      swap1\n      dup2\n      dup2\n      mstore\n      0x20\n      add\n      dup3\n      dup1\n      sload\n      tag_69\n      swap1\n      tag_58\n      jump\t// in\n    tag_69:\n      dup1\n      iszero\n      tag_70\n      jumpi\n      dup1\n      0x1f\n      lt\n      tag_71\n      jumpi\n      0x0100\n      dup1\n      dup4\n      sload\n      div\n      mul\n      dup4\n      mstore\n      swap2\n      0x20\n      add\n      swap2\n      jump(tag_70)\n    tag_71:\n      dup3\n      add\n      swap2\n      swap1\n      0x00\n      mstore\n      keccak256(0x00, 0x20)\n      swap1\n    tag_72:\n      dup2\n      sload\n      dup2\n      mstore\n      swap1\n      0x01\n      add\n      swap1\n      0x20\n      add\n      dup1\n      dup4\n      gt\n      tag_72\n      jumpi\n      dup3\n      swap1\n      sub\n      0x1f\n      and\n      dup3\n      add\n      swap2\n    tag_70:\n      pop\n      pop\n      pop\n      pop\n      pop\n      swap1\n      dup1\n      0x03\n      add\n      0x00\n      swap1\n      sload\n      swap1\n      0x0100\n      exp\n      swap1\n      div\n      0xff\n      and\n      swap1\n      dup1\n      0x04\n      add\n      dup1\n      sload\n      tag_73\n      swap1\n      tag_58\n      jump\t// in\n    tag_73:\n      dup1\n      0x1f\n      add\n      0x20\n      dup1\n      swap2\n      div\n      mul\n      0x20\n      add\n      mload(0x40)\n      swap1\n      dup2\n      add\n      0x40\n      mstore\n      dup1\n      swap3\n      swap2\n      swap1\n      dup2\n      dup2\n      mstore\n      0x20\n      add\n      dup3\n      dup1\n      sload\n      tag_74\n      swap1\n      tag_58\n      jump\t// in\n    tag_74:\n      dup1\n      iszero\n      tag_75\n      jumpi\n      dup1\n      0x1f\n      lt\n      tag_76\n      jumpi\n      0x0100\n      dup1\n      dup4\n      sload\n      div\n      mul\n      dup4\n      mstore\n      swap2\n      0x20\n      add\n      swap2\n      jump(tag_75)\n    tag_76:\n      dup3\n      add\n      swap2\n      swap1\n      0x00\n      mstore\n      keccak256(0x00, 0x20)\n      swap1\n    tag_77:\n      dup2\n      sload\n      dup2\n      mstore\n      swap1\n      0x01\n      add\n      swap1\n      0x20\n      add\n      dup1\n      dup4\n      gt\n      tag_77\n      jumpi\n      dup3\n      swap1\n      sub\n      0x1f\n      and\n      dup3\n      add\n      swap2\n    tag_75:\n      pop\n      pop\n      pop\n      pop\n      pop\n      swap1\n      pop\n      dup6\n      jump\t// out\n        /* \"Election.sol\":3798:4194  function winnerCandidate() public view owner returns (uint8) {... */\n    tag_27:\n        /* \"Election.sol\":3852:3857  uint8 */\n      0x00\n        /* \"Election.sol\":1594:1612  election_authority */\n      0x00\n      0x00\n      swap1\n      sload\n      swap1\n      0x0100\n      exp\n      swap1\n      div\n      0xffffffffffffffffffffffffffffffffffffffff\n      and\n        /* \"Election.sol\":1580:1612  msg.sender == election_authority */\n      0xffffffffffffffffffffffffffffffffffffffff\n      and\n        /* \"Election.sol\":1580:1590  msg.sender */\n      caller\n        /* \"Election.sol\":1580:1612  msg.sender == election_authority */\n      0xffffffffffffffffffffffffffffffffffffffff\n      and\n      eq\n        /* \"Election.sol\":1572:1638  require(msg.sender == election_authority, \"Error: Access Denied.\") */\n      tag_79\n      jumpi\n      mload(0x40)\n      0x08c379a000000000000000000000000000000000000000000000000000000000\n      dup2\n      mstore\n      0x04\n      add\n      tag_80\n      swap1\n      tag_47\n      jump\t// in\n    tag_80:\n      mload(0x40)\n      dup1\n      swap2\n      sub\n      swap1\n      revert\n    tag_79:\n        /* \"Election.sol\":3869:3887  uint8 largestVotes */\n      0x00\n        /* \"Election.sol\":3890:3900  candidates */\n      0x04\n        /* \"Election.sol\":3890:3903  candidates[0] */\n      0x00\n        /* \"Election.sol\":3901:3902  0 */\n      0x00\n        /* \"Election.sol\":3890:3903  candidates[0] */\n      0xff\n      and\n      dup2\n      mstore\n      0x20\n      add\n      swap1\n      dup2\n      mstore\n      0x20\n      add\n      0x00\n      keccak256\n        /* \"Election.sol\":3890:3913  candidates[0].voteCount */\n      0x03\n      add\n      0x00\n      swap1\n      sload\n      swap1\n      0x0100\n      exp\n      swap1\n      div\n      0xff\n      and\n        /* \"Election.sol\":3869:3913  uint8 largestVotes = candidates[0].voteCount */\n      swap1\n      pop\n        /* \"Election.sol\":3923:3940  uint8 candidateID */\n      0x00\n        /* \"Election.sol\":3954:3961  uint8 i */\n      0x00\n        /* \"Election.sol\":3964:3965  1 */\n      0x01\n        /* \"Election.sol\":3954:3965  uint8 i = 1 */\n      swap1\n      pop\n        /* \"Election.sol\":3950:4158  for(uint8 i = 1;i<numCandidates;i++) {... */\n    tag_82:\n        /* \"Election.sol\":3968:3981  numCandidates */\n      0x06\n      0x00\n      swap1\n      sload\n      swap1\n      0x0100\n      exp\n      swap1\n      div\n      0xff\n      and\n        /* \"Election.sol\":3966:3981  i<numCandidates */\n      0xff\n      and\n        /* \"Election.sol\":3966:3967  i */\n      dup2\n        /* \"Election.sol\":3966:3981  i<numCandidates */\n      0xff\n      and\n      lt\n        /* \"Election.sol\":3950:4158  for(uint8 i = 1;i<numCandidates;i++) {... */\n      iszero\n      tag_83\n      jumpi\n        /* \"Election.sol\":4019:4029  candidates */\n      0x04\n        /* \"Election.sol\":4019:4032  candidates[i] */\n      0x00\n        /* \"Election.sol\":4030:4031  i */\n      dup3\n        /* \"Election.sol\":4019:4032  candidates[i] */\n      0xff\n      and\n      0xff\n      and\n      dup2\n      mstore\n      0x20\n      add\n      swap1\n      dup2\n      mstore\n      0x20\n      add\n      0x00\n      keccak256\n        /* \"Election.sol\":4019:4042  candidates[i].voteCount */\n      0x03\n      add\n      0x00\n      swap1\n      sload\n      swap1\n      0x0100\n      exp\n      swap1\n      div\n      0xff\n      and\n        /* \"Election.sol\":4004:4042  largestVotes < candidates[i].voteCount */\n      0xff\n      and\n        /* \"Election.sol\":4004:4016  largestVotes */\n      dup4\n        /* \"Election.sol\":4004:4042  largestVotes < candidates[i].voteCount */\n      0xff\n      and\n      lt\n        /* \"Election.sol\":4001:4148  if(largestVotes < candidates[i].voteCount) {... */\n      iszero\n      tag_85\n      jumpi\n        /* \"Election.sol\":4077:4087  candidates */\n      0x04\n        /* \"Election.sol\":4077:4090  candidates[i] */\n      0x00\n        /* \"Election.sol\":4088:4089  i */\n      dup3\n        /* \"Election.sol\":4077:4090  candidates[i] */\n      0xff\n      and\n      0xff\n      and\n      dup2\n      mstore\n      0x20\n      add\n      swap1\n      dup2\n      mstore\n      0x20\n      add\n      0x00\n      keccak256\n        /* \"Election.sol\":4077:4100  candidates[i].voteCount */\n      0x03\n      add\n      0x00\n      swap1\n      sload\n      swap1\n      0x0100\n      exp\n      swap1\n      div\n      0xff\n      and\n        /* \"Election.sol\":4062:4100  largestVotes = candidates[i].voteCount */\n      swap3\n      pop\n        /* \"Election.sol\":4132:4133  i */\n      dup1\n        /* \"Election.sol\":4118:4133  candidateID = i */\n      swap2\n      pop\n        /* \"Election.sol\":4001:4148  if(largestVotes < candidates[i].voteCount) {... */\n    tag_85:\n        /* \"Election.sol\":3982:3985  i++ */\n      dup1\n      dup1\n      0x01\n      add\n      swap2\n      pop\n      pop\n        /* \"Election.sol\":3950:4158  for(uint8 i = 1;i<numCandidates;i++) {... */\n      jump(tag_82)\n    tag_83:\n      pop\n        /* \"Election.sol\":4175:4186  candidateID */\n      dup1\n        /* \"Election.sol\":4167:4187  return (candidateID) */\n      swap3\n      pop\n      pop\n      pop\n        /* \"Election.sol\":3798:4194  function winnerCandidate() public view owner returns (uint8) {... */\n      swap1\n      jump\t// out\n        /* \"Election.sol\":2695:3073  function vote(uint8 candidateID,string memory e) public {... */\n    tag_32:\n        /* \"Election.sol\":2818:2824  voters */\n      0x05\n        /* \"Election.sol\":2825:2826  e */\n      dup2\n        /* \"Election.sol\":2818:2827  voters[e] */\n      mload(0x40)\n      tag_87\n      swap2\n      swap1\n      tag_88\n      jump\t// in\n    tag_87:\n      swap1\n      dup2\n      mstore\n      0x20\n      add\n      mload(0x40)\n      dup1\n      swap2\n      sub\n      swap1\n      keccak256\n        /* \"Election.sol\":2818:2833  voters[e].voted */\n      0x00\n      add\n      0x01\n      swap1\n      sload\n      swap1\n      0x0100\n      exp\n      swap1\n      div\n      0xff\n      and\n        /* \"Election.sol\":2817:2833  !voters[e].voted */\n      iszero\n        /* \"Election.sol\":2809:2866  require(!voters[e].voted, \"Error:You cannot double vote\") */\n      tag_89\n      jumpi\n      mload(0x40)\n      0x08c379a000000000000000000000000000000000000000000000000000000000\n      dup2\n      mstore\n      0x04\n      add\n      tag_90\n      swap1\n      tag_91\n      jump\t// in\n    tag_90:\n      mload(0x40)\n      dup1\n      swap2\n      sub\n      swap1\n      revert\n    tag_89:\n        /* \"Election.sol\":2897:2921  Voter (candidateID,true) */\n      mload(0x40)\n      dup1\n      0x40\n      add\n      0x40\n      mstore\n      dup1\n        /* \"Election.sol\":2904:2915  candidateID */\n      dup4\n        /* \"Election.sol\":2897:2921  Voter (candidateID,true) */\n      0xff\n      and\n      dup2\n      mstore\n      0x20\n      add\n        /* \"Election.sol\":2916:2920  true */\n      0x01\n        /* \"Election.sol\":2897:2921  Voter (candidateID,true) */\n      iszero\n      iszero\n      dup2\n      mstore\n      pop\n        /* \"Election.sol\":2885:2891  voters */\n      0x05\n        /* \"Election.sol\":2892:2893  e */\n      dup3\n        /* \"Election.sol\":2885:2894  voters[e] */\n      mload(0x40)\n      tag_92\n      swap2\n      swap1\n      tag_88\n      jump\t// in\n    tag_92:\n      swap1\n      dup2\n      mstore\n      0x20\n      add\n      mload(0x40)\n      dup1\n      swap2\n      sub\n      swap1\n      keccak256\n        /* \"Election.sol\":2885:2921  voters[e] = Voter (candidateID,true) */\n      0x00\n      dup3\n      add\n      mload\n      dup2\n      0x00\n      add\n      exp(0x0100, 0x00)\n      dup2\n      sload\n      dup2\n      0xff\n      mul\n      not\n      and\n      swap1\n      dup4\n      0xff\n      and\n      mul\n      or\n      swap1\n      sstore\n      pop\n      0x20\n      dup3\n      add\n      mload\n      dup2\n      0x00\n      add\n      exp(0x0100, 0x01)\n      dup2\n      sload\n      dup2\n      0xff\n      mul\n      not\n      and\n      swap1\n      dup4\n      iszero\n      iszero\n      mul\n      or\n      swap1\n      sstore\n      pop\n      swap1\n      pop\n      pop\n        /* \"Election.sol\":2963:2972  numVoters */\n      0x06\n      0x01\n        /* \"Election.sol\":2963:2974  numVoters++ */\n      dup2\n      dup2\n      swap1\n      sload\n      swap1\n      0x0100\n      exp\n      swap1\n      div\n      0xff\n      and\n      dup1\n      swap3\n      swap2\n      swap1\n      tag_93\n      swap1\n      tag_50\n      jump\t// in\n    tag_93:\n      swap2\n      swap1\n      0x0100\n      exp\n      dup2\n      sload\n      dup2\n      0xff\n      mul\n      not\n      and\n      swap1\n      dup4\n      0xff\n      and\n      mul\n      or\n      swap1\n      sstore\n      pop\n      pop\n        /* \"Election.sol\":2984:2994  candidates */\n      0x04\n        /* \"Election.sol\":2984:3007  candidates[candidateID] */\n      0x00\n        /* \"Election.sol\":2995:3006  candidateID */\n      dup4\n        /* \"Election.sol\":2984:3007  candidates[candidateID] */\n      0xff\n      and\n      0xff\n      and\n      dup2\n      mstore\n      0x20\n      add\n      swap1\n      dup2\n      mstore\n      0x20\n      add\n      0x00\n      keccak256\n        /* \"Election.sol\":2984:3017  candidates[candidateID].voteCount */\n      0x03\n      add\n      0x00\n        /* \"Election.sol\":2984:3019  candidates[candidateID].voteCount++ */\n      dup2\n      dup2\n      swap1\n      sload\n      swap1\n      0x0100\n      exp\n      swap1\n      div\n      0xff\n      and\n      dup1\n      swap3\n      swap2\n      swap1\n      tag_94\n      swap1\n      tag_50\n      jump\t// in\n    tag_94:\n      swap2\n      swap1\n      0x0100\n      exp\n      dup2\n      sload\n      dup2\n      0xff\n      mul\n      not\n      and\n      swap1\n      dup4\n      0xff\n      and\n      mul\n      or\n      swap1\n      sstore\n      pop\n      pop\n        /* \"Election.sol\":2695:3073  function vote(uint8 candidateID,string memory e) public {... */\n      pop\n      pop\n      jump\t// out\n        /* \"Election.sol\":3398:3736  function getCandidate(uint8 candidateID) public view returns (string memory, string memory, string memory, uint8,string memory) {... */\n    tag_35:\n        /* \"Election.sol\":3460:3473  string memory */\n      0x60\n        /* \"Election.sol\":3475:3488  string memory */\n      dup1\n        /* \"Election.sol\":3490:3503  string memory */\n      0x60\n        /* \"Election.sol\":3505:3510  uint8 */\n      0x00\n        /* \"Election.sol\":3511:3524  string memory */\n      0x60\n        /* \"Election.sol\":3544:3554  candidates */\n      0x04\n        /* \"Election.sol\":3544:3567  candidates[candidateID] */\n      0x00\n        /* \"Election.sol\":3555:3566  candidateID */\n      dup8\n        /* \"Election.sol\":3544:3567  candidates[candidateID] */\n      0xff\n      and\n      0xff\n      and\n      dup2\n      mstore\n      0x20\n      add\n      swap1\n      dup2\n      mstore\n      0x20\n      add\n      0x00\n      keccak256\n        /* \"Election.sol\":3544:3582  candidates[candidateID].candidate_name */\n      0x00\n      add\n        /* \"Election.sol\":3584:3594  candidates */\n      0x04\n        /* \"Election.sol\":3584:3607  candidates[candidateID] */\n      0x00\n        /* \"Election.sol\":3595:3606  candidateID */\n      dup9\n        /* \"Election.sol\":3584:3607  candidates[candidateID] */\n      0xff\n      and\n      0xff\n      and\n      dup2\n      mstore\n      0x20\n      add\n      swap1\n      dup2\n      mstore\n      0x20\n      add\n      0x00\n      keccak256\n        /* \"Election.sol\":3584:3629  candidates[candidateID].candidate_description */\n      0x01\n      add\n        /* \"Election.sol\":3631:3641  candidates */\n      0x04\n        /* \"Election.sol\":3631:3654  candidates[candidateID] */\n      0x00\n        /* \"Election.sol\":3642:3653  candidateID */\n      dup10\n        /* \"Election.sol\":3631:3654  candidates[candidateID] */\n      0xff\n      and\n      0xff\n      and\n      dup2\n      mstore\n      0x20\n      add\n      swap1\n      dup2\n      mstore\n      0x20\n      add\n      0x00\n      keccak256\n        /* \"Election.sol\":3631:3662  candidates[candidateID].imgHash */\n      0x02\n      add\n        /* \"Election.sol\":3664:3674  candidates */\n      0x04\n        /* \"Election.sol\":3664:3687  candidates[candidateID] */\n      0x00\n        /* \"Election.sol\":3675:3686  candidateID */\n      dup11\n        /* \"Election.sol\":3664:3687  candidates[candidateID] */\n      0xff\n      and\n      0xff\n      and\n      dup2\n      mstore\n      0x20\n      add\n      swap1\n      dup2\n      mstore\n      0x20\n      add\n      0x00\n      keccak256\n        /* \"Election.sol\":3664:3697  candidates[candidateID].voteCount */\n      0x03\n      add\n      0x00\n      swap1\n      sload\n      swap1\n      0x0100\n      exp\n      swap1\n      div\n      0xff\n      and\n        /* \"Election.sol\":3699:3709  candidates */\n      0x04\n        /* \"Election.sol\":3699:3722  candidates[candidateID] */\n      0x00\n        /* \"Election.sol\":3710:3721  candidateID */\n      dup12\n        /* \"Election.sol\":3699:3722  candidates[candidateID] */\n      0xff\n      and\n      0xff\n      and\n      dup2\n      mstore\n      0x20\n      add\n      swap1\n      dup2\n      mstore\n      0x20\n      add\n      0x00\n      keccak256\n        /* \"Election.sol\":3699:3728  candidates[candidateID].email */\n      0x04\n      add\n        /* \"Election.sol\":3536:3729  return (candidates[candidateID].candidate_name, candidates[candidateID].candidate_description, candidates[candidateID].imgHash, candidates[candidateID].voteCount, candidates[candidateID].email) */\n      dup5\n      dup1\n      sload\n      tag_96\n      swap1\n      tag_58\n      jump\t// in\n    tag_96:\n      dup1\n      0x1f\n      add\n      0x20\n      dup1\n      swap2\n      div\n      mul\n      0x20\n      add\n      mload(0x40)\n      swap1\n      dup2\n      add\n      0x40\n      mstore\n      dup1\n      swap3\n      swap2\n      swap1\n      dup2\n      dup2\n      mstore\n      0x20\n      add\n      dup3\n      dup1\n      sload\n      tag_97\n      swap1\n      tag_58\n      jump\t// in\n    tag_97:\n      dup1\n      iszero\n      tag_98\n      jumpi\n      dup1\n      0x1f\n      lt\n      tag_99\n      jumpi\n      0x0100\n      dup1\n      dup4\n      sload\n      div\n      mul\n      dup4\n      mstore\n      swap2\n      0x20\n      add\n      swap2\n      jump(tag_98)\n    tag_99:\n      dup3\n      add\n      swap2\n      swap1\n      0x00\n      mstore\n      keccak256(0x00, 0x20)\n      swap1\n    tag_100:\n      dup2\n      sload\n      dup2\n      mstore\n      swap1\n      0x01\n      add\n      swap1\n      0x20\n      add\n      dup1\n      dup4\n      gt\n      tag_100\n      jumpi\n      dup3\n      swap1\n      sub\n      0x1f\n      and\n      dup3\n      add\n      swap2\n    tag_98:\n      pop\n      pop\n      pop\n      pop\n      pop\n      swap5\n      pop\n      dup4\n      dup1\n      sload\n      tag_101\n      swap1\n      tag_58\n      jump\t// in\n    tag_101:\n      dup1\n      0x1f\n      add\n      0x20\n      dup1\n      swap2\n      div\n      mul\n      0x20\n      add\n      mload(0x40)\n      swap1\n      dup2\n      add\n      0x40\n      mstore\n      dup1\n      swap3\n      swap2\n      swap1\n      dup2\n      dup2\n      mstore\n      0x20\n      add\n      dup3\n      dup1\n      sload\n      tag_102\n      swap1\n      tag_58\n      jump\t// in\n    tag_102:\n      dup1\n      iszero\n      tag_103\n      jumpi\n      dup1\n      0x1f\n      lt\n      tag_104\n      jumpi\n      0x0100\n      dup1\n      dup4\n      sload\n      div\n      mul\n      dup4\n      mstore\n      swap2\n      0x20\n      add\n      swap2\n      jump(tag_103)\n    tag_104:\n      dup3\n      add\n      swap2\n      swap1\n      0x00\n      mstore\n      keccak256(0x00, 0x20)\n      swap1\n    tag_105:\n      dup2\n      sload\n      dup2\n      mstore\n      swap1\n      0x01\n      add\n      swap1\n      0x20\n      add\n      dup1\n      dup4\n      gt\n      tag_105\n      jumpi\n      dup3\n      swap1\n      sub\n      0x1f\n      and\n      dup3\n      add\n      swap2\n    tag_103:\n      pop\n      pop\n      pop\n      pop\n      pop\n      swap4\n      pop\n      dup3\n      dup1\n      sload\n      tag_106\n      swap1\n      tag_58\n      jump\t// in\n    tag_106:\n      dup1\n      0x1f\n      add\n      0x20\n      dup1\n      swap2\n      div\n      mul\n      0x20\n      add\n      mload(0x40)\n      swap1\n      dup2\n      add\n      0x40\n      mstore\n      dup1\n      swap3\n      swap2\n      swap1\n      dup2\n      dup2\n      mstore\n      0x20\n      add\n      dup3\n      dup1\n      sload\n      tag_107\n      swap1\n      tag_58\n      jump\t// in\n    tag_107:\n      dup1\n      iszero\n      tag_108\n      jumpi\n      dup1\n      0x1f\n      lt\n      tag_109\n      jumpi\n      0x0100\n      dup1\n      dup4\n      sload\n      div\n      mul\n      dup4\n      mstore\n      swap2\n      0x20\n      add\n      swap2\n      jump(tag_108)\n    tag_109:\n      dup3\n      add\n      swap2\n      swap1\n      0x00\n      mstore\n      keccak256(0x00, 0x20)\n      swap1\n    tag_110:\n      dup2\n      sload\n      dup2\n      mstore\n      swap1\n      0x01\n      add\n      swap1\n      0x20\n      add\n      dup1\n      dup4\n      gt\n      tag_110\n      jumpi\n      dup3\n      swap1\n      sub\n      0x1f\n      and\n      dup3\n      add\n      swap2\n    tag_108:\n      pop\n      pop\n      pop\n      pop\n      pop\n      swap3\n      pop\n      dup1\n      dup1\n      sload\n      tag_111\n      swap1\n      tag_58\n      jump\t// in\n    tag_111:\n      dup1\n      0x1f\n      add\n      0x20\n      dup1\n      swap2\n      div\n      mul\n      0x20\n      add\n      mload(0x40)\n      swap1\n      dup2\n      add\n      0x40\n      mstore\n      dup1\n      swap3\n      swap2\n      swap1\n      dup2\n      dup2\n      mstore\n      0x20\n      add\n      dup3\n      dup1\n      sload\n      tag_112\n      swap1\n      tag_58\n      jump\t// in\n    tag_112:\n      dup1\n      iszero\n      tag_113\n      jumpi\n      dup1\n      0x1f\n      lt\n      tag_114\n      jumpi\n      0x0100\n      dup1\n      dup4\n      sload\n      div\n      mul\n      dup4\n      mstore\n      swap2\n      0x20\n      add\n      swap2\n      jump(tag_113)\n    tag_114:\n      dup3\n      add\n      swap2\n      swap1\n      0x00\n      mstore\n      keccak256(0x00, 0x20)\n      swap1\n    tag_115:\n      dup2\n      sload\n      dup2\n      mstore\n      swap1\n      0x01\n      add\n      swap1\n      0x20\n      add\n      dup1\n      dup4\n      gt\n      tag_115\n      jumpi\n      dup3\n      swap1\n      sub\n      0x1f\n      and\n      dup3\n      add\n      swap2\n    tag_113:\n      pop\n      pop\n      pop\n      pop\n      pop\n      swap1\n      pop\n      swap5\n      pop\n      swap5\n      pop\n      swap5\n      pop\n      swap5\n      pop\n      swap5\n      pop\n        /* \"Election.sol\":3398:3736  function getCandidate(uint8 candidateID) public view returns (string memory, string memory, string memory, uint8,string memory) {... */\n      swap2\n      swap4\n      swap6\n      swap1\n      swap3\n      swap5\n      pop\n      jump\t// out\n        /* \"Election.sol\":3122:3216  function getNumOfCandidates() public view returns(uint8) {... */\n    tag_38:\n        /* \"Election.sol\":3172:3177  uint8 */\n      0x00\n        /* \"Election.sol\":3196:3209  numCandidates */\n      0x06\n      0x00\n      swap1\n      sload\n      swap1\n      0x0100\n      exp\n      swap1\n      div\n      0xff\n      and\n        /* \"Election.sol\":3189:3209  return numCandidates */\n      swap1\n      pop\n        /* \"Election.sol\":3122:3216  function getNumOfCandidates() public view returns(uint8) {... */\n      swap1\n      jump\t// out\n        /* \"Election.sol\":4204:4348  function getElectionDetails() public view returns(string memory, string memory) {... */\n    tag_41:\n        /* \"Election.sol\":4254:4267  string memory */\n      0x60\n        /* \"Election.sol\":4269:4282  string memory */\n      dup1\n        /* \"Election.sol\":4302:4315  election_name */\n      0x01\n        /* \"Election.sol\":4316:4336  election_description */\n      0x02\n        /* \"Election.sol\":4294:4337  return (election_name,election_description) */\n      dup2\n      dup1\n      sload\n      tag_118\n      swap1\n      tag_58\n      jump\t// in\n    tag_118:\n      dup1\n      0x1f\n      add\n      0x20\n      dup1\n      swap2\n      div\n      mul\n      0x20\n      add\n      mload(0x40)\n      swap1\n      dup2\n      add\n      0x40\n      mstore\n      dup1\n      swap3\n      swap2\n      swap1\n      dup2\n      dup2\n      mstore\n      0x20\n      add\n      dup3\n      dup1\n      sload\n      tag_119\n      swap1\n      tag_58\n      jump\t// in\n    tag_119:\n      dup1\n      iszero\n      tag_120\n      jumpi\n      dup1\n      0x1f\n      lt\n      tag_121\n      jumpi\n      0x0100\n      dup1\n      dup4\n      sload\n      div\n      mul\n      dup4\n      mstore\n      swap2\n      0x20\n      add\n      swap2\n      jump(tag_120)\n    tag_121:\n      dup3\n      add\n      swap2\n      swap1\n      0x00\n      mstore\n      keccak256(0x00, 0x20)\n      swap1\n    tag_122:\n      dup2\n      sload\n      dup2\n      mstore\n      swap1\n      0x01\n      add\n      swap1\n      0x20\n      add\n      dup1\n      dup4\n      gt\n      tag_122\n      jumpi\n      dup3\n      swap1\n      sub\n      0x1f\n      and\n      dup3\n      add\n      swap2\n    tag_120:\n      pop\n      pop\n      pop\n      pop\n      pop\n      swap2\n      pop\n      dup1\n      dup1\n      sload\n      tag_123\n      swap1\n      tag_58\n      jump\t// in\n    tag_123:\n      dup1\n      0x1f\n      add\n      0x20\n      dup1\n      swap2\n      div\n      mul\n      0x20\n      add\n      mload(0x40)\n      swap1\n      dup2\n      add\n      0x40\n      mstore\n      dup1\n      swap3\n      swap2\n      swap1\n      dup2\n      dup2\n      mstore\n      0x20\n      add\n      dup3\n      dup1\n      sload\n      tag_124\n      swap1\n      tag_58\n      jump\t// in\n    tag_124:\n      dup1\n      iszero\n      tag_125\n      jumpi\n      dup1\n      0x1f\n      lt\n      tag_126\n      jumpi\n      0x0100\n      dup1\n      dup4\n      sload\n      div\n      mul\n      dup4\n      mstore\n      swap2\n      0x20\n      add\n      swap2\n      jump(tag_125)\n    tag_126:\n      dup3\n      add\n      swap2\n      swap1\n      0x00\n      mstore\n      keccak256(0x00, 0x20)\n      swap1\n    tag_127:\n      dup2\n      sload\n      dup2\n      mstore\n      swap1\n      0x01\n      add\n      swap1\n      0x20\n      add\n      dup1\n      dup4\n      gt\n      tag_127\n      jumpi\n      dup3\n      swap1\n      sub\n      0x1f\n      and\n      dup3\n      add\n      swap2\n    tag_125:\n      pop\n      pop\n      pop\n      pop\n      pop\n      swap1\n      pop\n      swap2\n      pop\n      swap2\n      pop\n        /* \"Election.sol\":4204:4348  function getElectionDetails() public view returns(string memory, string memory) {... */\n      swap1\n      swap2\n      jump\t// out\n        /* \"#utility.yul\":7:82   */\n    tag_128:\n        /* \"#utility.yul\":40:46   */\n      0x00\n        /* \"#utility.yul\":73:75   */\n      0x40\n        /* \"#utility.yul\":67:76   */\n      mload\n        /* \"#utility.yul\":57:76   */\n      swap1\n      pop\n        /* \"#utility.yul\":7:82   */\n      swap1\n      jump\t// out\n        /* \"#utility.yul\":88:205   */\n    tag_129:\n        /* \"#utility.yul\":197:198   */\n      0x00\n        /* \"#utility.yul\":194:195   */\n      0x00\n        /* \"#utility.yul\":187:199   */\n      revert\n        /* \"#utility.yul\":211:328   */\n    tag_130:\n        /* \"#utility.yul\":320:321   */\n      0x00\n        /* \"#utility.yul\":317:318   */\n      0x00\n        /* \"#utility.yul\":310:322   */\n      revert\n        /* \"#utility.yul\":334:451   */\n    tag_131:\n        /* \"#utility.yul\":443:444   */\n      0x00\n        /* \"#utility.yul\":440:441   */\n      0x00\n        /* \"#utility.yul\":433:445   */\n      revert\n        /* \"#utility.yul\":457:574   */\n    tag_132:\n        /* \"#utility.yul\":566:567   */\n      0x00\n        /* \"#utility.yul\":563:564   */\n      0x00\n        /* \"#utility.yul\":556:568   */\n      revert\n        /* \"#utility.yul\":580:682   */\n    tag_133:\n        /* \"#utility.yul\":621:627   */\n      0x00\n        /* \"#utility.yul\":672:674   */\n      0x1f\n        /* \"#utility.yul\":668:675   */\n      not\n        /* \"#utility.yul\":663:665   */\n      0x1f\n        /* \"#utility.yul\":656:661   */\n      dup4\n        /* \"#utility.yul\":652:666   */\n      add\n        /* \"#utility.yul\":648:676   */\n      and\n        /* \"#utility.yul\":638:676   */\n      swap1\n      pop\n        /* \"#utility.yul\":580:682   */\n      swap2\n      swap1\n      pop\n      jump\t// out\n        /* \"#utility.yul\":688:868   */\n    tag_134:\n        /* \"#utility.yul\":736:813   */\n      0x4e487b7100000000000000000000000000000000000000000000000000000000\n        /* \"#utility.yul\":733:734   */\n      0x00\n        /* \"#utility.yul\":726:814   */\n      mstore\n        /* \"#utility.yul\":833:837   */\n      0x41\n        /* \"#utility.yul\":830:831   */\n      0x04\n        /* \"#utility.yul\":823:838   */\n      mstore\n        /* \"#utility.yul\":857:861   */\n      0x24\n        /* \"#utility.yul\":854:855   */\n      0x00\n        /* \"#utility.yul\":847:862   */\n      revert\n        /* \"#utility.yul\":874:1155   */\n    tag_135:\n        /* \"#utility.yul\":957:984   */\n      tag_182\n        /* \"#utility.yul\":979:983   */\n      dup3\n        /* \"#utility.yul\":957:984   */\n      tag_133\n      jump\t// in\n    tag_182:\n        /* \"#utility.yul\":949:955   */\n      dup2\n        /* \"#utility.yul\":945:985   */\n      add\n        /* \"#utility.yul\":1087:1093   */\n      dup2\n        /* \"#utility.yul\":1075:1085   */\n      dup2\n        /* \"#utility.yul\":1072:1094   */\n      lt\n        /* \"#utility.yul\":1051:1069   */\n      0xffffffffffffffff\n        /* \"#utility.yul\":1039:1049   */\n      dup3\n        /* \"#utility.yul\":1036:1070   */\n      gt\n        /* \"#utility.yul\":1033:1095   */\n      or\n        /* \"#utility.yul\":1030:1118   */\n      iszero\n      tag_183\n      jumpi\n        /* \"#utility.yul\":1098:1116   */\n      tag_184\n      tag_134\n      jump\t// in\n    tag_184:\n        /* \"#utility.yul\":1030:1118   */\n    tag_183:\n        /* \"#utility.yul\":1138:1148   */\n      dup1\n        /* \"#utility.yul\":1134:1136   */\n      0x40\n        /* \"#utility.yul\":1127:1149   */\n      mstore\n        /* \"#utility.yul\":917:1155   */\n      pop\n        /* \"#utility.yul\":874:1155   */\n      pop\n      pop\n      jump\t// out\n        /* \"#utility.yul\":1161:1290   */\n    tag_136:\n        /* \"#utility.yul\":1195:1201   */\n      0x00\n        /* \"#utility.yul\":1222:1242   */\n      tag_186\n      tag_128\n      jump\t// in\n    tag_186:\n        /* \"#utility.yul\":1212:1242   */\n      swap1\n      pop\n        /* \"#utility.yul\":1251:1284   */\n      tag_187\n        /* \"#utility.yul\":1279:1283   */\n      dup3\n        /* \"#utility.yul\":1271:1277   */\n      dup3\n        /* \"#utility.yul\":1251:1284   */\n      tag_135\n      jump\t// in\n    tag_187:\n        /* \"#utility.yul\":1161:1290   */\n      swap2\n      swap1\n      pop\n      jump\t// out\n        /* \"#utility.yul\":1296:1604   */\n    tag_137:\n        /* \"#utility.yul\":1358:1362   */\n      0x00\n        /* \"#utility.yul\":1448:1466   */\n      0xffffffffffffffff\n        /* \"#utility.yul\":1440:1446   */\n      dup3\n        /* \"#utility.yul\":1437:1467   */\n      gt\n        /* \"#utility.yul\":1434:1490   */\n      iszero\n      tag_189\n      jumpi\n        /* \"#utility.yul\":1470:1488   */\n      tag_190\n      tag_134\n      jump\t// in\n    tag_190:\n        /* \"#utility.yul\":1434:1490   */\n    tag_189:\n        /* \"#utility.yul\":1508:1537   */\n      tag_191\n        /* \"#utility.yul\":1530:1536   */\n      dup3\n        /* \"#utility.yul\":1508:1537   */\n      tag_133\n      jump\t// in\n    tag_191:\n        /* \"#utility.yul\":1500:1537   */\n      swap1\n      pop\n        /* \"#utility.yul\":1592:1596   */\n      0x20\n        /* \"#utility.yul\":1586:1590   */\n      dup2\n        /* \"#utility.yul\":1582:1597   */\n      add\n        /* \"#utility.yul\":1574:1597   */\n      swap1\n      pop\n        /* \"#utility.yul\":1296:1604   */\n      swap2\n      swap1\n      pop\n      jump\t// out\n        /* \"#utility.yul\":1610:1758   */\n    tag_138:\n        /* \"#utility.yul\":1708:1714   */\n      dup3\n        /* \"#utility.yul\":1703:1706   */\n      dup2\n        /* \"#utility.yul\":1698:1701   */\n      dup4\n        /* \"#utility.yul\":1685:1715   */\n      calldatacopy\n        /* \"#utility.yul\":1749:1750   */\n      0x00\n        /* \"#utility.yul\":1740:1746   */\n      dup4\n        /* \"#utility.yul\":1735:1738   */\n      dup4\n        /* \"#utility.yul\":1731:1747   */\n      add\n        /* \"#utility.yul\":1724:1751   */\n      mstore\n        /* \"#utility.yul\":1610:1758   */\n      pop\n      pop\n      pop\n      jump\t// out\n        /* \"#utility.yul\":1764:2189   */\n    tag_139:\n        /* \"#utility.yul\":1842:1847   */\n      0x00\n        /* \"#utility.yul\":1867:1933   */\n      tag_194\n        /* \"#utility.yul\":1883:1932   */\n      tag_195\n        /* \"#utility.yul\":1925:1931   */\n      dup5\n        /* \"#utility.yul\":1883:1932   */\n      tag_137\n      jump\t// in\n    tag_195:\n        /* \"#utility.yul\":1867:1933   */\n      tag_136\n      jump\t// in\n    tag_194:\n        /* \"#utility.yul\":1858:1933   */\n      swap1\n      pop\n        /* \"#utility.yul\":1956:1962   */\n      dup3\n        /* \"#utility.yul\":1949:1954   */\n      dup2\n        /* \"#utility.yul\":1942:1963   */\n      mstore\n        /* \"#utility.yul\":1994:1998   */\n      0x20\n        /* \"#utility.yul\":1987:1992   */\n      dup2\n        /* \"#utility.yul\":1983:1999   */\n      add\n        /* \"#utility.yul\":2032:2035   */\n      dup5\n        /* \"#utility.yul\":2023:2029   */\n      dup5\n        /* \"#utility.yul\":2018:2021   */\n      dup5\n        /* \"#utility.yul\":2014:2030   */\n      add\n        /* \"#utility.yul\":2011:2036   */\n      gt\n        /* \"#utility.yul\":2008:2120   */\n      iszero\n      tag_196\n      jumpi\n        /* \"#utility.yul\":2039:2118   */\n      tag_197\n      tag_132\n      jump\t// in\n    tag_197:\n        /* \"#utility.yul\":2008:2120   */\n    tag_196:\n        /* \"#utility.yul\":2129:2183   */\n      tag_198\n        /* \"#utility.yul\":2176:2182   */\n      dup5\n        /* \"#utility.yul\":2171:2174   */\n      dup3\n        /* \"#utility.yul\":2166:2169   */\n      dup6\n        /* \"#utility.yul\":2129:2183   */\n      tag_138\n      jump\t// in\n    tag_198:\n        /* \"#utility.yul\":1848:2189   */\n      pop\n        /* \"#utility.yul\":1764:2189   */\n      swap4\n      swap3\n      pop\n      pop\n      pop\n      jump\t// out\n        /* \"#utility.yul\":2209:2549   */\n    tag_140:\n        /* \"#utility.yul\":2265:2270   */\n      0x00\n        /* \"#utility.yul\":2314:2317   */\n      dup3\n        /* \"#utility.yul\":2307:2311   */\n      0x1f\n        /* \"#utility.yul\":2299:2305   */\n      dup4\n        /* \"#utility.yul\":2295:2312   */\n      add\n        /* \"#utility.yul\":2291:2318   */\n      slt\n        /* \"#utility.yul\":2281:2403   */\n      tag_200\n      jumpi\n        /* \"#utility.yul\":2322:2401   */\n      tag_201\n      tag_131\n      jump\t// in\n    tag_201:\n        /* \"#utility.yul\":2281:2403   */\n    tag_200:\n        /* \"#utility.yul\":2439:2445   */\n      dup2\n        /* \"#utility.yul\":2426:2446   */\n      calldataload\n        /* \"#utility.yul\":2464:2543   */\n      tag_202\n        /* \"#utility.yul\":2539:2542   */\n      dup5\n        /* \"#utility.yul\":2531:2537   */\n      dup3\n        /* \"#utility.yul\":2524:2528   */\n      0x20\n        /* \"#utility.yul\":2516:2522   */\n      dup7\n        /* \"#utility.yul\":2512:2529   */\n      add\n        /* \"#utility.yul\":2464:2543   */\n      tag_139\n      jump\t// in\n    tag_202:\n        /* \"#utility.yul\":2455:2543   */\n      swap2\n      pop\n        /* \"#utility.yul\":2271:2549   */\n      pop\n        /* \"#utility.yul\":2209:2549   */\n      swap3\n      swap2\n      pop\n      pop\n      jump\t// out\n        /* \"#utility.yul\":2555:4040   */\n    tag_14:\n        /* \"#utility.yul\":2681:2687   */\n      0x00\n        /* \"#utility.yul\":2689:2695   */\n      0x00\n        /* \"#utility.yul\":2697:2703   */\n      0x00\n        /* \"#utility.yul\":2705:2711   */\n      0x00\n        /* \"#utility.yul\":2754:2757   */\n      0x80\n        /* \"#utility.yul\":2742:2751   */\n      dup6\n        /* \"#utility.yul\":2733:2740   */\n      dup8\n        /* \"#utility.yul\":2729:2752   */\n      sub\n        /* \"#utility.yul\":2725:2758   */\n      slt\n        /* \"#utility.yul\":2722:2842   */\n      iszero\n      tag_204\n      jumpi\n        /* \"#utility.yul\":2761:2840   */\n      tag_205\n      tag_129\n      jump\t// in\n    tag_205:\n        /* \"#utility.yul\":2722:2842   */\n    tag_204:\n        /* \"#utility.yul\":2909:2910   */\n      0x00\n        /* \"#utility.yul\":2898:2907   */\n      dup6\n        /* \"#utility.yul\":2894:2911   */\n      add\n        /* \"#utility.yul\":2881:2912   */\n      calldataload\n        /* \"#utility.yul\":2939:2957   */\n      0xffffffffffffffff\n        /* \"#utility.yul\":2931:2937   */\n      dup2\n        /* \"#utility.yul\":2928:2958   */\n      gt\n        /* \"#utility.yul\":2925:3042   */\n      iszero\n      tag_206\n      jumpi\n        /* \"#utility.yul\":2961:3040   */\n      tag_207\n      tag_130\n      jump\t// in\n    tag_207:\n        /* \"#utility.yul\":2925:3042   */\n    tag_206:\n        /* \"#utility.yul\":3066:3129   */\n      tag_208\n        /* \"#utility.yul\":3121:3128   */\n      dup8\n        /* \"#utility.yul\":3112:3118   */\n      dup3\n        /* \"#utility.yul\":3101:3110   */\n      dup9\n        /* \"#utility.yul\":3097:3119   */\n      add\n        /* \"#utility.yul\":3066:3129   */\n      tag_140\n      jump\t// in\n    tag_208:\n        /* \"#utility.yul\":3056:3129   */\n      swap5\n      pop\n        /* \"#utility.yul\":2852:3139   */\n      pop\n        /* \"#utility.yul\":3206:3208   */\n      0x20\n        /* \"#utility.yul\":3195:3204   */\n      dup6\n        /* \"#utility.yul\":3191:3209   */\n      add\n        /* \"#utility.yul\":3178:3210   */\n      calldataload\n        /* \"#utility.yul\":3237:3255   */\n      0xffffffffffffffff\n        /* \"#utility.yul\":3229:3235   */\n      dup2\n        /* \"#utility.yul\":3226:3256   */\n      gt\n        /* \"#utility.yul\":3223:3340   */\n      iszero\n      tag_209\n      jumpi\n        /* \"#utility.yul\":3259:3338   */\n      tag_210\n      tag_130\n      jump\t// in\n    tag_210:\n        /* \"#utility.yul\":3223:3340   */\n    tag_209:\n        /* \"#utility.yul\":3364:3427   */\n      tag_211\n        /* \"#utility.yul\":3419:3426   */\n      dup8\n        /* \"#utility.yul\":3410:3416   */\n      dup3\n        /* \"#utility.yul\":3399:3408   */\n      dup9\n        /* \"#utility.yul\":3395:3417   */\n      add\n        /* \"#utility.yul\":3364:3427   */\n      tag_140\n      jump\t// in\n    tag_211:\n        /* \"#utility.yul\":3354:3427   */\n      swap4\n      pop\n        /* \"#utility.yul\":3149:3437   */\n      pop\n        /* \"#utility.yul\":3504:3506   */\n      0x40\n        /* \"#utility.yul\":3493:3502   */\n      dup6\n        /* \"#utility.yul\":3489:3507   */\n      add\n        /* \"#utility.yul\":3476:3508   */\n      calldataload\n        /* \"#utility.yul\":3535:3553   */\n      0xffffffffffffffff\n        /* \"#utility.yul\":3527:3533   */\n      dup2\n        /* \"#utility.yul\":3524:3554   */\n      gt\n        /* \"#utility.yul\":3521:3638   */\n      iszero\n      tag_212\n      jumpi\n        /* \"#utility.yul\":3557:3636   */\n      tag_213\n      tag_130\n      jump\t// in\n    tag_213:\n        /* \"#utility.yul\":3521:3638   */\n    tag_212:\n        /* \"#utility.yul\":3662:3725   */\n      tag_214\n        /* \"#utility.yul\":3717:3724   */\n      dup8\n        /* \"#utility.yul\":3708:3714   */\n      dup3\n        /* \"#utility.yul\":3697:3706   */\n      dup9\n        /* \"#utility.yul\":3693:3715   */\n      add\n        /* \"#utility.yul\":3662:3725   */\n      tag_140\n      jump\t// in\n    tag_214:\n        /* \"#utility.yul\":3652:3725   */\n      swap3\n      pop\n        /* \"#utility.yul\":3447:3735   */\n      pop\n        /* \"#utility.yul\":3802:3804   */\n      0x60\n        /* \"#utility.yul\":3791:3800   */\n      dup6\n        /* \"#utility.yul\":3787:3805   */\n      add\n        /* \"#utility.yul\":3774:3806   */\n      calldataload\n        /* \"#utility.yul\":3833:3851   */\n      0xffffffffffffffff\n        /* \"#utility.yul\":3825:3831   */\n      dup2\n        /* \"#utility.yul\":3822:3852   */\n      gt\n        /* \"#utility.yul\":3819:3936   */\n      iszero\n      tag_215\n      jumpi\n        /* \"#utility.yul\":3855:3934   */\n      tag_216\n      tag_130\n      jump\t// in\n    tag_216:\n        /* \"#utility.yul\":3819:3936   */\n    tag_215:\n        /* \"#utility.yul\":3960:4023   */\n      tag_217\n        /* \"#utility.yul\":4015:4022   */\n      dup8\n        /* \"#utility.yul\":4006:4012   */\n      dup3\n        /* \"#utility.yul\":3995:4004   */\n      dup9\n        /* \"#utility.yul\":3991:4013   */\n      add\n        /* \"#utility.yul\":3960:4023   */\n      tag_140\n      jump\t// in\n    tag_217:\n        /* \"#utility.yul\":3950:4023   */\n      swap2\n      pop\n        /* \"#utility.yul\":3745:4033   */\n      pop\n        /* \"#utility.yul\":2555:4040   */\n      swap3\n      swap6\n      swap2\n      swap5\n      pop\n      swap3\n      pop\n      jump\t// out\n        /* \"#utility.yul\":4046:4132   */\n    tag_141:\n        /* \"#utility.yul\":4081:4088   */\n      0x00\n        /* \"#utility.yul\":4121:4125   */\n      0xff\n        /* \"#utility.yul\":4114:4119   */\n      dup3\n        /* \"#utility.yul\":4110:4126   */\n      and\n        /* \"#utility.yul\":4099:4126   */\n      swap1\n      pop\n        /* \"#utility.yul\":4046:4132   */\n      swap2\n      swap1\n      pop\n      jump\t// out\n        /* \"#utility.yul\":4138:4250   */\n    tag_142:\n        /* \"#utility.yul\":4221:4243   */\n      tag_220\n        /* \"#utility.yul\":4237:4242   */\n      dup2\n        /* \"#utility.yul\":4221:4243   */\n      tag_141\n      jump\t// in\n    tag_220:\n        /* \"#utility.yul\":4216:4219   */\n      dup3\n        /* \"#utility.yul\":4209:4244   */\n      mstore\n        /* \"#utility.yul\":4138:4250   */\n      pop\n      pop\n      jump\t// out\n        /* \"#utility.yul\":4256:4470   */\n    tag_19:\n        /* \"#utility.yul\":4345:4349   */\n      0x00\n        /* \"#utility.yul\":4383:4385   */\n      0x20\n        /* \"#utility.yul\":4372:4381   */\n      dup3\n        /* \"#utility.yul\":4368:4386   */\n      add\n        /* \"#utility.yul\":4360:4386   */\n      swap1\n      pop\n        /* \"#utility.yul\":4396:4463   */\n      tag_222\n        /* \"#utility.yul\":4460:4461   */\n      0x00\n        /* \"#utility.yul\":4449:4458   */\n      dup4\n        /* \"#utility.yul\":4445:4462   */\n      add\n        /* \"#utility.yul\":4436:4442   */\n      dup5\n        /* \"#utility.yul\":4396:4463   */\n      tag_142\n      jump\t// in\n    tag_222:\n        /* \"#utility.yul\":4256:4470   */\n      swap3\n      swap2\n      pop\n      pop\n      jump\t// out\n        /* \"#utility.yul\":4476:4594   */\n    tag_143:\n        /* \"#utility.yul\":4547:4569   */\n      tag_224\n        /* \"#utility.yul\":4563:4568   */\n      dup2\n        /* \"#utility.yul\":4547:4569   */\n      tag_141\n      jump\t// in\n    tag_224:\n        /* \"#utility.yul\":4540:4545   */\n      dup2\n        /* \"#utility.yul\":4537:4570   */\n      eq\n        /* \"#utility.yul\":4527:4588   */\n      tag_225\n      jumpi\n        /* \"#utility.yul\":4584:4585   */\n      0x00\n        /* \"#utility.yul\":4581:4582   */\n      0x00\n        /* \"#utility.yul\":4574:4586   */\n      revert\n        /* \"#utility.yul\":4527:4588   */\n    tag_225:\n        /* \"#utility.yul\":4476:4594   */\n      pop\n      jump\t// out\n        /* \"#utility.yul\":4600:4735   */\n    tag_144:\n        /* \"#utility.yul\":4644:4649   */\n      0x00\n        /* \"#utility.yul\":4682:4688   */\n      dup2\n        /* \"#utility.yul\":4669:4689   */\n      calldataload\n        /* \"#utility.yul\":4660:4689   */\n      swap1\n      pop\n        /* \"#utility.yul\":4698:4729   */\n      tag_227\n        /* \"#utility.yul\":4723:4728   */\n      dup2\n        /* \"#utility.yul\":4698:4729   */\n      tag_143\n      jump\t// in\n    tag_227:\n        /* \"#utility.yul\":4600:4735   */\n      swap3\n      swap2\n      pop\n      pop\n      jump\t// out\n        /* \"#utility.yul\":4741:5066   */\n    tag_22:\n        /* \"#utility.yul\":4798:4804   */\n      0x00\n        /* \"#utility.yul\":4847:4849   */\n      0x20\n        /* \"#utility.yul\":4835:4844   */\n      dup3\n        /* \"#utility.yul\":4826:4833   */\n      dup5\n        /* \"#utility.yul\":4822:4845   */\n      sub\n        /* \"#utility.yul\":4818:4850   */\n      slt\n        /* \"#utility.yul\":4815:4934   */\n      iszero\n      tag_229\n      jumpi\n        /* \"#utility.yul\":4853:4932   */\n      tag_230\n      tag_129\n      jump\t// in\n    tag_230:\n        /* \"#utility.yul\":4815:4934   */\n    tag_229:\n        /* \"#utility.yul\":4973:4974   */\n      0x00\n        /* \"#utility.yul\":4998:5049   */\n      tag_231\n        /* \"#utility.yul\":5041:5048   */\n      dup5\n        /* \"#utility.yul\":5032:5038   */\n      dup3\n        /* \"#utility.yul\":5021:5030   */\n      dup6\n        /* \"#utility.yul\":5017:5039   */\n      add\n        /* \"#utility.yul\":4998:5049   */\n      tag_144\n      jump\t// in\n    tag_231:\n        /* \"#utility.yul\":4988:5049   */\n      swap2\n      pop\n        /* \"#utility.yul\":4944:5059   */\n      pop\n        /* \"#utility.yul\":4741:5066   */\n      swap3\n      swap2\n      pop\n      pop\n      jump\t// out\n        /* \"#utility.yul\":5072:5171   */\n    tag_145:\n        /* \"#utility.yul\":5124:5130   */\n      0x00\n        /* \"#utility.yul\":5158:5163   */\n      dup2\n        /* \"#utility.yul\":5152:5164   */\n      mload\n        /* \"#utility.yul\":5142:5164   */\n      swap1\n      pop\n        /* \"#utility.yul\":5072:5171   */\n      swap2\n      swap1\n      pop\n      jump\t// out\n        /* \"#utility.yul\":5177:5346   */\n    tag_146:\n        /* \"#utility.yul\":5261:5272   */\n      0x00\n        /* \"#utility.yul\":5295:5301   */\n      dup3\n        /* \"#utility.yul\":5290:5293   */\n      dup3\n        /* \"#utility.yul\":5283:5302   */\n      mstore\n        /* \"#utility.yul\":5335:5339   */\n      0x20\n        /* \"#utility.yul\":5330:5333   */\n      dup3\n        /* \"#utility.yul\":5326:5340   */\n      add\n        /* \"#utility.yul\":5311:5340   */\n      swap1\n      pop\n        /* \"#utility.yul\":5177:5346   */\n      swap3\n      swap2\n      pop\n      pop\n      jump\t// out\n        /* \"#utility.yul\":5352:5491   */\n    tag_147:\n        /* \"#utility.yul\":5441:5447   */\n      dup3\n        /* \"#utility.yul\":5436:5439   */\n      dup2\n        /* \"#utility.yul\":5431:5434   */\n      dup4\n        /* \"#utility.yul\":5425:5448   */\n      mcopy\n        /* \"#utility.yul\":5482:5483   */\n      0x00\n        /* \"#utility.yul\":5473:5479   */\n      dup4\n        /* \"#utility.yul\":5468:5471   */\n      dup4\n        /* \"#utility.yul\":5464:5480   */\n      add\n        /* \"#utility.yul\":5457:5484   */\n      mstore\n        /* \"#utility.yul\":5352:5491   */\n      pop\n      pop\n      pop\n      jump\t// out\n        /* \"#utility.yul\":5497:5874   */\n    tag_148:\n        /* \"#utility.yul\":5585:5588   */\n      0x00\n        /* \"#utility.yul\":5613:5652   */\n      tag_236\n        /* \"#utility.yul\":5646:5651   */\n      dup3\n        /* \"#utility.yul\":5613:5652   */\n      tag_145\n      jump\t// in\n    tag_236:\n        /* \"#utility.yul\":5668:5739   */\n      tag_237\n        /* \"#utility.yul\":5732:5738   */\n      dup2\n        /* \"#utility.yul\":5727:5730   */\n      dup6\n        /* \"#utility.yul\":5668:5739   */\n      tag_146\n      jump\t// in\n    tag_237:\n        /* \"#utility.yul\":5661:5739   */\n      swap4\n      pop\n        /* \"#utility.yul\":5748:5813   */\n      tag_238\n        /* \"#utility.yul\":5806:5812   */\n      dup2\n        /* \"#utility.yul\":5801:5804   */\n      dup6\n        /* \"#utility.yul\":5794:5798   */\n      0x20\n        /* \"#utility.yul\":5787:5792   */\n      dup7\n        /* \"#utility.yul\":5783:5799   */\n      add\n        /* \"#utility.yul\":5748:5813   */\n      tag_147\n      jump\t// in\n    tag_238:\n        /* \"#utility.yul\":5838:5867   */\n      tag_239\n        /* \"#utility.yul\":5860:5866   */\n      dup2\n        /* \"#utility.yul\":5838:5867   */\n      tag_133\n      jump\t// in\n    tag_239:\n        /* \"#utility.yul\":5833:5836   */\n      dup5\n        /* \"#utility.yul\":5829:5868   */\n      add\n        /* \"#utility.yul\":5822:5868   */\n      swap2\n      pop\n        /* \"#utility.yul\":5589:5874   */\n      pop\n        /* \"#utility.yul\":5497:5874   */\n      swap3\n      swap2\n      pop\n      pop\n      jump\t// out\n        /* \"#utility.yul\":5880:6900   */\n    tag_25:\n        /* \"#utility.yul\":6161:6165   */\n      0x00\n        /* \"#utility.yul\":6199:6202   */\n      0xa0\n        /* \"#utility.yul\":6188:6197   */\n      dup3\n        /* \"#utility.yul\":6184:6203   */\n      add\n        /* \"#utility.yul\":6176:6203   */\n      swap1\n      pop\n        /* \"#utility.yul\":6249:6258   */\n      dup2\n        /* \"#utility.yul\":6243:6247   */\n      dup2\n        /* \"#utility.yul\":6239:6259   */\n      sub\n        /* \"#utility.yul\":6235:6236   */\n      0x00\n        /* \"#utility.yul\":6224:6233   */\n      dup4\n        /* \"#utility.yul\":6220:6237   */\n      add\n        /* \"#utility.yul\":6213:6260   */\n      mstore\n        /* \"#utility.yul\":6277:6355   */\n      tag_241\n        /* \"#utility.yul\":6350:6354   */\n      dup2\n        /* \"#utility.yul\":6341:6347   */\n      dup9\n        /* \"#utility.yul\":6277:6355   */\n      tag_148\n      jump\t// in\n    tag_241:\n        /* \"#utility.yul\":6269:6355   */\n      swap1\n      pop\n        /* \"#utility.yul\":6402:6411   */\n      dup2\n        /* \"#utility.yul\":6396:6400   */\n      dup2\n        /* \"#utility.yul\":6392:6412   */\n      sub\n        /* \"#utility.yul\":6387:6389   */\n      0x20\n        /* \"#utility.yul\":6376:6385   */\n      dup4\n        /* \"#utility.yul\":6372:6390   */\n      add\n        /* \"#utility.yul\":6365:6413   */\n      mstore\n        /* \"#utility.yul\":6430:6508   */\n      tag_242\n        /* \"#utility.yul\":6503:6507   */\n      dup2\n        /* \"#utility.yul\":6494:6500   */\n      dup8\n        /* \"#utility.yul\":6430:6508   */\n      tag_148\n      jump\t// in\n    tag_242:\n        /* \"#utility.yul\":6422:6508   */\n      swap1\n      pop\n        /* \"#utility.yul\":6555:6564   */\n      dup2\n        /* \"#utility.yul\":6549:6553   */\n      dup2\n        /* \"#utility.yul\":6545:6565   */\n      sub\n        /* \"#utility.yul\":6540:6542   */\n      0x40\n        /* \"#utility.yul\":6529:6538   */\n      dup4\n        /* \"#utility.yul\":6525:6543   */\n      add\n        /* \"#utility.yul\":6518:6566   */\n      mstore\n        /* \"#utility.yul\":6583:6661   */\n      tag_243\n        /* \"#utility.yul\":6656:6660   */\n      dup2\n        /* \"#utility.yul\":6647:6653   */\n      dup7\n        /* \"#utility.yul\":6583:6661   */\n      tag_148\n      jump\t// in\n    tag_243:\n        /* \"#utility.yul\":6575:6661   */\n      swap1\n      pop\n        /* \"#utility.yul\":6671:6739   */\n      tag_244\n        /* \"#utility.yul\":6735:6737   */\n      0x60\n        /* \"#utility.yul\":6724:6733   */\n      dup4\n        /* \"#utility.yul\":6720:6738   */\n      add\n        /* \"#utility.yul\":6711:6717   */\n      dup6\n        /* \"#utility.yul\":6671:6739   */\n      tag_142\n      jump\t// in\n    tag_244:\n        /* \"#utility.yul\":6787:6796   */\n      dup2\n        /* \"#utility.yul\":6781:6785   */\n      dup2\n        /* \"#utility.yul\":6777:6797   */\n      sub\n        /* \"#utility.yul\":6771:6774   */\n      0x80\n        /* \"#utility.yul\":6760:6769   */\n      dup4\n        /* \"#utility.yul\":6756:6775   */\n      add\n        /* \"#utility.yul\":6749:6798   */\n      mstore\n        /* \"#utility.yul\":6815:6893   */\n      tag_245\n        /* \"#utility.yul\":6888:6892   */\n      dup2\n        /* \"#utility.yul\":6879:6885   */\n      dup5\n        /* \"#utility.yul\":6815:6893   */\n      tag_148\n      jump\t// in\n    tag_245:\n        /* \"#utility.yul\":6807:6893   */\n      swap1\n      pop\n        /* \"#utility.yul\":5880:6900   */\n      swap7\n      swap6\n      pop\n      pop\n      pop\n      pop\n      pop\n      pop\n      jump\t// out\n        /* \"#utility.yul\":6906:7556   */\n    tag_31:\n        /* \"#utility.yul\":6982:6988   */\n      0x00\n        /* \"#utility.yul\":6990:6996   */\n      0x00\n        /* \"#utility.yul\":7039:7041   */\n      0x40\n        /* \"#utility.yul\":7027:7036   */\n      dup4\n        /* \"#utility.yul\":7018:7025   */\n      dup6\n        /* \"#utility.yul\":7014:7037   */\n      sub\n        /* \"#utility.yul\":7010:7042   */\n      slt\n        /* \"#utility.yul\":7007:7126   */\n      iszero\n      tag_247\n      jumpi\n        /* \"#utility.yul\":7045:7124   */\n      tag_248\n      tag_129\n      jump\t// in\n    tag_248:\n        /* \"#utility.yul\":7007:7126   */\n    tag_247:\n        /* \"#utility.yul\":7165:7166   */\n      0x00\n        /* \"#utility.yul\":7190:7241   */\n      tag_249\n        /* \"#utility.yul\":7233:7240   */\n      dup6\n        /* \"#utility.yul\":7224:7230   */\n      dup3\n        /* \"#utility.yul\":7213:7222   */\n      dup7\n        /* \"#utility.yul\":7209:7231   */\n      add\n        /* \"#utility.yul\":7190:7241   */\n      tag_144\n      jump\t// in\n    tag_249:\n        /* \"#utility.yul\":7180:7241   */\n      swap3\n      pop\n        /* \"#utility.yul\":7136:7251   */\n      pop\n        /* \"#utility.yul\":7318:7320   */\n      0x20\n        /* \"#utility.yul\":7307:7316   */\n      dup4\n        /* \"#utility.yul\":7303:7321   */\n      add\n        /* \"#utility.yul\":7290:7322   */\n      calldataload\n        /* \"#utility.yul\":7349:7367   */\n      0xffffffffffffffff\n        /* \"#utility.yul\":7341:7347   */\n      dup2\n        /* \"#utility.yul\":7338:7368   */\n      gt\n        /* \"#utility.yul\":7335:7452   */\n      iszero\n      tag_250\n      jumpi\n        /* \"#utility.yul\":7371:7450   */\n      tag_251\n      tag_130\n      jump\t// in\n    tag_251:\n        /* \"#utility.yul\":7335:7452   */\n    tag_250:\n        /* \"#utility.yul\":7476:7539   */\n      tag_252\n        /* \"#utility.yul\":7531:7538   */\n      dup6\n        /* \"#utility.yul\":7522:7528   */\n      dup3\n        /* \"#utility.yul\":7511:7520   */\n      dup7\n        /* \"#utility.yul\":7507:7529   */\n      add\n        /* \"#utility.yul\":7476:7539   */\n      tag_140\n      jump\t// in\n    tag_252:\n        /* \"#utility.yul\":7466:7539   */\n      swap2\n      pop\n        /* \"#utility.yul\":7261:7549   */\n      pop\n        /* \"#utility.yul\":6906:7556   */\n      swap3\n      pop\n      swap3\n      swap1\n      pop\n      jump\t// out\n        /* \"#utility.yul\":7562:8076   */\n    tag_43:\n        /* \"#utility.yul\":7723:7727   */\n      0x00\n        /* \"#utility.yul\":7761:7763   */\n      0x40\n        /* \"#utility.yul\":7750:7759   */\n      dup3\n        /* \"#utility.yul\":7746:7764   */\n      add\n        /* \"#utility.yul\":7738:7764   */\n      swap1\n      pop\n        /* \"#utility.yul\":7810:7819   */\n      dup2\n        /* \"#utility.yul\":7804:7808   */\n      dup2\n        /* \"#utility.yul\":7800:7820   */\n      sub\n        /* \"#utility.yul\":7796:7797   */\n      0x00\n        /* \"#utility.yul\":7785:7794   */\n      dup4\n        /* \"#utility.yul\":7781:7798   */\n      add\n        /* \"#utility.yul\":7774:7821   */\n      mstore\n        /* \"#utility.yul\":7838:7916   */\n      tag_254\n        /* \"#utility.yul\":7911:7915   */\n      dup2\n        /* \"#utility.yul\":7902:7908   */\n      dup6\n        /* \"#utility.yul\":7838:7916   */\n      tag_148\n      jump\t// in\n    tag_254:\n        /* \"#utility.yul\":7830:7916   */\n      swap1\n      pop\n        /* \"#utility.yul\":7963:7972   */\n      dup2\n        /* \"#utility.yul\":7957:7961   */\n      dup2\n        /* \"#utility.yul\":7953:7973   */\n      sub\n        /* \"#utility.yul\":7948:7950   */\n      0x20\n        /* \"#utility.yul\":7937:7946   */\n      dup4\n        /* \"#utility.yul\":7933:7951   */\n      add\n        /* \"#utility.yul\":7926:7974   */\n      mstore\n        /* \"#utility.yul\":7991:8069   */\n      tag_255\n        /* \"#utility.yul\":8064:8068   */\n      dup2\n        /* \"#utility.yul\":8055:8061   */\n      dup5\n        /* \"#utility.yul\":7991:8069   */\n      tag_148\n      jump\t// in\n    tag_255:\n        /* \"#utility.yul\":7983:8069   */\n      swap1\n      pop\n        /* \"#utility.yul\":7562:8076   */\n      swap4\n      swap3\n      pop\n      pop\n      pop\n      jump\t// out\n        /* \"#utility.yul\":8082:8253   */\n    tag_149:\n        /* \"#utility.yul\":8222:8245   */\n      0x4572726f723a204163636573732044656e6965642e0000000000000000000000\n        /* \"#utility.yul\":8218:8219   */\n      0x00\n        /* \"#utility.yul\":8210:8216   */\n      dup3\n        /* \"#utility.yul\":8206:8220   */\n      add\n        /* \"#utility.yul\":8199:8246   */\n      mstore\n        /* \"#utility.yul\":8082:8253   */\n      pop\n      jump\t// out\n        /* \"#utility.yul\":8259:8625   */\n    tag_150:\n        /* \"#utility.yul\":8401:8404   */\n      0x00\n        /* \"#utility.yul\":8422:8489   */\n      tag_258\n        /* \"#utility.yul\":8486:8488   */\n      0x15\n        /* \"#utility.yul\":8481:8484   */\n      dup4\n        /* \"#utility.yul\":8422:8489   */\n      tag_146\n      jump\t// in\n    tag_258:\n        /* \"#utility.yul\":8415:8489   */\n      swap2\n      pop\n        /* \"#utility.yul\":8498:8591   */\n      tag_259\n        /* \"#utility.yul\":8587:8590   */\n      dup3\n        /* \"#utility.yul\":8498:8591   */\n      tag_149\n      jump\t// in\n    tag_259:\n        /* \"#utility.yul\":8616:8618   */\n      0x20\n        /* \"#utility.yul\":8611:8614   */\n      dup3\n        /* \"#utility.yul\":8607:8619   */\n      add\n        /* \"#utility.yul\":8600:8619   */\n      swap1\n      pop\n        /* \"#utility.yul\":8259:8625   */\n      swap2\n      swap1\n      pop\n      jump\t// out\n        /* \"#utility.yul\":8631:9050   */\n    tag_47:\n        /* \"#utility.yul\":8797:8801   */\n      0x00\n        /* \"#utility.yul\":8835:8837   */\n      0x20\n        /* \"#utility.yul\":8824:8833   */\n      dup3\n        /* \"#utility.yul\":8820:8838   */\n      add\n        /* \"#utility.yul\":8812:8838   */\n      swap1\n      pop\n        /* \"#utility.yul\":8884:8893   */\n      dup2\n        /* \"#utility.yul\":8878:8882   */\n      dup2\n        /* \"#utility.yul\":8874:8894   */\n      sub\n        /* \"#utility.yul\":8870:8871   */\n      0x00\n        /* \"#utility.yul\":8859:8868   */\n      dup4\n        /* \"#utility.yul\":8855:8872   */\n      add\n        /* \"#utility.yul\":8848:8895   */\n      mstore\n        /* \"#utility.yul\":8912:9043   */\n      tag_261\n        /* \"#utility.yul\":9038:9042   */\n      dup2\n        /* \"#utility.yul\":8912:9043   */\n      tag_150\n      jump\t// in\n    tag_261:\n        /* \"#utility.yul\":8904:9043   */\n      swap1\n      pop\n        /* \"#utility.yul\":8631:9050   */\n      swap2\n      swap1\n      pop\n      jump\t// out\n        /* \"#utility.yul\":9056:9236   */\n    tag_151:\n        /* \"#utility.yul\":9104:9181   */\n      0x4e487b7100000000000000000000000000000000000000000000000000000000\n        /* \"#utility.yul\":9101:9102   */\n      0x00\n        /* \"#utility.yul\":9094:9182   */\n      mstore\n        /* \"#utility.yul\":9201:9205   */\n      0x11\n        /* \"#utility.yul\":9198:9199   */\n      0x04\n        /* \"#utility.yul\":9191:9206   */\n      mstore\n        /* \"#utility.yul\":9225:9229   */\n      0x24\n        /* \"#utility.yul\":9222:9223   */\n      0x00\n        /* \"#utility.yul\":9215:9230   */\n      revert\n        /* \"#utility.yul\":9242:9409   */\n    tag_50:\n        /* \"#utility.yul\":9279:9282   */\n      0x00\n        /* \"#utility.yul\":9302:9324   */\n      tag_264\n        /* \"#utility.yul\":9318:9323   */\n      dup3\n        /* \"#utility.yul\":9302:9324   */\n      tag_141\n      jump\t// in\n    tag_264:\n        /* \"#utility.yul\":9293:9324   */\n      swap2\n      pop\n        /* \"#utility.yul\":9346:9350   */\n      0xff\n        /* \"#utility.yul\":9339:9344   */\n      dup3\n        /* \"#utility.yul\":9336:9351   */\n      sub\n        /* \"#utility.yul\":9333:9374   */\n      tag_265\n      jumpi\n        /* \"#utility.yul\":9354:9372   */\n      tag_266\n      tag_151\n      jump\t// in\n    tag_266:\n        /* \"#utility.yul\":9333:9374   */\n    tag_265:\n        /* \"#utility.yul\":9401:9402   */\n      0x01\n        /* \"#utility.yul\":9394:9399   */\n      dup3\n        /* \"#utility.yul\":9390:9403   */\n      add\n        /* \"#utility.yul\":9383:9403   */\n      swap1\n      pop\n        /* \"#utility.yul\":9242:9409   */\n      swap2\n      swap1\n      pop\n      jump\t// out\n        /* \"#utility.yul\":9415:9595   */\n    tag_152:\n        /* \"#utility.yul\":9463:9540   */\n      0x4e487b7100000000000000000000000000000000000000000000000000000000\n        /* \"#utility.yul\":9460:9461   */\n      0x00\n        /* \"#utility.yul\":9453:9541   */\n      mstore\n        /* \"#utility.yul\":9560:9564   */\n      0x22\n        /* \"#utility.yul\":9557:9558   */\n      0x04\n        /* \"#utility.yul\":9550:9565   */\n      mstore\n        /* \"#utility.yul\":9584:9588   */\n      0x24\n        /* \"#utility.yul\":9581:9582   */\n      0x00\n        /* \"#utility.yul\":9574:9589   */\n      revert\n        /* \"#utility.yul\":9601:9921   */\n    tag_58:\n        /* \"#utility.yul\":9645:9651   */\n      0x00\n        /* \"#utility.yul\":9682:9683   */\n      0x02\n        /* \"#utility.yul\":9676:9680   */\n      dup3\n        /* \"#utility.yul\":9672:9684   */\n      div\n        /* \"#utility.yul\":9662:9684   */\n      swap1\n      pop\n        /* \"#utility.yul\":9729:9730   */\n      0x01\n        /* \"#utility.yul\":9723:9727   */\n      dup3\n        /* \"#utility.yul\":9719:9731   */\n      and\n        /* \"#utility.yul\":9750:9768   */\n      dup1\n        /* \"#utility.yul\":9740:9821   */\n      tag_269\n      jumpi\n        /* \"#utility.yul\":9806:9810   */\n      0x7f\n        /* \"#utility.yul\":9798:9804   */\n      dup3\n        /* \"#utility.yul\":9794:9811   */\n      and\n        /* \"#utility.yul\":9784:9811   */\n      swap2\n      pop\n        /* \"#utility.yul\":9740:9821   */\n    tag_269:\n        /* \"#utility.yul\":9868:9870   */\n      0x20\n        /* \"#utility.yul\":9860:9866   */\n      dup3\n        /* \"#utility.yul\":9857:9871   */\n      lt\n        /* \"#utility.yul\":9837:9855   */\n      dup2\n        /* \"#utility.yul\":9834:9872   */\n      sub\n        /* \"#utility.yul\":9831:9915   */\n      tag_270\n      jumpi\n        /* \"#utility.yul\":9887:9905   */\n      tag_271\n      tag_152\n      jump\t// in\n    tag_271:\n        /* \"#utility.yul\":9831:9915   */\n    tag_270:\n        /* \"#utility.yul\":9652:9921   */\n      pop\n        /* \"#utility.yul\":9601:9921   */\n      swap2\n      swap1\n      pop\n      jump\t// out\n        /* \"#utility.yul\":9927:10068   */\n    tag_153:\n        /* \"#utility.yul\":9976:9980   */\n      0x00\n        /* \"#utility.yul\":9999:10002   */\n      dup2\n        /* \"#utility.yul\":9991:10002   */\n      swap1\n      pop\n        /* \"#utility.yul\":10022:10025   */\n      dup2\n        /* \"#utility.yul\":10019:10020   */\n      0x00\n        /* \"#utility.yul\":10012:10026   */\n      mstore\n        /* \"#utility.yul\":10056:10060   */\n      0x20\n        /* \"#utility.yul\":10053:10054   */\n      0x00\n        /* \"#utility.yul\":10043:10061   */\n      keccak256\n        /* \"#utility.yul\":10035:10061   */\n      swap1\n      pop\n        /* \"#utility.yul\":9927:10068   */\n      swap2\n      swap1\n      pop\n      jump\t// out\n        /* \"#utility.yul\":10074:10167   */\n    tag_154:\n        /* \"#utility.yul\":10111:10117   */\n      0x00\n        /* \"#utility.yul\":10158:10160   */\n      0x20\n        /* \"#utility.yul\":10153:10155   */\n      0x1f\n        /* \"#utility.yul\":10146:10151   */\n      dup4\n        /* \"#utility.yul\":10142:10156   */\n      add\n        /* \"#utility.yul\":10138:10161   */\n      div\n        /* \"#utility.yul\":10128:10161   */\n      swap1\n      pop\n        /* \"#utility.yul\":10074:10167   */\n      swap2\n      swap1\n      pop\n      jump\t// out\n        /* \"#utility.yul\":10173:10280   */\n    tag_155:\n        /* \"#utility.yul\":10217:10225   */\n      0x00\n        /* \"#utility.yul\":10267:10272   */\n      dup3\n        /* \"#utility.yul\":10261:10265   */\n      dup3\n        /* \"#utility.yul\":10257:10273   */\n      shl\n        /* \"#utility.yul\":10236:10273   */\n      swap1\n      pop\n        /* \"#utility.yul\":10173:10280   */\n      swap3\n      swap2\n      pop\n      pop\n      jump\t// out\n        /* \"#utility.yul\":10286:10679   */\n    tag_156:\n        /* \"#utility.yul\":10355:10361   */\n      0x00\n        /* \"#utility.yul\":10405:10406   */\n      0x08\n        /* \"#utility.yul\":10393:10403   */\n      dup4\n        /* \"#utility.yul\":10389:10407   */\n      mul\n        /* \"#utility.yul\":10428:10525   */\n      tag_276\n        /* \"#utility.yul\":10458:10524   */\n      0xffffffffffffffffffffffffffffffffffffffffffffffffffffffffffffffff\n        /* \"#utility.yul\":10447:10456   */\n      dup3\n        /* \"#utility.yul\":10428:10525   */\n      tag_155\n      jump\t// in\n    tag_276:\n        /* \"#utility.yul\":10546:10585   */\n      tag_277\n        /* \"#utility.yul\":10576:10584   */\n      dup7\n        /* \"#utility.yul\":10565:10574   */\n      dup4\n        /* \"#utility.yul\":10546:10585   */\n      tag_155\n      jump\t// in\n    tag_277:\n        /* \"#utility.yul\":10534:10585   */\n      swap6\n      pop\n        /* \"#utility.yul\":10618:10622   */\n      dup1\n        /* \"#utility.yul\":10614:10623   */\n      not\n        /* \"#utility.yul\":10607:10612   */\n      dup5\n        /* \"#utility.yul\":10603:10624   */\n      and\n        /* \"#utility.yul\":10594:10624   */\n      swap4\n      pop\n        /* \"#utility.yul\":10667:10671   */\n      dup1\n        /* \"#utility.yul\":10657:10665   */\n      dup7\n        /* \"#utility.yul\":10653:10672   */\n      and\n        /* \"#utility.yul\":10646:10651   */\n      dup5\n        /* \"#utility.yul\":10643:10673   */\n      or\n        /* \"#utility.yul\":10633:10673   */\n      swap3\n      pop\n        /* \"#utility.yul\":10362:10679   */\n      pop\n      pop\n        /* \"#utility.yul\":10286:10679   */\n      swap4\n      swap3\n      pop\n      pop\n      pop\n      jump\t// out\n        /* \"#utility.yul\":10685:10762   */\n    tag_157:\n        /* \"#utility.yul\":10722:10729   */\n      0x00\n        /* \"#utility.yul\":10751:10756   */\n      dup2\n        /* \"#utility.yul\":10740:10756   */\n      swap1\n      pop\n        /* \"#utility.yul\":10685:10762   */\n      swap2\n      swap1\n      pop\n      jump\t// out\n        /* \"#utility.yul\":10768:10828   */\n    tag_158:\n        /* \"#utility.yul\":10796:10799   */\n      0x00\n        /* \"#utility.yul\":10817:10822   */\n      dup2\n        /* \"#utility.yul\":10810:10822   */\n      swap1\n      pop\n        /* \"#utility.yul\":10768:10828   */\n      swap2\n      swap1\n      pop\n      jump\t// out\n        /* \"#utility.yul\":10834:10976   */\n    tag_159:\n        /* \"#utility.yul\":10884:10893   */\n      0x00\n        /* \"#utility.yul\":10917:10970   */\n      tag_281\n        /* \"#utility.yul\":10935:10969   */\n      tag_282\n        /* \"#utility.yul\":10944:10968   */\n      tag_283\n        /* \"#utility.yul\":10962:10967   */\n      dup5\n        /* \"#utility.yul\":10944:10968   */\n      tag_157\n      jump\t// in\n    tag_283:\n        /* \"#utility.yul\":10935:10969   */\n      tag_158\n      jump\t// in\n    tag_282:\n        /* \"#utility.yul\":10917:10970   */\n      tag_157\n      jump\t// in\n    tag_281:\n        /* \"#utility.yul\":10904:10970   */\n      swap1\n      pop\n        /* \"#utility.yul\":10834:10976   */\n      swap2\n      swap1\n      pop\n      jump\t// out\n        /* \"#utility.yul\":10982:11057   */\n    tag_160:\n        /* \"#utility.yul\":11025:11028   */\n      0x00\n        /* \"#utility.yul\":11046:11051   */\n      dup2\n        /* \"#utility.yul\":11039:11051   */\n      swap1\n      pop\n        /* \"#utility.yul\":10982:11057   */\n      swap2\n      swap1\n      pop\n      jump\t// out\n        /* \"#utility.yul\":11063:11332   */\n    tag_161:\n        /* \"#utility.yul\":11173:11212   */\n      tag_286\n        /* \"#utility.yul\":11204:11211   */\n      dup4\n        /* \"#utility.yul\":11173:11212   */\n      tag_159\n      jump\t// in\n    tag_286:\n        /* \"#utility.yul\":11234:11325   */\n      tag_287\n        /* \"#utility.yul\":11283:11324   */\n      tag_288\n        /* \"#utility.yul\":11307:11323   */\n      dup3\n        /* \"#utility.yul\":11283:11324   */\n      tag_160\n      jump\t// in\n    tag_288:\n        /* \"#utility.yul\":11275:11281   */\n      dup5\n        /* \"#utility.yul\":11268:11272   */\n      dup5\n        /* \"#utility.yul\":11262:11273   */\n      sload\n        /* \"#utility.yul\":11234:11325   */\n      tag_156\n      jump\t// in\n    tag_287:\n        /* \"#utility.yul\":11228:11232   */\n      dup3\n        /* \"#utility.yul\":11221:11326   */\n      sstore\n        /* \"#utility.yul\":11139:11332   */\n      pop\n        /* \"#utility.yul\":11063:11332   */\n      pop\n      pop\n      pop\n      jump\t// out\n        /* \"#utility.yul\":11338:11411   */\n    tag_162:\n        /* \"#utility.yul\":11383:11386   */\n      0x00\n        /* \"#utility.yul\":11404:11405   */\n      0x00\n        /* \"#utility.yul\":11397:11405   */\n      swap1\n      pop\n        /* \"#utility.yul\":11338:11411   */\n      swap1\n      jump\t// out\n        /* \"#utility.yul\":11417:11606   */\n    tag_163:\n        /* \"#utility.yul\":11494:11526   */\n      tag_291\n      tag_162\n      jump\t// in\n    tag_291:\n        /* \"#utility.yul\":11535:11600   */\n      tag_292\n        /* \"#utility.yul\":11593:11599   */\n      dup2\n        /* \"#utility.yul\":11585:11591   */\n      dup5\n        /* \"#utility.yul\":11579:11583   */\n      dup5\n        /* \"#utility.yul\":11535:11600   */\n      tag_161\n      jump\t// in\n    tag_292:\n        /* \"#utility.yul\":11470:11606   */\n      pop\n        /* \"#utility.yul\":11417:11606   */\n      pop\n      pop\n      jump\t// out\n        /* \"#utility.yul\":11612:11826   */\n    tag_164:\n        /* \"#utility.yul\":11697:11698   */\n      0x00\n        /* \"#utility.yul\":11682:11820   */\n    tag_294:\n        /* \"#utility.yul\":11707:11716   */\n      dup3\n        /* \"#utility.yul\":11704:11705   */\n      dup2\n        /* \"#utility.yul\":11701:11717   */\n      lt\n        /* \"#utility.yul\":11682:11820   */\n      iszero\n      tag_296\n      jumpi\n        /* \"#utility.yul\":11759:11810   */\n      tag_297\n        /* \"#utility.yul\":11808:11809   */\n      0x00\n        /* \"#utility.yul\":11804:11805   */\n      dup3\n        /* \"#utility.yul\":11793:11802   */\n      dup5\n        /* \"#utility.yul\":11789:11806   */\n      add\n        /* \"#utility.yul\":11759:11810   */\n      tag_163\n      jump\t// in\n    tag_297:\n        /* \"#utility.yul\":11732:11733   */\n      0x01\n        /* \"#utility.yul\":11729:11730   */\n      dup2\n        /* \"#utility.yul\":11725:11734   */\n      add\n        /* \"#utility.yul\":11720:11734   */\n      swap1\n      pop\n        /* \"#utility.yul\":11682:11820   */\n      jump(tag_294)\n    tag_296:\n        /* \"#utility.yul\":11686:11700   */\n      pop\n        /* \"#utility.yul\":11612:11826   */\n      pop\n      pop\n      jump\t// out\n        /* \"#utility.yul\":11832:12578   */\n    tag_165:\n        /* \"#utility.yul\":11933:11935   */\n      0x1f\n        /* \"#utility.yul\":11928:11931   */\n      dup3\n        /* \"#utility.yul\":11925:11936   */\n      gt\n        /* \"#utility.yul\":11922:12571   */\n      iszero\n      tag_299\n      jumpi\n        /* \"#utility.yul\":11962:11972   */\n      dup3\n        /* \"#utility.yul\":11957:11960   */\n      dup3\n        /* \"#utility.yul\":11954:11973   */\n      gt\n        /* \"#utility.yul\":11951:12561   */\n      iszero\n      tag_300\n      jumpi\n        /* \"#utility.yul\":12008:12046   */\n      tag_301\n        /* \"#utility.yul\":12040:12045   */\n      dup2\n        /* \"#utility.yul\":12008:12046   */\n      tag_153\n      jump\t// in\n    tag_301:\n        /* \"#utility.yul\":12083:12105   */\n      tag_302\n        /* \"#utility.yul\":12101:12104   */\n      dup4\n        /* \"#utility.yul\":12083:12105   */\n      tag_154\n      jump\t// in\n    tag_302:\n        /* \"#utility.yul\":12142:12171   */\n      tag_303\n        /* \"#utility.yul\":12160:12170   */\n      dup6\n        /* \"#utility.yul\":12142:12171   */\n      tag_154\n      jump\t// in\n    tag_303:\n        /* \"#utility.yul\":12332:12334   */\n      0x20\n        /* \"#utility.yul\":12320:12330   */\n      dup7\n        /* \"#utility.yul\":12317:12335   */\n      lt\n        /* \"#utility.yul\":12314:12393   */\n      iszero\n      tag_304\n      jumpi\n        /* \"#utility.yul\":12374:12375   */\n      0x00\n        /* \"#utility.yul\":12358:12375   */\n      swap1\n      pop\n        /* \"#utility.yul\":12314:12393   */\n    tag_304:\n        /* \"#utility.yul\":12443:12455   */\n      dup1\n        /* \"#utility.yul\":12433:12441   */\n      dup4\n        /* \"#utility.yul\":12429:12456   */\n      add\n        /* \"#utility.yul\":12473:12547   */\n      tag_305\n        /* \"#utility.yul\":12533:12545   */\n      dup3\n        /* \"#utility.yul\":12519:12531   */\n      dup5\n        /* \"#utility.yul\":12515:12546   */\n      sub\n        /* \"#utility.yul\":12502:12513   */\n      dup3\n        /* \"#utility.yul\":12473:12547   */\n      tag_164\n      jump\t// in\n    tag_305:\n        /* \"#utility.yul\":11974:12561   */\n      pop\n      pop\n      pop\n      pop\n        /* \"#utility.yul\":11951:12561   */\n    tag_300:\n        /* \"#utility.yul\":11922:12571   */\n    tag_299:\n        /* \"#utility.yul\":11832:12578   */\n      pop\n      pop\n      pop\n      jump\t// out\n        /* \"#utility.yul\":12584:12701   */\n    tag_166:\n        /* \"#utility.yul\":12638:12646   */\n      0x00\n        /* \"#utility.yul\":12688:12693   */\n      dup3\n        /* \"#utility.yul\":12682:12686   */\n      dup3\n        /* \"#utility.yul\":12678:12694   */\n      shr\n        /* \"#utility.yul\":12657:12694   */\n      swap1\n      pop\n        /* \"#utility.yul\":12584:12701   */\n      swap3\n      swap2\n      pop\n      pop\n      jump\t// out\n        /* \"#utility.yul\":12707:12876   */\n    tag_167:\n        /* \"#utility.yul\":12751:12757   */\n      0x00\n        /* \"#utility.yul\":12784:12835   */\n      tag_308\n        /* \"#utility.yul\":12832:12833   */\n      0x00\n        /* \"#utility.yul\":12828:12834   */\n      not\n        /* \"#utility.yul\":12820:12825   */\n      dup5\n        /* \"#utility.yul\":12817:12818   */\n      0x08\n        /* \"#utility.yul\":12813:12826   */\n      mul\n        /* \"#utility.yul\":12784:12835   */\n      tag_166\n      jump\t// in\n    tag_308:\n        /* \"#utility.yul\":12780:12836   */\n      not\n        /* \"#utility.yul\":12865:12869   */\n      dup1\n        /* \"#utility.yul\":12859:12863   */\n      dup4\n        /* \"#utility.yul\":12855:12870   */\n      and\n        /* \"#utility.yul\":12845:12870   */\n      swap2\n      pop\n        /* \"#utility.yul\":12758:12876   */\n      pop\n        /* \"#utility.yul\":12707:12876   */\n      swap3\n      swap2\n      pop\n      pop\n      jump\t// out\n        /* \"#utility.yul\":12881:13176   */\n    tag_168:\n        /* \"#utility.yul\":12957:12961   */\n      0x00\n        /* \"#utility.yul\":13103:13132   */\n      tag_310\n        /* \"#utility.yul\":13128:13131   */\n      dup4\n        /* \"#utility.yul\":13122:13126   */\n      dup4\n        /* \"#utility.yul\":13103:13132   */\n      tag_167\n      jump\t// in\n    tag_310:\n        /* \"#utility.yul\":13095:13132   */\n      swap2\n      pop\n        /* \"#utility.yul\":13165:13168   */\n      dup3\n        /* \"#utility.yul\":13162:13163   */\n      0x02\n        /* \"#utility.yul\":13158:13169   */\n      mul\n        /* \"#utility.yul\":13152:13156   */\n      dup3\n        /* \"#utility.yul\":13149:13170   */\n      or\n        /* \"#utility.yul\":13141:13170   */\n      swap1\n      pop\n        /* \"#utility.yul\":12881:13176   */\n      swap3\n      swap2\n      pop\n      pop\n      jump\t// out\n        /* \"#utility.yul\":13181:14576   */\n    tag_52:\n        /* \"#utility.yul\":13298:13335   */\n      tag_312\n        /* \"#utility.yul\":13331:13334   */\n      dup3\n        /* \"#utility.yul\":13298:13335   */\n      tag_145\n      jump\t// in\n    tag_312:\n        /* \"#utility.yul\":13400:13418   */\n      0xffffffffffffffff\n        /* \"#utility.yul\":13392:13398   */\n      dup2\n        /* \"#utility.yul\":13389:13419   */\n      gt\n        /* \"#utility.yul\":13386:13442   */\n      iszero\n      tag_313\n      jumpi\n        /* \"#utility.yul\":13422:13440   */\n      tag_314\n      tag_134\n      jump\t// in\n    tag_314:\n        /* \"#utility.yul\":13386:13442   */\n    tag_313:\n        /* \"#utility.yul\":13466:13504   */\n      tag_315\n        /* \"#utility.yul\":13498:13502   */\n      dup3\n        /* \"#utility.yul\":13492:13503   */\n      sload\n        /* \"#utility.yul\":13466:13504   */\n      tag_58\n      jump\t// in\n    tag_315:\n        /* \"#utility.yul\":13551:13618   */\n      tag_316\n        /* \"#utility.yul\":13611:13617   */\n      dup3\n        /* \"#utility.yul\":13603:13609   */\n      dup3\n        /* \"#utility.yul\":13597:13601   */\n      dup6\n        /* \"#utility.yul\":13551:13618   */\n      tag_165\n      jump\t// in\n    tag_316:\n        /* \"#utility.yul\":13645:13646   */\n      0x00\n        /* \"#utility.yul\":13669:13673   */\n      0x20\n        /* \"#utility.yul\":13656:13673   */\n      swap1\n      pop\n        /* \"#utility.yul\":13701:13703   */\n      0x1f\n        /* \"#utility.yul\":13693:13699   */\n      dup4\n        /* \"#utility.yul\":13690:13704   */\n      gt\n        /* \"#utility.yul\":13718:13719   */\n      0x01\n        /* \"#utility.yul\":13713:14331   */\n      dup2\n      eq\n      tag_318\n      jumpi\n        /* \"#utility.yul\":14375:14376   */\n      0x00\n        /* \"#utility.yul\":14392:14398   */\n      dup5\n        /* \"#utility.yul\":14389:14466   */\n      iszero\n      tag_319\n      jumpi\n        /* \"#utility.yul\":14441:14450   */\n      dup3\n        /* \"#utility.yul\":14436:14439   */\n      dup8\n        /* \"#utility.yul\":14432:14451   */\n      add\n        /* \"#utility.yul\":14426:14452   */\n      mload\n        /* \"#utility.yul\":14417:14452   */\n      swap1\n      pop\n        /* \"#utility.yul\":14389:14466   */\n    tag_319:\n        /* \"#utility.yul\":14492:14559   */\n      tag_320\n        /* \"#utility.yul\":14552:14558   */\n      dup6\n        /* \"#utility.yul\":14545:14550   */\n      dup3\n        /* \"#utility.yul\":14492:14559   */\n      tag_168\n      jump\t// in\n    tag_320:\n        /* \"#utility.yul\":14486:14490   */\n      dup7\n        /* \"#utility.yul\":14479:14560   */\n      sstore\n        /* \"#utility.yul\":14348:14570   */\n      pop\n        /* \"#utility.yul\":13683:14570   */\n      jump(tag_317)\n        /* \"#utility.yul\":13713:14331   */\n    tag_318:\n        /* \"#utility.yul\":13765:13769   */\n      0x1f\n        /* \"#utility.yul\":13761:13770   */\n      not\n        /* \"#utility.yul\":13753:13759   */\n      dup5\n        /* \"#utility.yul\":13749:13771   */\n      and\n        /* \"#utility.yul\":13799:13836   */\n      tag_321\n        /* \"#utility.yul\":13831:13835   */\n      dup7\n        /* \"#utility.yul\":13799:13836   */\n      tag_153\n      jump\t// in\n    tag_321:\n        /* \"#utility.yul\":13858:13859   */\n      0x00\n        /* \"#utility.yul\":13872:14080   */\n    tag_322:\n        /* \"#utility.yul\":13886:13893   */\n      dup3\n        /* \"#utility.yul\":13883:13884   */\n      dup2\n        /* \"#utility.yul\":13880:13894   */\n      lt\n        /* \"#utility.yul\":13872:14080   */\n      iszero\n      tag_324\n      jumpi\n        /* \"#utility.yul\":13965:13974   */\n      dup5\n        /* \"#utility.yul\":13960:13963   */\n      dup10\n        /* \"#utility.yul\":13956:13975   */\n      add\n        /* \"#utility.yul\":13950:13976   */\n      mload\n        /* \"#utility.yul\":13942:13948   */\n      dup3\n        /* \"#utility.yul\":13935:13977   */\n      sstore\n        /* \"#utility.yul\":14016:14017   */\n      0x01\n        /* \"#utility.yul\":14008:14014   */\n      dup3\n        /* \"#utility.yul\":14004:14018   */\n      add\n        /* \"#utility.yul\":13994:14018   */\n      swap2\n      pop\n        /* \"#utility.yul\":14063:14065   */\n      0x20\n        /* \"#utility.yul\":14052:14061   */\n      dup6\n        /* \"#utility.yul\":14048:14066   */\n      add\n        /* \"#utility.yul\":14035:14066   */\n      swap5\n      pop\n        /* \"#utility.yul\":13909:13913   */\n      0x20\n        /* \"#utility.yul\":13906:13907   */\n      dup2\n        /* \"#utility.yul\":13902:13914   */\n      add\n        /* \"#utility.yul\":13897:13914   */\n      swap1\n      pop\n        /* \"#utility.yul\":13872:14080   */\n      jump(tag_322)\n    tag_324:\n        /* \"#utility.yul\":14108:14114   */\n      dup7\n        /* \"#utility.yul\":14099:14106   */\n      dup4\n        /* \"#utility.yul\":14096:14115   */\n      lt\n        /* \"#utility.yul\":14093:14272   */\n      iszero\n      tag_325\n      jumpi\n        /* \"#utility.yul\":14166:14175   */\n      dup5\n        /* \"#utility.yul\":14161:14164   */\n      dup10\n        /* \"#utility.yul\":14157:14176   */\n      add\n        /* \"#utility.yul\":14151:14177   */\n      mload\n        /* \"#utility.yul\":14209:14257   */\n      tag_326\n        /* \"#utility.yul\":14251:14255   */\n      0x1f\n        /* \"#utility.yul\":14243:14249   */\n      dup10\n        /* \"#utility.yul\":14239:14256   */\n      and\n        /* \"#utility.yul\":14228:14237   */\n      dup3\n        /* \"#utility.yul\":14209:14257   */\n      tag_167\n      jump\t// in\n    tag_326:\n        /* \"#utility.yul\":14201:14207   */\n      dup4\n        /* \"#utility.yul\":14194:14258   */\n      sstore\n        /* \"#utility.yul\":14116:14272   */\n      pop\n        /* \"#utility.yul\":14093:14272   */\n    tag_325:\n        /* \"#utility.yul\":14318:14319   */\n      0x01\n        /* \"#utility.yul\":14314:14315   */\n      0x02\n        /* \"#utility.yul\":14306:14312   */\n      dup9\n        /* \"#utility.yul\":14302:14316   */\n      mul\n        /* \"#utility.yul\":14298:14320   */\n      add\n        /* \"#utility.yul\":14292:14296   */\n      dup9\n        /* \"#utility.yul\":14285:14321   */\n      sstore\n        /* \"#utility.yul\":13720:14331   */\n      pop\n      pop\n      pop\n        /* \"#utility.yul\":13683:14570   */\n    tag_317:\n      pop\n        /* \"#utility.yul\":13273:14576   */\n      pop\n      pop\n      pop\n        /* \"#utility.yul\":13181:14576   */\n      pop\n      pop\n      jump\t// out\n        /* \"#utility.yul\":14582:14730   */\n    tag_169:\n        /* \"#utility.yul\":14684:14695   */\n      0x00\n        /* \"#utility.yul\":14721:14724   */\n      dup2\n        /* \"#utility.yul\":14706:14724   */\n      swap1\n      pop\n        /* \"#utility.yul\":14582:14730   */\n      swap3\n      swap2\n      pop\n      pop\n      jump\t// out\n        /* \"#utility.yul\":14736:15126   */\n    tag_170:\n        /* \"#utility.yul\":14842:14845   */\n      0x00\n        /* \"#utility.yul\":14870:14909   */\n      tag_329\n        /* \"#utility.yul\":14903:14908   */\n      dup3\n        /* \"#utility.yul\":14870:14909   */\n      tag_145\n      jump\t// in\n    tag_329:\n        /* \"#utility.yul\":14925:15014   */\n      tag_330\n        /* \"#utility.yul\":15007:15013   */\n      dup2\n        /* \"#utility.yul\":15002:15005   */\n      dup6\n        /* \"#utility.yul\":14925:15014   */\n      tag_169\n      jump\t// in\n    tag_330:\n        /* \"#utility.yul\":14918:15014   */\n      swap4\n      pop\n        /* \"#utility.yul\":15023:15088   */\n      tag_331\n        /* \"#utility.yul\":15081:15087   */\n      dup2\n        /* \"#utility.yul\":15076:15079   */\n      dup6\n        /* \"#utility.yul\":15069:15073   */\n      0x20\n        /* \"#utility.yul\":15062:15067   */\n      dup7\n        /* \"#utility.yul\":15058:15074   */\n      add\n        /* \"#utility.yul\":15023:15088   */\n      tag_147\n      jump\t// in\n    tag_331:\n        /* \"#utility.yul\":15113:15119   */\n      dup1\n        /* \"#utility.yul\":15108:15111   */\n      dup5\n        /* \"#utility.yul\":15104:15120   */\n      add\n        /* \"#utility.yul\":15097:15120   */\n      swap2\n      pop\n        /* \"#utility.yul\":14846:15126   */\n      pop\n        /* \"#utility.yul\":14736:15126   */\n      swap3\n      swap2\n      pop\n      pop\n      jump\t// out\n        /* \"#utility.yul\":15132:15407   */\n    tag_88:\n        /* \"#utility.yul\":15264:15267   */\n      0x00\n        /* \"#utility.yul\":15286:15381   */\n      tag_333\n        /* \"#utility.yul\":15377:15380   */\n      dup3\n        /* \"#utility.yul\":15368:15374   */\n      dup5\n        /* \"#utility.yul\":15286:15381   */\n      tag_170\n      jump\t// in\n    tag_333:\n        /* \"#utility.yul\":15279:15381   */\n      swap2\n      pop\n        /* \"#utility.yul\":15398:15401   */\n      dup2\n        /* \"#utility.yul\":15391:15401   */\n      swap1\n      pop\n        /* \"#utility.yul\":15132:15407   */\n      swap3\n      swap2\n      pop\n      pop\n      jump\t// out\n        /* \"#utility.yul\":15413:15591   */\n    tag_171:\n        /* \"#utility.yul\":15553:15583   */\n      0x4572726f723a596f752063616e6e6f7420646f75626c6520766f746500000000\n        /* \"#utility.yul\":15549:15550   */\n      0x00\n        /* \"#utility.yul\":15541:15547   */\n      dup3\n        /* \"#utility.yul\":15537:15551   */\n      add\n        /* \"#utility.yul\":15530:15584   */\n      mstore\n        /* \"#utility.yul\":15413:15591   */\n      pop\n      jump\t// out\n        /* \"#utility.yul\":15597:15963   */\n    tag_172:\n        /* \"#utility.yul\":15739:15742   */\n      0x00\n        /* \"#utility.yul\":15760:15827   */\n      tag_336\n        /* \"#utility.yul\":15824:15826   */\n      0x1c\n        /* \"#utility.yul\":15819:15822   */\n      dup4\n        /* \"#utility.yul\":15760:15827   */\n      tag_146\n      jump\t// in\n    tag_336:\n        /* \"#utility.yul\":15753:15827   */\n      swap2\n      pop\n        /* \"#utility.yul\":15836:15929   */\n      tag_337\n        /* \"#utility.yul\":15925:15928   */\n      dup3\n        /* \"#utility.yul\":15836:15929   */\n      tag_171\n      jump\t// in\n    tag_337:\n        /* \"#utility.yul\":15954:15956   */\n      0x20\n        /* \"#utility.yul\":15949:15952   */\n      dup3\n        /* \"#utility.yul\":15945:15957   */\n      add\n        /* \"#utility.yul\":15938:15957   */\n      swap1\n      pop\n        /* \"#utility.yul\":15597:15963   */\n      swap2\n      swap1\n      pop\n      jump\t// out\n        /* \"#utility.yul\":15969:16388   */\n    tag_91:\n        /* \"#utility.yul\":16135:16139   */\n      0x00\n        /* \"#utility.yul\":16173:16175   */\n      0x20\n        /* \"#utility.yul\":16162:16171   */\n      dup3\n        /* \"#utility.yul\":16158:16176   */\n      add\n        /* \"#utility.yul\":16150:16176   */\n      swap1\n      pop\n        /* \"#utility.yul\":16222:16231   */\n      dup2\n        /* \"#utility.yul\":16216:16220   */\n      dup2\n        /* \"#utility.yul\":16212:16232   */\n      sub\n        /* \"#utility.yul\":16208:16209   */\n      0x00\n        /* \"#utility.yul\":16197:16206   */\n      dup4\n        /* \"#utility.yul\":16193:16210   */\n      add\n        /* \"#utility.yul\":16186:16233   */\n      mstore\n        /* \"#utility.yul\":16250:16381   */\n      tag_339\n        /* \"#utility.yul\":16376:16380   */\n      dup2\n        /* \"#utility.yul\":16250:16381   */\n      tag_172\n      jump\t// in\n    tag_339:\n        /* \"#utility.yul\":16242:16381   */\n      swap1\n      pop\n        /* \"#utility.yul\":15969:16388   */\n      swap2\n      swap1\n      pop\n      jump\t// out\n\n    auxdata: 0xa26469706673582212206c6d63140697298870a30280585dc4c7173e9cee5a8e9a1aec18dd88e6fe6c1564736f6c63430008210033\n}\n","bytecode":{"linkReferences":{},"object":"608060405234801561000f575f5ffd5b50604051611ad7380380611ad783398181016040528101906100319190610259565b825f5f6101000a81548173ffffffffffffffffffffffffffffffffffffffff021916908373ffffffffffffffffffffffffffffffffffffffff160217905550816001908161007f9190610502565b50806002908161008f9190610502565b50600160035f6101000a81548160ff0219169083151502179055505050506105d1565b5f604051905090565b5f5ffd5b5f5ffd5b5f73ffffffffffffffffffffffffffffffffffffffff82169050919050565b5f6100ec826100c3565b9050919050565b6100fc816100e2565b8114610106575f5ffd5b50565b5f81519050610117816100f3565b92915050565b5f5ffd5b5f5ffd5b5f601f19601f8301169050919050565b7f4e487b71000000000000000000000000000000000000000000000000000000005f52604160045260245ffd5b61016b82610125565b810181811067ffffffffffffffff8211171561018a57610189610135565b5b80604052505050565b5f61019c6100b2565b90506101a88282610162565b919050565b5f67ffffffffffffffff8211156101c7576101c6610135565b5b6101d082610125565b9050602081019050919050565b8281835e5f83830152505050565b5f6101fd6101f8846101ad565b610193565b90508281526020810184848401111561021957610218610121565b5b6102248482856101dd565b509392505050565b5f82601f8301126102405761023f61011d565b5b81516102508482602086016101eb565b91505092915050565b5f5f5f606084860312156102705761026f6100bb565b5b5f61027d86828701610109565b935050602084015167ffffffffffffffff81111561029e5761029d6100bf565b5b6102aa8682870161022c565b925050604084015167ffffffffffffffff8111156102cb576102ca6100bf565b5b6102d78682870161022c565b9150509250925092565b5f81519050919050565b7f4e487b71000000000000000000000000000000000000000000000000000000005f52602260045260245ffd5b5f600282049050600182168061032f57607f821691505b602082108103610342576103416102eb565b5b50919050565b5f819050815f5260205f209050919050565b5f6020601f8301049050919050565b5f82821b905092915050565b5f600883026103a47fffffffffffffffffffffffffffffffffffffffffffffffffffffffffffffffff82610369565b6103ae8683610369565b95508019841693508086168417925050509392505050565b5f819050919050565b5f819050919050565b5f6103f26103ed6103e8846103c6565b6103cf565b6103c6565b9050919050565b5f819050919050565b61040b836103d8565b61041f610417826103f9565b848454610375565b825550505050565b5f5f905090565b610436610427565b610441818484610402565b505050565b5f5b828110156104675761045c5f82840161042e565b600181019050610448565b505050565b601f8211156104ba57828211156104b95761048681610348565b61048f8361035a565b6104988561035a565b60208610156104a5575f90505b8083016104b482840382610446565b505050505b5b505050565b5f82821c905092915050565b5f6104da5f19846008026104bf565b1980831691505092915050565b5f6104f283836104cb565b9150826002028217905092915050565b61050b826102e1565b67ffffffffffffffff81111561052457610523610135565b5b61052e8254610318565b61053982828561046c565b5f60209050601f83116001811461056a575f8415610558578287015190505b61056285826104e7565b8655506105c9565b601f19841661057886610348565b5f5b8281101561059f5784890151825560018201915060208501945060208101905061057a565b868310156105bc57848901516105b8601f8916826104cb565b8355505b6001600288020188555050505b505050505050565b6114f9806105de5f395ff3fe608060405234801561000f575f5ffd5b5060043610610086575f3560e01c8063b224c40a11610059578063b224c40a14610116578063cde9370f14610132578063e8685ba114610166578063ed836bc31461018457610086565b806342b03cc91461008a57806365fc783c146100a65780636d6277f4146100c4578063a15148d1146100f8575b5f5ffd5b6100a4600480360381019061009f9190610daf565b6101a3565b005b6100ae61032b565b6040516100bb9190610e9e565b60405180910390f35b6100de60048036038101906100d99190610ee1565b610341565b6040516100ef959493929190610f6c565b60405180910390f35b610100610597565b60405161010d9190610e9e565b60405180910390f35b610130600480360381019061012b9190610fd9565b6106e7565b005b61014c60048036038101906101479190610ee1565b610859565b60405161015d959493929190610f6c565b60405180910390f35b61016e610b2a565b60405161017b9190610e9e565b60405180910390f35b61018c610b3f565b60405161019a929190611033565b60405180910390f35b5f5f9054906101000a900473ffffffffffffffffffffffffffffffffffffffff1673ffffffffffffffffffffffffffffffffffffffff163373ffffffffffffffffffffffffffffffffffffffff1614610231576040517f08c379a0000000000000000000000000000000000000000000000000000000008152600401610228906110b2565b60405180910390fd5b5f60065f81819054906101000a900460ff1680929190610250906110fd565b91906101000a81548160ff021916908360ff16021790555090506040518060a001604052808681526020018581526020018481526020015f60ff1681526020018381525060045f8360ff1660ff1681526020019081526020015f205f820151815f0190816102be919061133c565b5060208201518160010190816102d4919061133c565b5060408201518160020190816102ea919061133c565b506060820151816003015f6101000a81548160ff021916908360ff1602179055506080820151816004019081610320919061133c565b509050505050505050565b5f600660019054906101000a900460ff16905090565b6004602052805f5260405f205f91509050805f01805461036090611152565b80601f016020809104026020016040519081016040528092919081815260200182805461038c90611152565b80156103d75780601f106103ae576101008083540402835291602001916103d7565b820191905f5260205f20905b8154815290600101906020018083116103ba57829003601f168201915b5050505050908060010180546103ec90611152565b80601f016020809104026020016040519081016040528092919081815260200182805461041890611152565b80156104635780601f1061043a57610100808354040283529160200191610463565b820191905f5260205f20905b81548152906001019060200180831161044657829003601f168201915b50505050509080600201805461047890611152565b80601f01602080910402602001604051908101604052809291908181526020018280546104a490611152565b80156104ef5780601f106104c6576101008083540402835291602001916104ef565b820191905f5260205f20905b8154815290600101906020018083116104d257829003601f168201915b505050505090806003015f9054906101000a900460ff169080600401805461051690611152565b80601f016020809104026020016040519081016040528092919081815260200182805461054290611152565b801561058d5780601f106105645761010080835404028352916020019161058d565b820191905f5260205f20905b81548152906001019060200180831161057057829003601f168201915b5050505050905085565b5f5f5f9054906101000a900473ffffffffffffffffffffffffffffffffffffffff1673ffffffffffffffffffffffffffffffffffffffff163373ffffffffffffffffffffffffffffffffffffffff1614610626576040517f08c379a000000000000000000000000000000000000000000000000000000000815260040161061d906110b2565b60405180910390fd5b5f60045f5f60ff1681526020019081526020015f206003015f9054906101000a900460ff1690505f5f600190505b60065f9054906101000a900460ff1660ff168160ff1610156106de5760045f8260ff1660ff1681526020019081526020015f206003015f9054906101000a900460ff1660ff168360ff1610156106d15760045f8260ff1660ff1681526020019081526020015f206003015f9054906101000a900460ff1692508091505b8080600101915050610654565b50809250505090565b6005816040516106f79190611445565b90815260200160405180910390205f0160019054906101000a900460ff1615610755576040517f08c379a000000000000000000000000000000000000000000000000000000000815260040161074c906114a5565b60405180910390fd5b60405180604001604052808360ff168152602001600115158152506005826040516107809190611445565b90815260200160405180910390205f820151815f015f6101000a81548160ff021916908360ff1602179055506020820151815f0160016101000a81548160ff0219169083151502179055509050506006600181819054906101000a900460ff16809291906107ed906110fd565b91906101000a81548160ff021916908360ff1602179055505060045f8360ff1660ff1681526020019081526020015f206003015f81819054906101000a900460ff168092919061083c906110fd565b91906101000a81548160ff021916908360ff160217905550505050565b60608060605f606060045f8760ff1660ff1681526020019081526020015f205f0160045f8860ff1660ff1681526020019081526020015f2060010160045f8960ff1660ff1681526020019081526020015f2060020160045f8a60ff1660ff1681526020019081526020015f206003015f9054906101000a900460ff1660045f8b60ff1660ff1681526020019081526020015f206004018480546108fb90611152565b80601f016020809104026020016040519081016040528092919081815260200182805461092790611152565b80156109725780601f1061094957610100808354040283529160200191610972565b820191905f5260205f20905b81548152906001019060200180831161095557829003601f168201915b5050505050945083805461098590611152565b80601f01602080910402602001604051908101604052809291908181526020018280546109b190611152565b80156109fc5780601f106109d3576101008083540402835291602001916109fc565b820191905f5260205f20905b8154815290600101906020018083116109df57829003601f168201915b50505050509350828054610a0f90611152565b80601f0160208091040260200160405190810160405280929190818152602001828054610a3b90611152565b8015610a865780601f10610a5d57610100808354040283529160200191610a86565b820191905f5260205f20905b815481529060010190602001808311610a6957829003601f168201915b50505050509250808054610a9990611152565b80601f0160208091040260200160405190810160405280929190818152602001828054610ac590611152565b8015610b105780601f10610ae757610100808354040283529160200191610b10565b820191905f5260205f20905b815481529060010190602001808311610af357829003601f168201915b505050505090509450945094509450945091939590929450565b5f60065f9054906101000a900460ff16905090565b60608060016002818054610b5290611152565b80601f0160208091040260200160405190810160405280929190818152602001828054610b7e90611152565b8015610bc95780601f10610ba057610100808354040283529160200191610bc9565b820191905f5260205f20905b815481529060010190602001808311610bac57829003601f168201915b50505050509150808054610bdc90611152565b80601f0160208091040260200160405190810160405280929190818152602001828054610c0890611152565b8015610c535780601f10610c2a57610100808354040283529160200191610c53565b820191905f5260205f20905b815481529060010190602001808311610c3657829003601f168201915b50505050509050915091509091565b5f604051905090565b5f5ffd5b5f5ffd5b5f5ffd5b5f5ffd5b5f601f19601f8301169050919050565b7f4e487b71000000000000000000000000000000000000000000000000000000005f52604160045260245ffd5b610cc182610c7b565b810181811067ffffffffffffffff82111715610ce057610cdf610c8b565b5b80604052505050565b5f610cf2610c62565b9050610cfe8282610cb8565b919050565b5f67ffffffffffffffff821115610d1d57610d1c610c8b565b5b610d2682610c7b565b9050602081019050919050565b828183375f83830152505050565b5f610d53610d4e84610d03565b610ce9565b905082815260208101848484011115610d6f57610d6e610c77565b5b610d7a848285610d33565b509392505050565b5f82601f830112610d9657610d95610c73565b5b8135610da6848260208601610d41565b91505092915050565b5f5f5f5f60808587031215610dc757610dc6610c6b565b5b5f85013567ffffffffffffffff811115610de457610de3610c6f565b5b610df087828801610d82565b945050602085013567ffffffffffffffff811115610e1157610e10610c6f565b5b610e1d87828801610d82565b935050604085013567ffffffffffffffff811115610e3e57610e3d610c6f565b5b610e4a87828801610d82565b925050606085013567ffffffffffffffff811115610e6b57610e6a610c6f565b5b610e7787828801610d82565b91505092959194509250565b5f60ff82169050919050565b610e9881610e83565b82525050565b5f602082019050610eb15f830184610e8f565b92915050565b610ec081610e83565b8114610eca575f5ffd5b50565b5f81359050610edb81610eb7565b92915050565b5f60208284031215610ef657610ef5610c6b565b5b5f610f0384828501610ecd565b91505092915050565b5f81519050919050565b5f82825260208201905092915050565b8281835e5f83830152505050565b5f610f3e82610f0c565b610f488185610f16565b9350610f58818560208601610f26565b610f6181610c7b565b840191505092915050565b5f60a0820190508181035f830152610f848188610f34565b90508181036020830152610f988187610f34565b90508181036040830152610fac8186610f34565b9050610fbb6060830185610e8f565b8181036080830152610fcd8184610f34565b90509695505050505050565b5f5f60408385031215610fef57610fee610c6b565b5b5f610ffc85828601610ecd565b925050602083013567ffffffffffffffff81111561101d5761101c610c6f565b5b61102985828601610d82565b9150509250929050565b5f6040820190508181035f83015261104b8185610f34565b9050818103602083015261105f8184610f34565b90509392505050565b7f4572726f723a204163636573732044656e6965642e00000000000000000000005f82015250565b5f61109c601583610f16565b91506110a782611068565b602082019050919050565b5f6020820190508181035f8301526110c981611090565b9050919050565b7f4e487b71000000000000000000000000000000000000000000000000000000005f52601160045260245ffd5b5f61110782610e83565b915060ff820361111a576111196110d0565b5b600182019050919050565b7f4e487b71000000000000000000000000000000000000000000000000000000005f52602260045260245ffd5b5f600282049050600182168061116957607f821691505b60208210810361117c5761117b611125565b5b50919050565b5f819050815f5260205f209050919050565b5f6020601f8301049050919050565b5f82821b905092915050565b5f600883026111de7fffffffffffffffffffffffffffffffffffffffffffffffffffffffffffffffff826111a3565b6111e886836111a3565b95508019841693508086168417925050509392505050565b5f819050919050565b5f819050919050565b5f61122c61122761122284611200565b611209565b611200565b9050919050565b5f819050919050565b61124583611212565b61125961125182611233565b8484546111af565b825550505050565b5f5f905090565b611270611261565b61127b81848461123c565b505050565b5f5b828110156112a1576112965f828401611268565b600181019050611282565b505050565b601f8211156112f457828211156112f3576112c081611182565b6112c983611194565b6112d285611194565b60208610156112df575f90505b8083016112ee82840382611280565b505050505b5b505050565b5f82821c905092915050565b5f6113145f19846008026112f9565b1980831691505092915050565b5f61132c8383611305565b9150826002028217905092915050565b61134582610f0c565b67ffffffffffffffff81111561135e5761135d610c8b565b5b6113688254611152565b6113738282856112a6565b5f60209050601f8311600181146113a4575f8415611392578287015190505b61139c8582611321565b865550611403565b601f1984166113b286611182565b5f5b828110156113d9578489015182556001820191506020850194506020810190506113b4565b868310156113f657848901516113f2601f891682611305565b8355505b6001600288020188555050505b505050505050565b5f81905092915050565b5f61141f82610f0c565b611429818561140b565b9350611439818560208601610f26565b80840191505092915050565b5f6114508284611415565b915081905092915050565b7f4572726f723a596f752063616e6e6f7420646f75626c6520766f7465000000005f82015250565b5f61148f601c83610f16565b915061149a8261145b565b602082019050919050565b5f6020820190508181035f8301526114bc81611483565b905091905056fea26469706673582212206c6d63140697298870a30280585dc4c7173e9cee5a8e9a1aec18dd88e6fe6c1564736f6c63430008210033","opcodes":"PUSH1 0x80 PUSH1 0x40 MSTORE CALLVALUE DUP1 ISZERO PUSH2 0xF JUMPI PUSH0 PUSH0 REVERT JUMPDEST POP PUSH1 0x40 MLOAD PUSH2 0x1AD7 CODESIZE SUB DUP1 PUSH2 0x1AD7 DUP4 CODECOPY DUP2 DUP2 ADD PUSH1 0x40 MSTORE DUP2 ADD SWAP1 PUSH2 0x31 SWAP2 SWAP1 PUSH2 0x259 JUMP JUMPDEST DUP3 PUSH0 PUSH0 PUSH2 0x100 EXP DUP2 SLOAD DUP2 PUSH20 0xFFFFFFFFFFFFFFFFFFFFFFFFFFFFFFFFFFFFFFFF MUL NOT AND SWAP1 DUP4 PUSH20 0xFFFFFFFFFFFFFFFFFFFFFFFFFFFFFFFFFFFFFFFF AND MUL OR SWAP1 SSTORE POP DUP2 PUSH1 0x1 SWAP1 DUP2 PUSH2 0x7F SWAP2 SWAP1 PUSH2 0x502 JUMP JUMPDEST POP DUP1 PUSH1 0x2 SWAP1 DUP2 PUSH2 0x8F SWAP2 SWAP1 PUSH2 0x502 JUMP JUMPDEST POP PUSH1 0x1 PUSH1 0x3 PUSH0 PUSH2 0x100 EXP DUP2 SLOAD DUP2 PUSH1 0xFF MUL NOT AND SWAP1 DUP4 ISZERO ISZERO MUL OR SWAP1 SSTORE POP POP POP POP PUSH2 0x5D1 JUMP JUMPDEST PUSH0 PUSH1 0x40 MLOAD SWAP1 POP SWAP1 JUMP JUMPDEST PUSH0 PUSH0 REVERT JUMPDEST PUSH0 PUSH0 REVERT JUMPDEST PUSH0 PUSH20 0xFFFFFFFFFFFFFFFFFFFFFFFFFFFFFFFFFFFFFFFF DUP3 AND SWAP1 POP SWAP2 SWAP1 POP JUMP JUMPDEST PUSH0 PUSH2 0xEC DUP3 PUSH2 0xC3 JUMP JUMPDEST SWAP1 POP SWAP2 SWAP1 POP JUMP JUMPDEST PUSH2 0xFC DUP2 PUSH2 0xE2 JUMP JUMPDEST DUP2 EQ PUSH2 0x106 JUMPI PUSH0 PUSH0 REVERT JUMPDEST POP JUMP JUMPDEST PUSH0 DUP2 MLOAD SWAP1 POP PUSH2 0x117 DUP2 PUSH2 0xF3 JUMP JUMPDEST SWAP3 SWAP2 POP POP JUMP JUMPDEST PUSH0 PUSH0 REVERT JUMPDEST PUSH0 PUSH0 REVERT JUMPDEST PUSH0 PUSH1 0x1F NOT PUSH1 0x1F DUP4 ADD AND SWAP1 POP SWAP2 SWAP1 POP JUMP JUMPDEST PUSH32 0x4E487B7100000000000000000000000000000000000000000000000000000000 PUSH0 MSTORE PUSH1 0x41 PUSH1 0x4 MSTORE PUSH1 0x24 PUSH0 REVERT JUMPDEST PUSH2 0x16B DUP3 PUSH2 0x125 JUMP JUMPDEST DUP2 ADD DUP2 DUP2 LT PUSH8 0xFFFFFFFFFFFFFFFF DUP3 GT OR ISZERO PUSH2 0x18A JUMPI PUSH2 0x189 PUSH2 0x135 JUMP JUMPDEST JUMPDEST DUP1 PUSH1 0x40 MSTORE POP POP POP JUMP JUMPDEST PUSH0 PUSH2 0x19C PUSH2 0xB2 JUMP JUMPDEST SWAP1 POP PUSH2 0x1A8 DUP3 DUP3 PUSH2 0x162 JUMP JUMPDEST SWAP2 SWAP1 POP JUMP JUMPDEST PUSH0 PUSH8 0xFFFFFFFFFFFFFFFF DUP3 GT ISZERO PUSH2 0x1C7 JUMPI PUSH2 0x1C6 PUSH2 0x135 JUMP JUMPDEST JUMPDEST PUSH2 0x1D0 DUP3 PUSH2 0x125 JUMP JUMPDEST SWAP1 POP PUSH1 0x20 DUP2 ADD SWAP1 POP SWAP2 SWAP1 POP JUMP JUMPDEST DUP3 DUP2 DUP4 MCOPY PUSH0 DUP4 DUP4 ADD MSTORE POP POP POP JUMP JUMPDEST PUSH0 PUSH2 0x1FD PUSH2 0x1F8 DUP5 PUSH2 0x1AD JUMP JUMPDEST PUSH2 0x193 JUMP JUMPDEST SWAP1 POP DUP3 DUP2 MSTORE PUSH1 0x20 DUP2 ADD DUP5 DUP5 DUP5 ADD GT ISZERO PUSH2 0x219 JUMPI PUSH2 0x218 PUSH2 0x121 JUMP JUMPDEST JUMPDEST PUSH2 0x224 DUP5 DUP3 DUP6 PUSH2 0x1DD JUMP JUMPDEST POP SWAP4 SWAP3 POP POP POP JUMP JUMPDEST PUSH0 DUP3 PUSH1 0x1F DUP4 ADD SLT PUSH2 0x240 JUMPI PUSH2 0x23F PUSH2 0x11D JUMP JUMPDEST JUMPDEST DUP2 MLOAD PUSH2 0x250 DUP5 DUP3 PUSH1 0x20 DUP7 ADD PUSH2 0x1EB JUMP JUMPDEST SWAP2 POP POP SWAP3 SWAP2 POP POP JUMP JUMPDEST PUSH0 PUSH0 PUSH0 PUSH1 0x60 DUP5 DUP7 SUB SLT ISZERO PUSH2 0x270 JUMPI PUSH2 0x26F PUSH2 0xBB JUMP JUMPDEST JUMPDEST PUSH0 PUSH2 0x27D DUP7 DUP3 DUP8 ADD PUSH2 0x109 JUMP JUMPDEST SWAP4 POP POP PUSH1 0x20 DUP5 ADD MLOAD PUSH8 0xFFFFFFFFFFFFFFFF DUP2 GT ISZERO PUSH2 0x29E JUMPI PUSH2 0x29D PUSH2 0xBF JUMP JUMPDEST JUMPDEST PUSH2 0x2AA DUP7 DUP3 DUP8 ADD PUSH2 0x22C JUMP JUMPDEST SWAP3 POP POP PUSH1 0x40 DUP5 ADD MLOAD PUSH8 0xFFFFFFFFFFFFFFFF DUP2 GT ISZERO PUSH2 0x2CB JUMPI PUSH2 0x2CA PUSH2 0xBF JUMP JUMPDEST JUMPDEST PUSH2 0x2D7 DUP7 DUP3 DUP8 ADD PUSH2 0x22C JUMP JUMPDEST SWAP2 POP POP SWAP3 POP SWAP3 POP SWAP3 JUMP JUMPDEST PUSH0 DUP2 MLOAD SWAP1 POP SWAP2 SWAP1 POP JUMP JUMPDEST PUSH32 0x4E487B7100000000000000000000000000000000000000000000000000000000 PUSH0 MSTORE PUSH1 0x22 PUSH1 0x4 MSTORE PUSH1 0x24 PUSH0 REVERT JUMPDEST PUSH0 PUSH1 0x2 DUP3 DIV SWAP1 POP PUSH1 0x1 DUP3 AND DUP1 PUSH2 0x32F JUMPI PUSH1 0x7F DUP3 AND SWAP2 POP JUMPDEST PUSH1 0x20 DUP3 LT DUP2 SUB PUSH2 0x342 JUMPI PUSH2 0x341 PUSH2 0x2EB JUMP JUMPDEST JUMPDEST POP SWAP2 SWAP1 POP JUMP JUMPDEST PUSH0 DUP2 SWAP1 POP DUP2 PUSH0 MSTORE PUSH1 0x20 PUSH0 KECCAK256 SWAP1 POP SWAP2 SWAP1 POP JUMP JUMPDEST PUSH0 PUSH1 0x20 PUSH1 0x1F DUP4 ADD DIV SWAP1 POP SWAP2 SWAP1 POP JUMP JUMPDEST PUSH0 DUP3 DUP3 SHL SWAP1 POP SWAP3 SWAP2 POP POP JUMP JUMPDEST PUSH0 PUSH1 0x8 DUP4 MUL PUSH2 0x3A4 PUSH32 0xFFFFFFFFFFFFFFFFFFFFFFFFFFFFFFFFFFFFFFFFFFFFFFFFFFFFFFFFFFFFFFFF DUP3 PUSH2 0x369 JUMP JUMPDEST PUSH2 0x3AE DUP7 DUP4 PUSH2 0x369 JUMP JUMPDEST SWAP6 POP DUP1 NOT DUP5 AND SWAP4 POP DUP1 DUP7 AND DUP5 OR SWAP3 POP POP POP SWAP4 SWAP3 POP POP POP JUMP JUMPDEST PUSH0 DUP2 SWAP1 POP SWAP2 SWAP1 POP JUMP JUMPDEST PUSH0 DUP2 SWAP1 POP SWAP2 SWAP1 POP JUMP JUMPDEST PUSH0 PUSH2 0x3F2 PUSH2 0x3ED PUSH2 0x3E8 DUP5 PUSH2 0x3C6 JUMP JUMPDEST PUSH2 0x3CF JUMP JUMPDEST PUSH2 0x3C6 JUMP JUMPDEST SWAP1 POP SWAP2 SWAP1 POP JUMP JUMPDEST PUSH0 DUP2 SWAP1 POP SWAP2 SWAP1 POP JUMP JUMPDEST PUSH2 0x40B DUP4 PUSH2 0x3D8 JUMP JUMPDEST PUSH2 0x41F PUSH2 0x417 DUP3 PUSH2 0x3F9 JUMP JUMPDEST DUP5 DUP5 SLOAD PUSH2 0x375 JUMP JUMPDEST DUP3 SSTORE POP POP POP POP JUMP JUMPDEST PUSH0 PUSH0 SWAP1 POP SWAP1 JUMP JUMPDEST PUSH2 0x436 PUSH2 0x427 JUMP JUMPDEST PUSH2 0x441 DUP2 DUP5 DUP5 PUSH2 0x402 JUMP JUMPDEST POP POP POP JUMP JUMPDEST PUSH0 JUMPDEST DUP3 DUP2 LT ISZERO PUSH2 0x467 JUMPI PUSH2 0x45C PUSH0 DUP3 DUP5 ADD PUSH2 0x42E JUMP JUMPDEST PUSH1 0x1 DUP2 ADD SWAP1 POP PUSH2 0x448 JUMP JUMPDEST POP POP POP JUMP JUMPDEST PUSH1 0x1F DUP3 GT ISZERO PUSH2 0x4BA JUMPI DUP3 DUP3 GT ISZERO PUSH2 0x4B9 JUMPI PUSH2 0x486 DUP2 PUSH2 0x348 JUMP JUMPDEST PUSH2 0x48F DUP4 PUSH2 0x35A JUMP JUMPDEST PUSH2 0x498 DUP6 PUSH2 0x35A JUMP JUMPDEST PUSH1 0x20 DUP7 LT ISZERO PUSH2 0x4A5 JUMPI PUSH0 SWAP1 POP JUMPDEST DUP1 DUP4 ADD PUSH2 0x4B4 DUP3 DUP5 SUB DUP3 PUSH2 0x446 JUMP JUMPDEST POP POP POP POP JUMPDEST JUMPDEST POP POP POP JUMP JUMPDEST PUSH0 DUP3 DUP3 SHR SWAP1 POP SWAP3 SWAP2 POP POP JUMP JUMPDEST PUSH0 PUSH2 0x4DA PUSH0 NOT DUP5 PUSH1 0x8 MUL PUSH2 0x4BF JUMP JUMPDEST NOT DUP1 DUP4 AND SWAP2 POP POP SWAP3 SWAP2 POP POP JUMP JUMPDEST PUSH0 PUSH2 0x4F2 DUP4 DUP4 PUSH2 0x4CB JUMP JUMPDEST SWAP2 POP DUP3 PUSH1 0x2 MUL DUP3 OR SWAP1 POP SWAP3 SWAP2 POP POP JUMP JUMPDEST PUSH2 0x50B DUP3 PUSH2 0x2E1 JUMP JUMPDEST PUSH8 0xFFFFFFFFFFFFFFFF DUP2 GT ISZERO PUSH2 0x524 JUMPI PUSH2 0x523 PUSH2 0x135 JUMP JUMPDEST JUMPDEST PUSH2 0x52E DUP3 SLOAD PUSH2 0x318 JUMP JUMPDEST PUSH2 0x539 DUP3 DUP3 DUP6 PUSH2 0x46C JUMP JUMPDEST PUSH0 PUSH1 0x20 SWAP1 POP PUSH1 0x1F DUP4 GT PUSH1 0x1 DUP2 EQ PUSH2 0x56A JUMPI PUSH0 DUP5 ISZERO PUSH2 0x558 JUMPI DUP3 DUP8 ADD MLOAD SWAP1 POP JUMPDEST PUSH2 0x562 DUP6 DUP3 PUSH2 0x4E7 JUMP JUMPDEST DUP7 SSTORE POP PUSH2 0x5C9 JUMP JUMPDEST PUSH1 0x1F NOT DUP5 AND PUSH2 0x578 DUP7 PUSH2 0x348 JUMP JUMPDEST PUSH0 JUMPDEST DUP3 DUP2 LT ISZERO PUSH2 0x59F JUMPI DUP5 DUP10 ADD MLOAD DUP3 SSTORE PUSH1 0x1 DUP3 ADD SWAP2 POP PUSH1 0x20 DUP6 ADD SWAP5 POP PUSH1 0x20 DUP2 ADD SWAP1 POP PUSH2 0x57A JUMP JUMPDEST DUP7 DUP4 LT ISZERO PUSH2 0x5BC JUMPI DUP5 DUP10 ADD MLOAD PUSH2 0x5B8 PUSH1 0x1F DUP10 AND DUP3 PUSH2 0x4CB JUMP JUMPDEST DUP4 SSTORE POP JUMPDEST PUSH1 0x1 PUSH1 0x2 DUP9 MUL ADD DUP9 SSTORE POP POP POP JUMPDEST POP POP POP POP POP POP JUMP JUMPDEST PUSH2 0x14F9 DUP1 PUSH2 0x5DE PUSH0 CODECOPY PUSH0 RETURN INVALID PUSH1 0x80 PUSH1 0x40 MSTORE CALLVALUE DUP1 ISZERO PUSH2 0xF JUMPI PUSH0 PUSH0 REVERT JUMPDEST POP PUSH1 0x4 CALLDATASIZE LT PUSH2 0x86 JUMPI PUSH0 CALLDATALOAD PUSH1 0xE0 SHR DUP1 PUSH4 0xB224C40A GT PUSH2 0x59 JUMPI DUP1 PUSH4 0xB224C40A EQ PUSH2 0x116 JUMPI DUP1 PUSH4 0xCDE9370F EQ PUSH2 0x132 JUMPI DUP1 PUSH4 0xE8685BA1 EQ PUSH2 0x166 JUMPI DUP1 PUSH4 0xED836BC3 EQ PUSH2 0x184 JUMPI PUSH2 0x86 JUMP JUMPDEST DUP1 PUSH4 0x42B03CC9 EQ PUSH2 0x8A JUMPI DUP1 PUSH4 0x65FC783C EQ PUSH2 0xA6 JUMPI DUP1 PUSH4 0x6D6277F4 EQ PUSH2 0xC4 JUMPI DUP1 PUSH4 0xA15148D1 EQ PUSH2 0xF8 JUMPI JUMPDEST PUSH0 PUSH0 REVERT JUMPDEST PUSH2 0xA4 PUSH1 0x4 DUP1 CALLDATASIZE SUB DUP2 ADD SWAP1 PUSH2 0x9F SWAP2 SWAP1 PUSH2 0xDAF JUMP JUMPDEST PUSH2 0x1A3 JUMP JUMPDEST STOP JUMPDEST PUSH2 0xAE PUSH2 0x32B JUMP JUMPDEST PUSH1 0x40 MLOAD PUSH2 0xBB SWAP2 SWAP1 PUSH2 0xE9E JUMP JUMPDEST PUSH1 0x40 MLOAD DUP1 SWAP2 SUB SWAP1 RETURN JUMPDEST PUSH2 0xDE PUSH1 0x4 DUP1 CALLDATASIZE SUB DUP2 ADD SWAP1 PUSH2 0xD9 SWAP2 SWAP1 PUSH2 0xEE1 JUMP JUMPDEST PUSH2 0x341 JUMP JUMPDEST PUSH1 0x40 MLOAD PUSH2 0xEF SWAP6 SWAP5 SWAP4 SWAP3 SWAP2 SWAP1 PUSH2 0xF6C JUMP JUMPDEST PUSH1 0x40 MLOAD DUP1 SWAP2 SUB SWAP1 RETURN JUMPDEST PUSH2 0x100 PUSH2 0x597 JUMP JUMPDEST PUSH1 0x40 MLOAD PUSH2 0x10D SWAP2 SWAP1 PUSH2 0xE9E JUMP JUMPDEST PUSH1 0x40 MLOAD DUP1 SWAP2 SUB SWAP1 RETURN JUMPDEST PUSH2 0x130 PUSH1 0x4 DUP1 CALLDATASIZE SUB DUP2 ADD SWAP1 PUSH2 0x12B SWAP2 SWAP1 PUSH2 0xFD9 JUMP JUMPDEST PUSH2 0x6E7 JUMP JUMPDEST STOP JUMPDEST PUSH2 0x14C PUSH1 0x4 DUP1 CALLDATASIZE SUB DUP2 ADD SWAP1 PUSH2 0x147 SWAP2 SWAP1 PUSH2 0xEE1 JUMP JUMPDEST PUSH2 0x859 JUMP JUMPDEST PUSH1 0x40 MLOAD PUSH2 0x15D SWAP6 SWAP5 SWAP4 SWAP3 SWAP2 SWAP1 PUSH2 0xF6C JUMP JUMPDEST PUSH1 0x40 MLOAD DUP1 SWAP2 SUB SWAP1 RETURN JUMPDEST PUSH2 0x16E PUSH2 0xB2A JUMP JUMPDEST PUSH1 0x40 MLOAD PUSH2 0x17B SWAP2 SWAP1 PUSH2 0xE9E JUMP JUMPDEST PUSH1 0x40 MLOAD DUP1 SWAP2 SUB SWAP1 RETURN JUMPDEST PUSH2 0x18C PUSH2 0xB3F JUMP JUMPDEST PUSH1 0x40 MLOAD PUSH2 0x19A SWAP3 SWAP2 SWAP1 PUSH2 0x1033 JUMP JUMPDEST PUSH1 0x40 MLOAD DUP1 SWAP2 SUB SWAP1 RETURN JUMPDEST PUSH0 PUSH0 SWAP1 SLOAD SWAP1 PUSH2 0x100 EXP SWAP1 DIV PUSH20 0xFFFFFFFFFFFFFFFFFFFFFFFFFFFFFFFFFFFFFFFF AND PUSH20 0xFFFFFFFFFFFFFFFFFFFFFFFFFFFFFFFFFFFFFFFF AND CALLER PUSH20 0xFFFFFFFFFFFFFFFFFFFFFFFFFFFFFFFFFFFFFFFF AND EQ PUSH2 0x231 JUMPI PUSH1 0x40 MLOAD PUSH32 0x8C379A000000000000000000000000000000000000000000000000000000000 DUP2 MSTORE PUSH1 0x4 ADD PUSH2 0x228 SWAP1 PUSH2 0x10B2 JUMP JUMPDEST PUSH1 0x40 MLOAD DUP1 SWAP2 SUB SWAP1 REVERT JUMPDEST PUSH0 PUSH1 0x6 PUSH0 DUP2 DUP2 SWAP1 SLOAD SWAP1 PUSH2 0x100 EXP SWAP1 DIV PUSH1 0xFF AND DUP1 SWAP3 SWAP2 SWAP1 PUSH2 0x250 SWAP1 PUSH2 0x10FD JUMP JUMPDEST SWAP2 SWAP1 PUSH2 0x100 EXP DUP2 SLOAD DUP2 PUSH1 0xFF MUL NOT AND SWAP1 DUP4 PUSH1 0xFF AND MUL OR SWAP1 SSTORE POP SWAP1 POP PUSH1 0x40 MLOAD DUP1 PUSH1 0xA0 ADD PUSH1 0x40 MSTORE DUP1 DUP7 DUP2 MSTORE PUSH1 0x20 ADD DUP6 DUP2 MSTORE PUSH1 0x20 ADD DUP5 DUP2 MSTORE PUSH1 0x20 ADD PUSH0 PUSH1 0xFF AND DUP2 MSTORE PUSH1 0x20 ADD DUP4 DUP2 MSTORE POP PUSH1 0x4 PUSH0 DUP4 PUSH1 0xFF AND PUSH1 0xFF AND DUP2 MSTORE PUSH1 0x20 ADD SWAP1 DUP2 MSTORE PUSH1 0x20 ADD PUSH0 KECCAK256 PUSH0 DUP3 ADD MLOAD DUP2 PUSH0 ADD SWAP1 DUP2 PUSH2 0x2BE SWAP2 SWAP1 PUSH2 0x133C JUMP JUMPDEST POP PUSH1 0x20 DUP3 ADD MLOAD DUP2 PUSH1 0x1 ADD SWAP1 DUP2 PUSH2 0x2D4 SWAP2 SWAP1 PUSH2 0x133C JUMP JUMPDEST POP PUSH1 0x40 DUP3 ADD MLOAD DUP2 PUSH1 0x2 ADD SWAP1 DUP2 PUSH2 0x2EA SWAP2 SWAP1 PUSH2 0x133C JUMP JUMPDEST POP PUSH1 0x60 DUP3 ADD MLOAD DUP2 PUSH1 0x3 ADD PUSH0 PUSH2 0x100 EXP DUP2 SLOAD DUP2 PUSH1 0xFF MUL NOT AND SWAP1 DUP4 PUSH1 0xFF AND MUL OR SWAP1 SSTORE POP PUSH1 0x80 DUP3 ADD MLOAD DUP2 PUSH1 0x4 ADD SWAP1 DUP2 PUSH2 0x320 SWAP2 SWAP1 PUSH2 0x133C JUMP JUMPDEST POP SWAP1 POP POP POP POP POP POP POP JUMP JUMPDEST PUSH0 PUSH1 0x6 PUSH1 0x1 SWAP1 SLOAD SWAP1 PUSH2 0x100 EXP SWAP1 DIV PUSH1 0xFF AND SWAP1 POP SWAP1 JUMP JUMPDEST PUSH1 0x4 PUSH1 0x20 MSTORE DUP1 PUSH0 MSTORE PUSH1 0x40 PUSH0 KECCAK256 PUSH0 SWAP2 POP SWAP1 POP DUP1 PUSH0 ADD DUP1 SLOAD PUSH2 0x360 SWAP1 PUSH2 0x1152 JUMP JUMPDEST DUP1 PUSH1 0x1F ADD PUSH1 0x20 DUP1 SWAP2 DIV MUL PUSH1 0x20 ADD PUSH1 0x40 MLOAD SWAP1 DUP2 ADD PUSH1 0x40 MSTORE DUP1 SWAP3 SWAP2 SWAP1 DUP2 DUP2 MSTORE PUSH1 0x20 ADD DUP3 DUP1 SLOAD PUSH2 0x38C SWAP1 PUSH2 0x1152 JUMP JUMPDEST DUP1 ISZERO PUSH2 0x3D7 JUMPI DUP1 PUSH1 0x1F LT PUSH2 0x3AE JUMPI PUSH2 0x100 DUP1 DUP4 SLOAD DIV MUL DUP4 MSTORE SWAP2 PUSH1 0x20 ADD SWAP2 PUSH2 0x3D7 JUMP JUMPDEST DUP3 ADD SWAP2 SWAP1 PUSH0 MSTORE PUSH1 0x20 PUSH0 KECCAK256 SWAP1 JUMPDEST DUP2 SLOAD DUP2 MSTORE SWAP1 PUSH1 0x1 ADD SWAP1 PUSH1 0x20 ADD DUP1 DUP4 GT PUSH2 0x3BA JUMPI DUP3 SWAP1 SUB PUSH1 0x1F AND DUP3 ADD SWAP2 JUMPDEST POP POP POP POP POP SWAP1 DUP1 PUSH1 0x1 ADD DUP1 SLOAD PUSH2 0x3EC SWAP1 PUSH2 0x1152 JUMP JUMPDEST DUP1 PUSH1 0x1F ADD PUSH1 0x20 DUP1 SWAP2 DIV MUL PUSH1 0x20 ADD PUSH1 0x40 MLOAD SWAP1 DUP2 ADD PUSH1 0x40 MSTORE DUP1 SWAP3 SWAP2 SWAP1 DUP2 DUP2 MSTORE PUSH1 0x20 ADD DUP3 DUP1 SLOAD PUSH2 0x418 SWAP1 PUSH2 0x1152 JUMP JUMPDEST DUP1 ISZERO PUSH2 0x463 JUMPI DUP1 PUSH1 0x1F LT PUSH2 0x43A JUMPI PUSH2 0x100 DUP1 DUP4 SLOAD DIV MUL DUP4 MSTORE SWAP2 PUSH1 0x20 ADD SWAP2 PUSH2 0x463 JUMP JUMPDEST DUP3 ADD SWAP2 SWAP1 PUSH0 MSTORE PUSH1 0x20 PUSH0 KECCAK256 SWAP1 JUMPDEST DUP2 SLOAD DUP2 MSTORE SWAP1 PUSH1 0x1 ADD SWAP1 PUSH1 0x20 ADD DUP1 DUP4 GT PUSH2 0x446 JUMPI DUP3 SWAP1 SUB PUSH1 0x1F AND DUP3 ADD SWAP2 JUMPDEST POP POP POP POP POP SWAP1 DUP1 PUSH1 0x2 ADD DUP1 SLOAD PUSH2 0x478 SWAP1 PUSH2 0x1152 JUMP JUMPDEST DUP1 PUSH1 0x1F ADD PUSH1 0x20 DUP1 SWAP2 DIV MUL PUSH1 0x20 ADD PUSH1 0x40 MLOAD SWAP1 DUP2 ADD PUSH1 0x40 MSTORE DUP1 SWAP3 SWAP2 SWAP1 DUP2 DUP2 MSTORE PUSH1 0x20 ADD DUP3 DUP1 SLOAD PUSH2 0x4A4 SWAP1 PUSH2 0x1152 JUMP JUMPDEST DUP1 ISZERO PUSH2 0x4EF JUMPI DUP1 PUSH1 0x1F LT PUSH2 0x4C6 JUMPI PUSH2 0x100 DUP1 DUP4 SLOAD DIV MUL DUP4 MSTORE SWAP2 PUSH1 0x20 ADD SWAP2 PUSH2 0x4EF JUMP JUMPDEST DUP3 ADD SWAP2 SWAP1 PUSH0 MSTORE PUSH1 0x20 PUSH0 KECCAK256 SWAP1 JUMPDEST DUP2 SLOAD DUP2 MSTORE SWAP1 PUSH1 0x1 ADD SWAP1 PUSH1 0x20 ADD DUP1 DUP4 GT PUSH2 0x4D2 JUMPI DUP3 SWAP1 SUB PUSH1 0x1F AND DUP3 ADD SWAP2 JUMPDEST POP POP POP POP POP SWAP1 DUP1 PUSH1 0x3 ADD PUSH0 SWAP1 SLOAD SWAP1 PUSH2 0x100 EXP SWAP1 DIV PUSH1 0xFF AND SWAP1 DUP1 PUSH1 0x4 ADD DUP1 SLOAD PUSH2 0x516 SWAP1 PUSH2 0x1152 JUMP JUMPDEST DUP1 PUSH1 0x1F ADD PUSH1 0x20 DUP1 SWAP2 DIV MUL PUSH1 0x20 ADD PUSH1 0x40 MLOAD SWAP1 DUP2 ADD PUSH1 0x40 MSTORE DUP1 SWAP3 SWAP2 SWAP1 DUP2 DUP2 MSTORE PUSH1 0x20 ADD DUP3 DUP1 SLOAD PUSH2 0x542 SWAP1 PUSH2 0x1152 JUMP JUMPDEST DUP1 ISZERO PUSH2 0x58D JUMPI DUP1 PUSH1 0x1F LT PUSH2 0x564 JUMPI PUSH2 0x100 DUP1 DUP4 SLOAD DIV MUL DUP4 MSTORE SWAP2 PUSH1 0x20 ADD SWAP2 PUSH2 0x58D JUMP JUMPDEST DUP3 ADD SWAP2 SWAP1 PUSH0 MSTORE PUSH1 0x20 PUSH0 KECCAK256 SWAP1 JUMPDEST DUP2 SLOAD DUP2 MSTORE SWAP1 PUSH1 0x1 ADD SWAP1 PUSH1 0x20 ADD DUP1 DUP4 GT PUSH2 0x570 JUMPI DUP3 SWAP1 SUB PUSH1 0x1F AND DUP3 ADD SWAP2 JUMPDEST POP POP POP POP POP SWAP1 POP DUP6 JUMP JUMPDEST PUSH0 PUSH0 PUSH0 SWAP1 SLOAD SWAP1 PUSH2 0x100 EXP SWAP1 DIV PUSH20 0xFFFFFFFFFFFFFFFFFFFFFFFFFFFFFFFFFFFFFFFF AND PUSH20 0xFFFFFFFFFFFFFFFFFFFFFFFFFFFFFFFFFFFFFFFF AND CALLER PUSH20 0xFFFFFFFFFFFFFFFFFFFFFFFFFFFFFFFFFFFFFFFF AND EQ PUSH2 0x626 JUMPI PUSH1 0x40 MLOAD PUSH32 0x8C379A000000000000000000000000000000000000000000000000000000000 DUP2 MSTORE PUSH1 0x4 ADD PUSH2 0x61D SWAP1 PUSH2 0x10B2 JUMP JUMPDEST PUSH1 0x40 MLOAD DUP1 SWAP2 SUB SWAP1 REVERT JUMPDEST PUSH0 PUSH1 0x4 PUSH0 PUSH0 PUSH1 0xFF AND DUP2 MSTORE PUSH1 0x20 ADD SWAP1 DUP2 MSTORE PUSH1 0x20 ADD PUSH0 KECCAK256 PUSH1 0x3 ADD PUSH0 SWAP1 SLOAD SWAP1 PUSH2 0x100 EXP SWAP1 DIV PUSH1 0xFF AND SWAP1 POP PUSH0 PUSH0 PUSH1 0x1 SWAP1 POP JUMPDEST PUSH1 0x6 PUSH0 SWAP1 SLOAD SWAP1 PUSH2 0x100 EXP SWAP1 DIV PUSH1 0xFF AND PUSH1 0xFF AND DUP2 PUSH1 0xFF AND LT ISZERO PUSH2 0x6DE JUMPI PUSH1 0x4 PUSH0 DUP3 PUSH1 0xFF AND PUSH1 0xFF AND DUP2 MSTORE PUSH1 0x20 ADD SWAP1 DUP2 MSTORE PUSH1 0x20 ADD PUSH0 KECCAK256 PUSH1 0x3 ADD PUSH0 SWAP1 SLOAD SWAP1 PUSH2 0x100 EXP SWAP1 DIV PUSH1 0xFF AND PUSH1 0xFF AND DUP4 PUSH1 0xFF AND LT ISZERO PUSH2 0x6D1 JUMPI PUSH1 0x4 PUSH0 DUP3 PUSH1 0xFF AND PUSH1 0xFF AND DUP2 MSTORE PUSH1 0x20 ADD SWAP1 DUP2 MSTORE PUSH1 0x20 ADD PUSH0 KECCAK256 PUSH1 0x3 ADD PUSH0 SWAP1 SLOAD SWAP1 PUSH2 0x100 EXP SWAP1 DIV PUSH1 0xFF AND SWAP3 POP DUP1 SWAP2 POP JUMPDEST DUP1 DUP1 PUSH1 0x1 ADD SWAP2 POP POP PUSH2 0x654 JUMP JUMPDEST POP DUP1 SWAP3 POP POP POP SWAP1 JUMP JUMPDEST PUSH1 0x5 DUP2 PUSH1 0x40 MLOAD PUSH2 0x6F7 SWAP2 SWAP1 PUSH2 0x1445 JUMP JUMPDEST SWAP1 DUP2 MSTORE PUSH1 0x20 ADD PUSH1 0x40 MLOAD DUP1 SWAP2 SUB SWAP1 KECCAK256 PUSH0 ADD PUSH1 0x1 SWAP1 SLOAD SWAP1 PUSH2 0x100 EXP SWAP1 DIV PUSH1 0xFF AND ISZERO PUSH2 0x755 JUMPI PUSH1 0x40 MLOAD PUSH32 0x8C379A000000000000000000000000000000000000000000000000000000000 DUP2 MSTORE PUSH1 0x4 ADD PUSH2 0x74C SWAP1 PUSH2 0x14A5 JUMP JUMPDEST PUSH1 0x40 MLOAD DUP1 SWAP2 SUB SWAP1 REVERT JUMPDEST PUSH1 0x40 MLOAD DUP1 PUSH1 0x40 ADD PUSH1 0x40 MSTORE DUP1 DUP4 PUSH1 0xFF AND DUP2 MSTORE PUSH1 0x20 ADD PUSH1 0x1 ISZERO ISZERO DUP2 MSTORE POP PUSH1 0x5 DUP3 PUSH1 0x40 MLOAD PUSH2 0x780 SWAP2 SWAP1 PUSH2 0x1445 JUMP JUMPDEST SWAP1 DUP2 MSTORE PUSH1 0x20 ADD PUSH1 0x40 MLOAD DUP1 SWAP2 SUB SWAP1 KECCAK256 PUSH0 DUP3 ADD MLOAD DUP2 PUSH0 ADD PUSH0 PUSH2 0x100 EXP DUP2 SLOAD DUP2 PUSH1 0xFF MUL NOT AND SWAP1 DUP4 PUSH1 0xFF AND MUL OR SWAP1 SSTORE POP PUSH1 0x20 DUP3 ADD MLOAD DUP2 PUSH0 ADD PUSH1 0x1 PUSH2 0x100 EXP DUP2 SLOAD DUP2 PUSH1 0xFF MUL NOT AND SWAP1 DUP4 ISZERO ISZERO MUL OR SWAP1 SSTORE POP SWAP1 POP POP PUSH1 0x6 PUSH1 0x1 DUP2 DUP2 SWAP1 SLOAD SWAP1 PUSH2 0x100 EXP SWAP1 DIV PUSH1 0xFF AND DUP1 SWAP3 SWAP2 SWAP1 PUSH2 0x7ED SWAP1 PUSH2 0x10FD JUMP JUMPDEST SWAP2 SWAP1 PUSH2 0x100 EXP DUP2 SLOAD DUP2 PUSH1 0xFF MUL NOT AND SWAP1 DUP4 PUSH1 0xFF AND MUL OR SWAP1 SSTORE POP POP PUSH1 0x4 PUSH0 DUP4 PUSH1 0xFF AND PUSH1 0xFF AND DUP2 MSTORE PUSH1 0x20 ADD SWAP1 DUP2 MSTORE PUSH1 0x20 ADD PUSH0 KECCAK256 PUSH1 0x3 ADD PUSH0 DUP2 DUP2 SWAP1 SLOAD SWAP1 PUSH2 0x100 EXP SWAP1 DIV PUSH1 0xFF AND DUP1 SWAP3 SWAP2 SWAP1 PUSH2 0x83C SWAP1 PUSH2 0x10FD JUMP JUMPDEST SWAP2 SWAP1 PUSH2 0x100 EXP DUP2 SLOAD DUP2 PUSH1 0xFF MUL NOT AND SWAP1 DUP4 PUSH1 0xFF AND MUL OR SWAP1 SSTORE POP POP POP POP JUMP JUMPDEST PUSH1 0x60 DUP1 PUSH1 0x60 PUSH0 PUSH1 0x60 PUSH1 0x4 PUSH0 DUP8 PUSH1 0xFF AND PUSH1 0xFF AND DUP2 MSTORE PUSH1 0x20 ADD SWAP1 DUP2 MSTORE PUSH1 0x20 ADD PUSH0 KECCAK256 PUSH0 ADD PUSH1 0x4 PUSH0 DUP9 PUSH1 0xFF AND PUSH1 0xFF AND DUP2 MSTORE PUSH1 0x20 ADD SWAP1 DUP2 MSTORE PUSH1 0x20 ADD PUSH0 KECCAK256 PUSH1 0x1 ADD PUSH1 0x4 PUSH0 DUP10 PUSH1 0xFF AND PUSH1 0xFF AND DUP2 MSTORE PUSH1 0x20 ADD SWAP1 DUP2 MSTORE PUSH1 0x20 ADD PUSH0 KECCAK256 PUSH1 0x2 ADD PUSH1 0x4 PUSH0 DUP11 PUSH1 0xFF AND PUSH1 0xFF AND DUP2 MSTORE PUSH1 0x20 ADD SWAP1 DUP2 MSTORE PUSH1 0x20 ADD PUSH0 KECCAK256 PUSH1 0x3 ADD PUSH0 SWAP1 SLOAD SWAP1 PUSH2 0x100 EXP SWAP1 DIV PUSH1 0xFF AND PUSH1 0x4 PUSH0 DUP12 PUSH1 0xFF AND PUSH1 0xFF AND DUP2 MSTORE PUSH1 0x20 ADD SWAP1 DUP2 MSTORE PUSH1 0x20 ADD PUSH0 KECCAK256 PUSH1 0x4 ADD DUP5 DUP1 SLOAD PUSH2 0x8FB SWAP1 PUSH2 0x1152 JUMP JUMPDEST DUP1 PUSH1 0x1F ADD PUSH1 0x20 DUP1 SWAP2 DIV MUL PUSH1 0x20 ADD PUSH1 0x40 MLOAD SWAP1 DUP2 ADD PUSH1 0x40 MSTORE DUP1 SWAP3 SWAP2 SWAP1 DUP2 DUP2 MSTORE PUSH1 0x20 ADD DUP3 DUP1 SLOAD PUSH2 0x927 SWAP1 PUSH2 0x1152 JUMP JUMPDEST DUP1 ISZERO PUSH2 0x972 JUMPI DUP1 PUSH1 0x1F LT PUSH2 0x949 JUMPI PUSH2 0x100 DUP1 DUP4 SLOAD DIV MUL DUP4 MSTORE SWAP2 PUSH1 0x20 ADD SWAP2 PUSH2 0x972 JUMP JUMPDEST DUP3 ADD SWAP2 SWAP1 PUSH0 MSTORE PUSH1 0x20 PUSH0 KECCAK256 SWAP1 JUMPDEST DUP2 SLOAD DUP2 MSTORE SWAP1 PUSH1 0x1 ADD SWAP1 PUSH1 0x20 ADD DUP1 DUP4 GT PUSH2 0x955 JUMPI DUP3 SWAP1 SUB PUSH1 0x1F AND DUP3 ADD SWAP2 JUMPDEST POP POP POP POP POP SWAP5 POP DUP4 DUP1 SLOAD PUSH2 0x985 SWAP1 PUSH2 0x1152 JUMP JUMPDEST DUP1 PUSH1 0x1F ADD PUSH1 0x20 DUP1 SWAP2 DIV MUL PUSH1 0x20 ADD PUSH1 0x40 MLOAD SWAP1 DUP2 ADD PUSH1 0x40 MSTORE DUP1 SWAP3 SWAP2 SWAP1 DUP2 DUP2 MSTORE PUSH1 0x20 ADD DUP3 DUP1 SLOAD PUSH2 0x9B1 SWAP1 PUSH2 0x1152 JUMP JUMPDEST DUP1 ISZERO PUSH2 0x9FC JUMPI DUP1 PUSH1 0x1F LT PUSH2 0x9D3 JUMPI PUSH2 0x100 DUP1 DUP4 SLOAD DIV MUL DUP4 MSTORE SWAP2 PUSH1 0x20 ADD SWAP2 PUSH2 0x9FC JUMP JUMPDEST DUP3 ADD SWAP2 SWAP1 PUSH0 MSTORE PUSH1 0x20 PUSH0 KECCAK256 SWAP1 JUMPDEST DUP2 SLOAD DUP2 MSTORE SWAP1 PUSH1 0x1 ADD SWAP1 PUSH1 0x20 ADD DUP1 DUP4 GT PUSH2 0x9DF JUMPI DUP3 SWAP1 SUB PUSH1 0x1F AND DUP3 ADD SWAP2 JUMPDEST POP POP POP POP POP SWAP4 POP DUP3 DUP1 SLOAD PUSH2 0xA0F SWAP1 PUSH2 0x1152 JUMP JUMPDEST DUP1 PUSH1 0x1F ADD PUSH1 0x20 DUP1 SWAP2 DIV MUL PUSH1 0x20 ADD PUSH1 0x40 MLOAD SWAP1 DUP2 ADD PUSH1 0x40 MSTORE DUP1 SWAP3 SWAP2 SWAP1 DUP2 DUP2 MSTORE PUSH1 0x20 ADD DUP3 DUP1 SLOAD PUSH2 0xA3B SWAP1 PUSH2 0x1152 JUMP JUMPDEST DUP1 ISZERO PUSH2 0xA86 JUMPI DUP1 PUSH1 0x1F LT PUSH2 0xA5D JUMPI PUSH2 0x100 DUP1 DUP4 SLOAD DIV MUL DUP4 MSTORE SWAP2 PUSH1 0x20 ADD SWAP2 PUSH2 0xA86 JUMP JUMPDEST DUP3 ADD SWAP2 SWAP1 PUSH0 MSTORE PUSH1 0x20 PUSH0 KECCAK256 SWAP1 JUMPDEST DUP2 SLOAD DUP2 MSTORE SWAP1 PUSH1 0x1 ADD SWAP1 PUSH1 0x20 ADD DUP1 DUP4 GT PUSH2 0xA69 JUMPI DUP3 SWAP1 SUB PUSH1 0x1F AND DUP3 ADD SWAP2 JUMPDEST POP POP POP POP POP SWAP3 POP DUP1 DUP1 SLOAD PUSH2 0xA99 SWAP1 PUSH2 0x1152 JUMP JUMPDEST DUP1 PUSH1 0x1F ADD PUSH1 0x20 DUP1 SWAP2 DIV MUL PUSH1 0x20 ADD PUSH1 0x40 MLOAD SWAP1 DUP2 ADD PUSH1 0x40 MSTORE DUP1 SWAP3 SWAP2 SWAP1 DUP2 DUP2 MSTORE PUSH1 0x20 ADD DUP3 DUP1 SLOAD PUSH2 0xAC5 SWAP1 PUSH2 0x1152 JUMP JUMPDEST DUP1 ISZERO PUSH2 0xB10 JUMPI DUP1 PUSH1 0x1F LT PUSH2 0xAE7 JUMPI PUSH2 0x100 DUP1 DUP4 SLOAD DIV MUL DUP4 MSTORE SWAP2 PUSH1 0x20 ADD SWAP2 PUSH2 0xB10 JUMP JUMPDEST DUP3 ADD SWAP2 SWAP1 PUSH0 MSTORE PUSH1 0x20 PUSH0 KECCAK256 SWAP1 JUMPDEST DUP2 SLOAD DUP2 MSTORE SWAP1 PUSH1 0x1 ADD SWAP1 PUSH1 0x20 ADD DUP1 DUP4 GT PUSH2 0xAF3 JUMPI DUP3 SWAP1 SUB PUSH1 0x1F AND DUP3 ADD SWAP2 JUMPDEST POP POP POP POP POP SWAP1 POP SWAP5 POP SWAP5 POP SWAP5 POP SWAP5 POP SWAP5 POP SWAP2 SWAP4 SWAP6 SWAP1 SWAP3 SWAP5 POP JUMP JUMPDEST PUSH0 PUSH1 0x6 PUSH0 SWAP1 SLOAD SWAP1 PUSH2 0x100 EXP SWAP1 DIV PUSH1 0xFF AND SWAP1 POP SWAP1 JUMP JUMPDEST PUSH1 0x60 DUP1 PUSH1 0x1 PUSH1 0x2 DUP2 DUP1 SLOAD PUSH2 0xB52 SWAP1 PUSH2 0x1152 JUMP JUMPDEST DUP1 PUSH1 0x1F ADD PUSH1 0x20 DUP1 SWAP2 DIV MUL PUSH1 0x20 ADD PUSH1 0x40 MLOAD SWAP1 DUP2 ADD PUSH1 0x40 MSTORE DUP1 SWAP3 SWAP2 SWAP1 DUP2 DUP2 MSTORE PUSH1 0x20 ADD DUP3 DUP1 SLOAD PUSH2 0xB7E SWAP1 PUSH2 0x1152 JUMP JUMPDEST DUP1 ISZERO PUSH2 0xBC9 JUMPI DUP1 PUSH1 0x1F LT PUSH2 0xBA0 JUMPI PUSH2 0x100 DUP1 DUP4 SLOAD DIV MUL DUP4 MSTORE SWAP2 PUSH1 0x20 ADD SWAP2 PUSH2 0xBC9 JUMP JUMPDEST DUP3 ADD SWAP2 SWAP1 PUSH0 MSTORE PUSH1 0x20 PUSH0 KECCAK256 SWAP1 JUMPDEST DUP2 SLOAD DUP2 MSTORE SWAP1 PUSH1 0x1 ADD SWAP1 PUSH1 0x20 ADD DUP1 DUP4 GT PUSH2 0xBAC JUMPI DUP3 SWAP1 SUB PUSH1 0x1F AND DUP3 ADD SWAP2 JUMPDEST POP POP POP POP POP SWAP2 POP DUP1 DUP1 SLOAD PUSH2 0xBDC SWAP1 PUSH2 0x1152 JUMP JUMPDEST DUP1 PUSH1 0x1F ADD PUSH1 0x20 DUP1 SWAP2 DIV MUL PUSH1 0x20 ADD PUSH1 0x40 MLOAD SWAP1 DUP2 ADD PUSH1 0x40 MSTORE DUP1 SWAP3 SWAP2 SWAP1 DUP2 DUP2 MSTORE PUSH1 0x20 ADD DUP3 DUP1 SLOAD PUSH2 0xC08 SWAP1 PUSH2 0x1152 JUMP JUMPDEST DUP1 ISZERO PUSH2 0xC53 JUMPI DUP1 PUSH1 0x1F LT PUSH2 0xC2A JUMPI PUSH2 0x100 DUP1 DUP4 SLOAD DIV MUL DUP4 MSTORE SWAP2 PUSH1 0x20 ADD SWAP2 PUSH2 0xC53 JUMP JUMPDEST DUP3 ADD SWAP2 SWAP1 PUSH0 MSTORE PUSH1 0x20 PUSH0 KECCAK256 SWAP1 JUMPDEST DUP2 SLOAD DUP2 MSTORE SWAP1 PUSH1 0x1 ADD SWAP1 PUSH1 0x20 ADD DUP1 DUP4 GT PUSH2 0xC36 JUMPI DUP3 SWAP1 SUB PUSH1 0x1F AND DUP3 ADD SWAP2 JUMPDEST POP POP POP POP POP SWAP1 POP SWAP2 POP SWAP2 POP SWAP1 SWAP2 JUMP JUMPDEST PUSH0 PUSH1 0x40 MLOAD SWAP1 POP SWAP1 JUMP JUMPDEST PUSH0 PUSH0 REVERT JUMPDEST PUSH0 PUSH0 REVERT JUMPDEST PUSH0 PUSH0 REVERT JUMPDEST PUSH0 PUSH0 REVERT JUMPDEST PUSH0 PUSH1 0x1F NOT PUSH1 0x1F DUP4 ADD AND SWAP1 POP SWAP2 SWAP1 POP JUMP JUMPDEST PUSH32 0x4E487B7100000000000000000000000000000000000000000000000000000000 PUSH0 MSTORE PUSH1 0x41 PUSH1 0x4 MSTORE PUSH1 0x24 PUSH0 REVERT JUMPDEST PUSH2 0xCC1 DUP3 PUSH2 0xC7B JUMP JUMPDEST DUP2 ADD DUP2 DUP2 LT PUSH8 0xFFFFFFFFFFFFFFFF DUP3 GT OR ISZERO PUSH2 0xCE0 JUMPI PUSH2 0xCDF PUSH2 0xC8B JUMP JUMPDEST JUMPDEST DUP1 PUSH1 0x40 MSTORE POP POP POP JUMP JUMPDEST PUSH0 PUSH2 0xCF2 PUSH2 0xC62 JUMP JUMPDEST SWAP1 POP PUSH2 0xCFE DUP3 DUP3 PUSH2 0xCB8 JUMP JUMPDEST SWAP2 SWAP1 POP JUMP JUMPDEST PUSH0 PUSH8 0xFFFFFFFFFFFFFFFF DUP3 GT ISZERO PUSH2 0xD1D JUMPI PUSH2 0xD1C PUSH2 0xC8B JUMP JUMPDEST JUMPDEST PUSH2 0xD26 DUP3 PUSH2 0xC7B JUMP JUMPDEST SWAP1 POP PUSH1 0x20 DUP2 ADD SWAP1 POP SWAP2 SWAP1 POP JUMP JUMPDEST DUP3 DUP2 DUP4 CALLDATACOPY PUSH0 DUP4 DUP4 ADD MSTORE POP POP POP JUMP JUMPDEST PUSH0 PUSH2 0xD53 PUSH2 0xD4E DUP5 PUSH2 0xD03 JUMP JUMPDEST PUSH2 0xCE9 JUMP JUMPDEST SWAP1 POP DUP3 DUP2 MSTORE PUSH1 0x20 DUP2 ADD DUP5 DUP5 DUP5 ADD GT ISZERO PUSH2 0xD6F JUMPI PUSH2 0xD6E PUSH2 0xC77 JUMP JUMPDEST JUMPDEST PUSH2 0xD7A DUP5 DUP3 DUP6 PUSH2 0xD33 JUMP JUMPDEST POP SWAP4 SWAP3 POP POP POP JUMP JUMPDEST PUSH0 DUP3 PUSH1 0x1F DUP4 ADD SLT PUSH2 0xD96 JUMPI PUSH2 0xD95 PUSH2 0xC73 JUMP JUMPDEST JUMPDEST DUP2 CALLDATALOAD PUSH2 0xDA6 DUP5 DUP3 PUSH1 0x20 DUP7 ADD PUSH2 0xD41 JUMP JUMPDEST SWAP2 POP POP SWAP3 SWAP2 POP POP JUMP JUMPDEST PUSH0 PUSH0 PUSH0 PUSH0 PUSH1 0x80 DUP6 DUP8 SUB SLT ISZERO PUSH2 0xDC7 JUMPI PUSH2 0xDC6 PUSH2 0xC6B JUMP JUMPDEST JUMPDEST PUSH0 DUP6 ADD CALLDATALOAD PUSH8 0xFFFFFFFFFFFFFFFF DUP2 GT ISZERO PUSH2 0xDE4 JUMPI PUSH2 0xDE3 PUSH2 0xC6F JUMP JUMPDEST JUMPDEST PUSH2 0xDF0 DUP8 DUP3 DUP9 ADD PUSH2 0xD82 JUMP JUMPDEST SWAP5 POP POP PUSH1 0x20 DUP6 ADD CALLDATALOAD PUSH8 0xFFFFFFFFFFFFFFFF DUP2 GT ISZERO PUSH2 0xE11 JUMPI PUSH2 0xE10 PUSH2 0xC6F JUMP JUMPDEST JUMPDEST PUSH2 0xE1D DUP8 DUP3 DUP9 ADD PUSH2 0xD82 JUMP JUMPDEST SWAP4 POP POP PUSH1 0x40 DUP6 ADD CALLDATALOAD PUSH8 0xFFFFFFFFFFFFFFFF DUP2 GT ISZERO PUSH2 0xE3E JUMPI PUSH2 0xE3D PUSH2 0xC6F JUMP JUMPDEST JUMPDEST PUSH2 0xE4A DUP8 DUP3 DUP9 ADD PUSH2 0xD82 JUMP JUMPDEST SWAP3 POP POP PUSH1 0x60 DUP6 ADD CALLDATALOAD PUSH8 0xFFFFFFFFFFFFFFFF DUP2 GT ISZERO PUSH2 0xE6B JUMPI PUSH2 0xE6A PUSH2 0xC6F JUMP JUMPDEST JUMPDEST PUSH2 0xE77 DUP8 DUP3 DUP9 ADD PUSH2 0xD82 JUMP JUMPDEST SWAP2 POP POP SWAP3 SWAP6 SWAP2 SWAP5 POP SWAP3 POP JUMP JUMPDEST PUSH0 PUSH1 0xFF DUP3 AND SWAP1 POP SWAP2 SWAP1 POP JUMP JUMPDEST PUSH2 0xE98 DUP2 PUSH2 0xE83 JUMP JUMPDEST DUP3 MSTORE POP POP JUMP JUMPDEST PUSH0 PUSH1 0x20 DUP3 ADD SWAP1 POP PUSH2 0xEB1 PUSH0 DUP4 ADD DUP5 PUSH2 0xE8F JUMP JUMPDEST SWAP3 SWAP2 POP POP JUMP JUMPDEST PUSH2 0xEC0 DUP2 PUSH2 0xE83 JUMP JUMPDEST DUP2 EQ PUSH2 0xECA JUMPI PUSH0 PUSH0 REVERT JUMPDEST POP JUMP JUMPDEST PUSH0 DUP2 CALLDATALOAD SWAP1 POP PUSH2 0xEDB DUP2 PUSH2 0xEB7 JUMP JUMPDEST SWAP3 SWAP2 POP POP JUMP JUMPDEST PUSH0 PUSH1 0x20 DUP3 DUP5 SUB SLT ISZERO PUSH2 0xEF6 JUMPI PUSH2 0xEF5 PUSH2 0xC6B JUMP JUMPDEST JUMPDEST PUSH0 PUSH2 0xF03 DUP5 DUP3 DUP6 ADD PUSH2 0xECD JUMP JUMPDEST SWAP2 POP POP SWAP3 SWAP2 POP POP JUMP JUMPDEST PUSH0 DUP2 MLOAD SWAP1 POP SWAP2 SWAP1 POP JUMP JUMPDEST PUSH0 DUP3 DUP3 MSTORE PUSH1 0x20 DUP3 ADD SWAP1 POP SWAP3 SWAP2 POP POP JUMP JUMPDEST DUP3 DUP2 DUP4 MCOPY PUSH0 DUP4 DUP4 ADD MSTORE POP POP POP JUMP JUMPDEST PUSH0 PUSH2 0xF3E DUP3 PUSH2 0xF0C JUMP JUMPDEST PUSH2 0xF48 DUP2 DUP6 PUSH2 0xF16 JUMP JUMPDEST SWAP4 POP PUSH2 0xF58 DUP2 DUP6 PUSH1 0x20 DUP7 ADD PUSH2 0xF26 JUMP JUMPDEST PUSH2 0xF61 DUP2 PUSH2 0xC7B JUMP JUMPDEST DUP5 ADD SWAP2 POP POP SWAP3 SWAP2 POP POP JUMP JUMPDEST PUSH0 PUSH1 0xA0 DUP3 ADD SWAP1 POP DUP2 DUP2 SUB PUSH0 DUP4 ADD MSTORE PUSH2 0xF84 DUP2 DUP9 PUSH2 0xF34 JUMP JUMPDEST SWAP1 POP DUP2 DUP2 SUB PUSH1 0x20 DUP4 ADD MSTORE PUSH2 0xF98 DUP2 DUP8 PUSH2 0xF34 JUMP JUMPDEST SWAP1 POP DUP2 DUP2 SUB PUSH1 0x40 DUP4 ADD MSTORE PUSH2 0xFAC DUP2 DUP7 PUSH2 0xF34 JUMP JUMPDEST SWAP1 POP PUSH2 0xFBB PUSH1 0x60 DUP4 ADD DUP6 PUSH2 0xE8F JUMP JUMPDEST DUP2 DUP2 SUB PUSH1 0x80 DUP4 ADD MSTORE PUSH2 0xFCD DUP2 DUP5 PUSH2 0xF34 JUMP JUMPDEST SWAP1 POP SWAP7 SWAP6 POP POP POP POP POP POP JUMP JUMPDEST PUSH0 PUSH0 PUSH1 0x40 DUP4 DUP6 SUB SLT ISZERO PUSH2 0xFEF JUMPI PUSH2 0xFEE PUSH2 0xC6B JUMP JUMPDEST JUMPDEST PUSH0 PUSH2 0xFFC DUP6 DUP3 DUP7 ADD PUSH2 0xECD JUMP JUMPDEST SWAP3 POP POP PUSH1 0x20 DUP4 ADD CALLDATALOAD PUSH8 0xFFFFFFFFFFFFFFFF DUP2 GT ISZERO PUSH2 0x101D JUMPI PUSH2 0x101C PUSH2 0xC6F JUMP JUMPDEST JUMPDEST PUSH2 0x1029 DUP6 DUP3 DUP7 ADD PUSH2 0xD82 JUMP JUMPDEST SWAP2 POP POP SWAP3 POP SWAP3 SWAP1 POP JUMP JUMPDEST PUSH0 PUSH1 0x40 DUP3 ADD SWAP1 POP DUP2 DUP2 SUB PUSH0 DUP4 ADD MSTORE PUSH2 0x104B DUP2 DUP6 PUSH2 0xF34 JUMP JUMPDEST SWAP1 POP DUP2 DUP2 SUB PUSH1 0x20 DUP4 ADD MSTORE PUSH2 0x105F DUP2 DUP5 PUSH2 0xF34 JUMP JUMPDEST SWAP1 POP SWAP4 SWAP3 POP POP POP JUMP JUMPDEST PUSH32 0x4572726F723A204163636573732044656E6965642E0000000000000000000000 PUSH0 DUP3 ADD MSTORE POP JUMP JUMPDEST PUSH0 PUSH2 0x109C PUSH1 0x15 DUP4 PUSH2 0xF16 JUMP JUMPDEST SWAP2 POP PUSH2 0x10A7 DUP3 PUSH2 0x1068 JUMP JUMPDEST PUSH1 0x20 DUP3 ADD SWAP1 POP SWAP2 SWAP1 POP JUMP JUMPDEST PUSH0 PUSH1 0x20 DUP3 ADD SWAP1 POP DUP2 DUP2 SUB PUSH0 DUP4 ADD MSTORE PUSH2 0x10C9 DUP2 PUSH2 0x1090 JUMP JUMPDEST SWAP1 POP SWAP2 SWAP1 POP JUMP JUMPDEST PUSH32 0x4E487B7100000000000000000000000000000000000000000000000000000000 PUSH0 MSTORE PUSH1 0x11 PUSH1 0x4 MSTORE PUSH1 0x24 PUSH0 REVERT JUMPDEST PUSH0 PUSH2 0x1107 DUP3 PUSH2 0xE83 JUMP JUMPDEST SWAP2 POP PUSH1 0xFF DUP3 SUB PUSH2 0x111A JUMPI PUSH2 0x1119 PUSH2 0x10D0 JUMP JUMPDEST JUMPDEST PUSH1 0x1 DUP3 ADD SWAP1 POP SWAP2 SWAP1 POP JUMP JUMPDEST PUSH32 0x4E487B7100000000000000000000000000000000000000000000000000000000 PUSH0 MSTORE PUSH1 0x22 PUSH1 0x4 MSTORE PUSH1 0x24 PUSH0 REVERT JUMPDEST PUSH0 PUSH1 0x2 DUP3 DIV SWAP1 POP PUSH1 0x1 DUP3 AND DUP1 PUSH2 0x1169 JUMPI PUSH1 0x7F DUP3 AND SWAP2 POP JUMPDEST PUSH1 0x20 DUP3 LT DUP2 SUB PUSH2 0x117C JUMPI PUSH2 0x117B PUSH2 0x1125 JUMP JUMPDEST JUMPDEST POP SWAP2 SWAP1 POP JUMP JUMPDEST PUSH0 DUP2 SWAP1 POP DUP2 PUSH0 MSTORE PUSH1 0x20 PUSH0 KECCAK256 SWAP1 POP SWAP2 SWAP1 POP JUMP JUMPDEST PUSH0 PUSH1 0x20 PUSH1 0x1F DUP4 ADD DIV SWAP1 POP SWAP2 SWAP1 POP JUMP JUMPDEST PUSH0 DUP3 DUP3 SHL SWAP1 POP SWAP3 SWAP2 POP POP JUMP JUMPDEST PUSH0 PUSH1 0x8 DUP4 MUL PUSH2 0x11DE PUSH32 0xFFFFFFFFFFFFFFFFFFFFFFFFFFFFFFFFFFFFFFFFFFFFFFFFFFFFFFFFFFFFFFFF DUP3 PUSH2 0x11A3 JUMP JUMPDEST PUSH2 0x11E8 DUP7 DUP4 PUSH2 0x11A3 JUMP JUMPDEST SWAP6 POP DUP1 NOT DUP5 AND SWAP4 POP DUP1 DUP7 AND DUP5 OR SWAP3 POP POP POP SWAP4 SWAP3 POP POP POP JUMP JUMPDEST PUSH0 DUP2 SWAP1 POP SWAP2 SWAP1 POP JUMP JUMPDEST PUSH0 DUP2 SWAP1 POP SWAP2 SWAP1 POP JUMP JUMPDEST PUSH0 PUSH2 0x122C PUSH2 0x1227 PUSH2 0x1222 DUP5 PUSH2 0x1200 JUMP JUMPDEST PUSH2 0x1209 JUMP JUMPDEST PUSH2 0x1200 JUMP JUMPDEST SWAP1 POP SWAP2 SWAP1 POP JUMP JUMPDEST PUSH0 DUP2 SWAP1 POP SWAP2 SWAP1 POP JUMP JUMPDEST PUSH2 0x1245 DUP4 PUSH2 0x1212 JUMP JUMPDEST PUSH2 0x1259 PUSH2 0x1251 DUP3 PUSH2 0x1233 JUMP JUMPDEST DUP5 DUP5 SLOAD PUSH2 0x11AF JUMP JUMPDEST DUP3 SSTORE POP POP POP POP JUMP JUMPDEST PUSH0 PUSH0 SWAP1 POP SWAP1 JUMP JUMPDEST PUSH2 0x1270 PUSH2 0x1261 JUMP JUMPDEST PUSH2 0x127B DUP2 DUP5 DUP5 PUSH2 0x123C JUMP JUMPDEST POP POP POP JUMP JUMPDEST PUSH0 JUMPDEST DUP3 DUP2 LT ISZERO PUSH2 0x12A1 JUMPI PUSH2 0x1296 PUSH0 DUP3 DUP5 ADD PUSH2 0x1268 JUMP JUMPDEST PUSH1 0x1 DUP2 ADD SWAP1 POP PUSH2 0x1282 JUMP JUMPDEST POP POP POP JUMP JUMPDEST PUSH1 0x1F DUP3 GT ISZERO PUSH2 0x12F4 JUMPI DUP3 DUP3 GT ISZERO PUSH2 0x12F3 JUMPI PUSH2 0x12C0 DUP2 PUSH2 0x1182 JUMP JUMPDEST PUSH2 0x12C9 DUP4 PUSH2 0x1194 JUMP JUMPDEST PUSH2 0x12D2 DUP6 PUSH2 0x1194 JUMP JUMPDEST PUSH1 0x20 DUP7 LT ISZERO PUSH2 0x12DF JUMPI PUSH0 SWAP1 POP JUMPDEST DUP1 DUP4 ADD PUSH2 0x12EE DUP3 DUP5 SUB DUP3 PUSH2 0x1280 JUMP JUMPDEST POP POP POP POP JUMPDEST JUMPDEST POP POP POP JUMP JUMPDEST PUSH0 DUP3 DUP3 SHR SWAP1 POP SWAP3 SWAP2 POP POP JUMP JUMPDEST PUSH0 PUSH2 0x1314 PUSH0 NOT DUP5 PUSH1 0x8 MUL PUSH2 0x12F9 JUMP JUMPDEST NOT DUP1 DUP4 AND SWAP2 POP POP SWAP3 SWAP2 POP POP JUMP JUMPDEST PUSH0 PUSH2 0x132C DUP4 DUP4 PUSH2 0x1305 JUMP JUMPDEST SWAP2 POP DUP3 PUSH1 0x2 MUL DUP3 OR SWAP1 POP SWAP3 SWAP2 POP POP JUMP JUMPDEST PUSH2 0x1345 DUP3 PUSH2 0xF0C JUMP JUMPDEST PUSH8 0xFFFFFFFFFFFFFFFF DUP2 GT ISZERO PUSH2 0x135E JUMPI PUSH2 0x135D PUSH2 0xC8B JUMP JUMPDEST JUMPDEST PUSH2 0x1368 DUP3 SLOAD PUSH2 0x1152 JUMP JUMPDEST PUSH2 0x1373 DUP3 DUP3 DUP6 PUSH2 0x12A6 JUMP JUMPDEST PUSH0 PUSH1 0x20 SWAP1 POP PUSH1 0x1F DUP4 GT PUSH1 0x1 DUP2 EQ PUSH2 0x13A4 JUMPI PUSH0 DUP5 ISZERO PUSH2 0x1392 JUMPI DUP3 DUP8 ADD MLOAD SWAP1 POP JUMPDEST PUSH2 0x139C DUP6 DUP3 PUSH2 0x1321 JUMP JUMPDEST DUP7 SSTORE POP PUSH2 0x1403 JUMP JUMPDEST PUSH1 0x1F NOT DUP5 AND PUSH2 0x13B2 DUP7 PUSH2 0x1182 JUMP JUMPDEST PUSH0 JUMPDEST DUP3 DUP2 LT ISZERO PUSH2 0x13D9 JUMPI DUP5 DUP10 ADD MLOAD DUP3 SSTORE PUSH1 0x1 DUP3 ADD SWAP2 POP PUSH1 0x20 DUP6 ADD SWAP5 POP PUSH1 0x20 DUP2 ADD SWAP1 POP PUSH2 0x13B4 JUMP JUMPDEST DUP7 DUP4 LT ISZERO PUSH2 0x13F6 JUMPI DUP5 DUP10 ADD MLOAD PUSH2 0x13F2 PUSH1 0x1F DUP10 AND DUP3 PUSH2 0x1305 JUMP JUMPDEST DUP4 SSTORE POP JUMPDEST PUSH1 0x1 PUSH1 0x2 DUP9 MUL ADD DUP9 SSTORE POP POP POP JUMPDEST POP POP POP POP POP POP JUMP JUMPDEST PUSH0 DUP2 SWAP1 POP SWAP3 SWAP2 POP POP JUMP JUMPDEST PUSH0 PUSH2 0x141F DUP3 PUSH2 0xF0C JUMP JUMPDEST PUSH2 0x1429 DUP2 DUP6 PUSH2 0x140B JUMP JUMPDEST SWAP4 POP PUSH2 0x1439 DUP2 DUP6 PUSH1 0x20 DUP7 ADD PUSH2 0xF26 JUMP JUMPDEST DUP1 DUP5 ADD SWAP2 POP POP SWAP3 SWAP2 POP POP JUMP JUMPDEST PUSH0 PUSH2 0x1450 DUP3 DUP5 PUSH2 0x1415 JUMP JUMPDEST SWAP2 POP DUP2 SWAP1 POP SWAP3 SWAP2 POP POP JUMP JUMPDEST PUSH32 0x4572726F723A596F752063616E6E6F7420646F75626C6520766F746500000000 PUSH0 DUP3 ADD MSTORE POP JUMP JUMPDEST PUSH0 PUSH2 0x148F PUSH1 0x1C DUP4 PUSH2 0xF16 JUMP JUMPDEST SWAP2 POP PUSH2 0x149A DUP3 PUSH2 0x145B JUMP JUMPDEST PUSH1 0x20 DUP3 ADD SWAP1 POP SWAP2 SWAP1 POP JUMP JUMPDEST PUSH0 PUSH1 0x20 DUP3 ADD SWAP1 POP DUP2 DUP2 SUB PUSH0 DUP4 ADD MSTORE PUSH2 0x14BC DUP2 PUSH2 0x1483 JUMP JUMPDEST SWAP1 POP SWAP2 SWAP1 POP JUMP INVALID LOG2 PUSH5 0x6970667358 0x22 SLT KECCAK256 PUSH13 0x6D63140697298870A30280585D 0xC4 0xC7 OR RETURNDATACOPY SWAP13 RETURNCONTRACT 0x5A DUP15 SWAP11 BYTE EOFCREATE 0x18 0xDD DUP9 DUPN 0xFE PUSH13 0x1564736F6C6343000821003300 "},"gasEstimates":{"creation":{"codeDepositCost":"1073800","executionCost":"infinite","totalCost":"infinite"},"external":{"addCandidate(string,string,string,string)":"infinite","candidates(uint8)":"infinite","getCandidate(uint8)":"infinite","getElectionDetails()":"infinite","getNumOfCandidates()":"2517","getNumOfVoters()":"2547","vote(uint8,string)":"infinite","winnerCandidate()":"infinite"}},"methodIdentifiers":{"addCandidate(string,string,string,string)":"42b03cc9","candidates(uint8)":"6d6277f4","getCandidate(uint8)":"cde9370f","getElectionDetails()":"ed836bc3","getNumOfCandidates()":"e8685ba1","getNumOfVoters()":"65fc783c","vote(uint8,string)":"b224c40a","winnerCandidate()":"a15148d1"}},"storageLayout":{"storage":[{"astId":109,"contract":"Election.sol:Election","label":"election_authority","offset":0,"slot":"0","type":"t_address"},{"astId":111,"contract":"Election.sol:Election","label":"election_name","offset":0,"slot":"1","type":"t_string_storage"},{"astId":113,"contract":"Election.sol:Election","label":"election_description","offset":0,"slot":"2","type":"t_string_storage"},{"astId":115,"contract":"Election.sol:Election","label":"status","offset":0,"slot":"3","type":"t_bool"},{"astId":169,"contract":"Election.sol:Election","label":"candidates","offset":0,"slot":"4","type":"t_mapping(t_uint8,t_struct(Candidate)164_storage)"},{"astId":179,"contract":"Election.sol:Election","label":"voters","offset":0,"slot":"5","type":"t_mapping(t_string_memory_ptr,t_struct(Voter)174_storage)"},{"astId":181,"contract":"Election.sol:Election","label":"numCandidates","offset":0,"slot":"6","type":"t_uint8"},{"astId":183,"contract":"Election.sol:Election","label":"numVoters","offset":1,"slot":"6","type":"t_uint8"}],"types":{"t_address":{"encoding":"inplace","label":"address","numberOfBytes":"20"},"t_bool":{"encoding":"inplace","label":"bool","numberOfBytes":"1"},"t_mapping(t_string_memory_ptr,t_struct(Voter)174_storage)":{"encoding":"mapping","key":"t_string_memory_ptr","label":"mapping(string => struct Election.Voter)","numberOfBytes":"32","value":"t_struct(Voter)174_storage"},"t_mapping(t_uint8,t_struct(Candidate)164_storage)":{"encoding":"mapping","key":"t_uint8","label":"mapping(uint8 => struct Election.Candidate)","numberOfBytes":"32","value":"t_struct(Candidate)164_storage"},"t_string_memory_ptr":{"encoding":"bytes","label":"string","numberOfBytes":"32"},"t_string_storage":{"encoding":"bytes","label":"string","numberOfBytes":"32"},"t_struct(Candidate)164_storage":{"encoding":"inplace","label":"struct Election.Candidate","members":[{"astId":155,"contract":"Election.sol:Election","label":"candidate_name","offset":0,"slot":"0","type":"t_string_storage"},{"astId":157,"contract":"Election.sol:Election","label":"candidate_description","offset":0,"slot":"1","type":"t_string_storage"},{"astId":159,"contract":"Election.sol:Election","label":"imgHash","offset":0,"slot":"2","type":"t_string_storage"},{"astId":161,"contract":"Election.sol:Election","label":"voteCount","offset":0,"slot":"3","type":"t_uint8"},{"astId":163,"contract":"Election.sol:Election","label":"email","offset":0,"slot":"4","type":"t_string_storage"}],"numberOfBytes":"160"},"t_struct(Voter)174_storage":{"encoding":"inplace","label":"struct Election.Voter","members":[{"astId":171,"contract":"Election.sol:Election","label":"candidate_id_voted","offset":0,"slot":"0","type":"t_uint8"},{"astId":173,"contract":"Election.sol:Election","label":"voted","offset":1,"slot":"0","type":"t_bool"}],"numberOfBytes":"32"},"t_uint8":{"encoding":"inplace","label":"uint8","numberOfBytes":"1"}}},"transientStorageLayout":{"storage":[],"types":null},"userdoc":{"kind":"user","methods":{},"version":1}}